{
  "address": "0x5FbDB2315678afecb367f032d93F642f64180aa3",
  "abi": [
    {
      "inputs": [],
      "stateMutability": "nonpayable",
      "type": "constructor"
    },
    {
      "anonymous": false,
      "inputs": [
        {
          "indexed": true,
          "internalType": "address",
          "name": "owner",
          "type": "address"
        },
        {
          "indexed": true,
          "internalType": "address",
          "name": "spender",
          "type": "address"
        },
        {
          "indexed": false,
          "internalType": "uint256",
          "name": "value",
          "type": "uint256"
        }
      ],
      "name": "Approval",
      "type": "event"
    },
    {
      "anonymous": false,
      "inputs": [
        {
          "indexed": true,
          "internalType": "address",
          "name": "delegator",
          "type": "address"
        },
        {
          "indexed": true,
          "internalType": "address",
          "name": "fromDelegate",
          "type": "address"
        },
        {
          "indexed": true,
          "internalType": "address",
          "name": "toDelegate",
          "type": "address"
        }
      ],
      "name": "DelegateChanged",
      "type": "event"
    },
    {
      "anonymous": false,
      "inputs": [
        {
          "indexed": true,
          "internalType": "address",
          "name": "delegate",
          "type": "address"
        },
        {
          "indexed": false,
          "internalType": "uint256",
          "name": "previousBalance",
          "type": "uint256"
        },
        {
          "indexed": false,
          "internalType": "uint256",
          "name": "newBalance",
          "type": "uint256"
        }
      ],
      "name": "DelegateVotesChanged",
      "type": "event"
    },
    {
      "anonymous": false,
      "inputs": [
        {
          "indexed": true,
          "internalType": "address",
          "name": "from",
          "type": "address"
        },
        {
          "indexed": true,
          "internalType": "address",
          "name": "to",
          "type": "address"
        },
        {
          "indexed": false,
          "internalType": "uint256",
          "name": "value",
          "type": "uint256"
        }
      ],
      "name": "Transfer",
      "type": "event"
    },
    {
      "inputs": [],
      "name": "DOMAIN_SEPARATOR",
      "outputs": [
        {
          "internalType": "bytes32",
          "name": "",
          "type": "bytes32"
        }
      ],
      "stateMutability": "view",
      "type": "function"
    },
    {
      "inputs": [
        {
          "internalType": "address",
          "name": "owner",
          "type": "address"
        },
        {
          "internalType": "address",
          "name": "spender",
          "type": "address"
        }
      ],
      "name": "allowance",
      "outputs": [
        {
          "internalType": "uint256",
          "name": "",
          "type": "uint256"
        }
      ],
      "stateMutability": "view",
      "type": "function"
    },
    {
      "inputs": [
        {
          "internalType": "address",
          "name": "spender",
          "type": "address"
        },
        {
          "internalType": "uint256",
          "name": "amount",
          "type": "uint256"
        }
      ],
      "name": "approve",
      "outputs": [
        {
          "internalType": "bool",
          "name": "",
          "type": "bool"
        }
      ],
      "stateMutability": "nonpayable",
      "type": "function"
    },
    {
      "inputs": [
        {
          "internalType": "address",
          "name": "account",
          "type": "address"
        }
      ],
      "name": "balanceOf",
      "outputs": [
        {
          "internalType": "uint256",
          "name": "",
          "type": "uint256"
        }
      ],
      "stateMutability": "view",
      "type": "function"
    },
    {
      "inputs": [
        {
          "internalType": "address",
          "name": "account",
          "type": "address"
        },
        {
          "internalType": "uint32",
          "name": "pos",
          "type": "uint32"
        }
      ],
      "name": "checkpoints",
      "outputs": [
        {
          "components": [
            {
              "internalType": "uint32",
              "name": "fromBlock",
              "type": "uint32"
            },
            {
              "internalType": "uint224",
              "name": "votes",
              "type": "uint224"
            }
          ],
          "internalType": "struct ERC20Votes.Checkpoint",
          "name": "",
          "type": "tuple"
        }
      ],
      "stateMutability": "view",
      "type": "function"
    },
    {
      "inputs": [],
      "name": "decimals",
      "outputs": [
        {
          "internalType": "uint8",
          "name": "",
          "type": "uint8"
        }
      ],
      "stateMutability": "view",
      "type": "function"
    },
    {
      "inputs": [
        {
          "internalType": "address",
          "name": "spender",
          "type": "address"
        },
        {
          "internalType": "uint256",
          "name": "subtractedValue",
          "type": "uint256"
        }
      ],
      "name": "decreaseAllowance",
      "outputs": [
        {
          "internalType": "bool",
          "name": "",
          "type": "bool"
        }
      ],
      "stateMutability": "nonpayable",
      "type": "function"
    },
    {
      "inputs": [
        {
          "internalType": "address",
          "name": "delegatee",
          "type": "address"
        }
      ],
      "name": "delegate",
      "outputs": [],
      "stateMutability": "nonpayable",
      "type": "function"
    },
    {
      "inputs": [
        {
          "internalType": "address",
          "name": "delegatee",
          "type": "address"
        },
        {
          "internalType": "uint256",
          "name": "nonce",
          "type": "uint256"
        },
        {
          "internalType": "uint256",
          "name": "expiry",
          "type": "uint256"
        },
        {
          "internalType": "uint8",
          "name": "v",
          "type": "uint8"
        },
        {
          "internalType": "bytes32",
          "name": "r",
          "type": "bytes32"
        },
        {
          "internalType": "bytes32",
          "name": "s",
          "type": "bytes32"
        }
      ],
      "name": "delegateBySig",
      "outputs": [],
      "stateMutability": "nonpayable",
      "type": "function"
    },
    {
      "inputs": [
        {
          "internalType": "address",
          "name": "account",
          "type": "address"
        }
      ],
      "name": "delegates",
      "outputs": [
        {
          "internalType": "address",
          "name": "",
          "type": "address"
        }
      ],
      "stateMutability": "view",
      "type": "function"
    },
    {
      "inputs": [
        {
          "internalType": "uint256",
          "name": "blockNumber",
          "type": "uint256"
        }
      ],
      "name": "getPastTotalSupply",
      "outputs": [
        {
          "internalType": "uint256",
          "name": "",
          "type": "uint256"
        }
      ],
      "stateMutability": "view",
      "type": "function"
    },
    {
      "inputs": [
        {
          "internalType": "address",
          "name": "account",
          "type": "address"
        },
        {
          "internalType": "uint256",
          "name": "blockNumber",
          "type": "uint256"
        }
      ],
      "name": "getPastVotes",
      "outputs": [
        {
          "internalType": "uint256",
          "name": "",
          "type": "uint256"
        }
      ],
      "stateMutability": "view",
      "type": "function"
    },
    {
      "inputs": [
        {
          "internalType": "address",
          "name": "account",
          "type": "address"
        }
      ],
      "name": "getVotes",
      "outputs": [
        {
          "internalType": "uint256",
          "name": "",
          "type": "uint256"
        }
      ],
      "stateMutability": "view",
      "type": "function"
    },
    {
      "inputs": [
        {
          "internalType": "address",
          "name": "spender",
          "type": "address"
        },
        {
          "internalType": "uint256",
          "name": "addedValue",
          "type": "uint256"
        }
      ],
      "name": "increaseAllowance",
      "outputs": [
        {
          "internalType": "bool",
          "name": "",
          "type": "bool"
        }
      ],
      "stateMutability": "nonpayable",
      "type": "function"
    },
    {
      "inputs": [],
      "name": "mint",
      "outputs": [],
      "stateMutability": "payable",
      "type": "function"
    },
    {
      "inputs": [],
      "name": "name",
      "outputs": [
        {
          "internalType": "string",
          "name": "",
          "type": "string"
        }
      ],
      "stateMutability": "view",
      "type": "function"
    },
    {
      "inputs": [
        {
          "internalType": "address",
          "name": "owner",
          "type": "address"
        }
      ],
      "name": "nonces",
      "outputs": [
        {
          "internalType": "uint256",
          "name": "",
          "type": "uint256"
        }
      ],
      "stateMutability": "view",
      "type": "function"
    },
    {
      "inputs": [
        {
          "internalType": "address",
          "name": "account",
          "type": "address"
        }
      ],
      "name": "numCheckpoints",
      "outputs": [
        {
          "internalType": "uint32",
          "name": "",
          "type": "uint32"
        }
      ],
      "stateMutability": "view",
      "type": "function"
    },
    {
      "inputs": [
        {
          "internalType": "address",
          "name": "owner",
          "type": "address"
        },
        {
          "internalType": "address",
          "name": "spender",
          "type": "address"
        },
        {
          "internalType": "uint256",
          "name": "value",
          "type": "uint256"
        },
        {
          "internalType": "uint256",
          "name": "deadline",
          "type": "uint256"
        },
        {
          "internalType": "uint8",
          "name": "v",
          "type": "uint8"
        },
        {
          "internalType": "bytes32",
          "name": "r",
          "type": "bytes32"
        },
        {
          "internalType": "bytes32",
          "name": "s",
          "type": "bytes32"
        }
      ],
      "name": "permit",
      "outputs": [],
      "stateMutability": "nonpayable",
      "type": "function"
    },
    {
      "inputs": [],
      "name": "s_maxSupply",
      "outputs": [
        {
          "internalType": "uint256",
          "name": "",
          "type": "uint256"
        }
      ],
      "stateMutability": "view",
      "type": "function"
    },
    {
      "inputs": [],
      "name": "symbol",
      "outputs": [
        {
          "internalType": "string",
          "name": "",
          "type": "string"
        }
      ],
      "stateMutability": "view",
      "type": "function"
    },
    {
      "inputs": [],
      "name": "totalSupply",
      "outputs": [
        {
          "internalType": "uint256",
          "name": "",
          "type": "uint256"
        }
      ],
      "stateMutability": "view",
      "type": "function"
    },
    {
      "inputs": [
        {
          "internalType": "address",
          "name": "to",
          "type": "address"
        },
        {
          "internalType": "uint256",
          "name": "amount",
          "type": "uint256"
        }
      ],
      "name": "transfer",
      "outputs": [
        {
          "internalType": "bool",
          "name": "",
          "type": "bool"
        }
      ],
      "stateMutability": "nonpayable",
      "type": "function"
    },
    {
      "inputs": [
        {
          "internalType": "address",
          "name": "from",
          "type": "address"
        },
        {
          "internalType": "address",
          "name": "to",
          "type": "address"
        },
        {
          "internalType": "uint256",
          "name": "amount",
          "type": "uint256"
        }
      ],
      "name": "transferFrom",
      "outputs": [
        {
          "internalType": "bool",
          "name": "",
          "type": "bool"
        }
      ],
      "stateMutability": "nonpayable",
      "type": "function"
    },
    {
      "inputs": [],
      "name": "withdraw",
      "outputs": [],
      "stateMutability": "nonpayable",
      "type": "function"
    }
  ],
  "transactionHash": "0x55f8ca4c5a73ff04f3575739a9959d1bd386debb924872260c1df7497c442c8a",
  "args": [],
  "numDeployments": 1,
  "solcInputHash": "14fb33a7e916ba4b485d10d11e6913cd",
  "bytecode": "0x61014060405269d3c21bcecceda1000000600a553480156200002057600080fd5b506040518060400160405280600f81526020016e23b7bb32b93730b731b2aa37b5b2b760891b81525080604051806040016040528060018152602001603160f81b8152506040518060400160405280600f81526020016e23b7bb32b93730b731b2aa37b5b2b760891b8152506040518060400160405280600281526020016111d560f21b8152508160039081620000b8919062000284565b506004620000c7828262000284565b5050825160208085019190912083519184019190912060e08290526101008190524660a0529091507f8b73c3c69bb8fe3d512ecc4cf759cc79239f7b179b0ffacaa9a75d522b39400f6200011d81848462000134565b6080523060c0526101205250620003cf9350505050565b600083838346306040516020016200015195949392919062000379565b6040516020818303038152906040528051906020012090509392505050565b634e487b7160e01b600052604160045260246000fd5b634e487b7160e01b600052602260045260246000fd5b600281046001821680620001b157607f821691505b602082108103620001c657620001c662000186565b50919050565b6000620001dd620001da8381565b90565b92915050565b620001ee83620001cc565b815460001960089490940293841b1916921b91909117905550565b600062000218818484620001e3565b505050565b818110156200023c576200023360008262000209565b6001016200021d565b5050565b601f82111562000218576000818152602090206020601f85010481016020851015620002695750805b6200027d6020601f8601048301826200021d565b5050505050565b81516001600160401b03811115620002a057620002a062000170565b620002ac82546200019c565b620002b982828562000240565b6020601f831160018114620002f05760008415620002d75750858201515b600019600886021c19811660028602178655506200034c565b600085815260208120601f198616915b8281101562000322578885015182556020948501946001909201910162000300565b868310156200033f5784890151600019601f89166008021c191682555b6001600288020188555050505b505050505050565b805b82525050565b60006001600160a01b038216620001dd565b62000356816200035c565b60a0810162000389828862000354565b62000398602083018762000354565b620003a7604083018662000354565b620003b6606083018562000354565b620003c560808301846200036e565b9695505050505050565b60805160a05160c05160e05161010051610120516129fe6200041f60003960006110090152600061104b0152600061102a01526000610f8e01526000610fb801526000610fe201526129fe6000f3fe6080604052600436106101965760003560e01c80635d641847116100e15780639ab24eb01161008a578063c3cda52011610064578063c3cda5201461046f578063d505accf1461048f578063dd62ed3e146104af578063f1127ed81461050257600080fd5b80639ab24eb01461040f578063a457c2d71461042f578063a9059cbb1461044f57600080fd5b80637ecebe00116100bb5780637ecebe00146103ba5780638e539e8c146103da57806395d89b41146103fa57600080fd5b80635d641847146103345780636fcfff451461034a57806370a082311461037757600080fd5b80633644e515116101435780633ccfd60b1161011d5780633ccfd60b146102ac578063587cde1e146102c15780635c19a95c1461031457600080fd5b80633644e51514610257578063395093511461026c5780633a46b1a81461028c57600080fd5b806318160ddd1161017457806318160ddd146101fd57806323b872dd1461021b578063313ce5671461023b57600080fd5b806306fdde031461019b578063095ea7b3146101c65780631249c58b146101f3575b600080fd5b3480156101a757600080fd5b506101b061052f565b6040516101bd9190611c8b565b60405180910390f35b3480156101d257600080fd5b506101e66101e1366004611cea565b6105c1565b6040516101bd9190611d31565b6101fb6105db565b005b34801561020957600080fd5b506002545b6040516101bd9190611d45565b34801561022757600080fd5b506101e6610236366004611d53565b61063e565b34801561024757600080fd5b5060126040516101bd9190611dac565b34801561026357600080fd5b5061020e610664565b34801561027857600080fd5b506101e6610287366004611cea565b610673565b34801561029857600080fd5b5061020e6102a7366004611cea565b6106bf565b3480156102b857600080fd5b506101fb610729565b3480156102cd57600080fd5b506103076102dc366004611dba565b73ffffffffffffffffffffffffffffffffffffffff9081166000908152600760205260409020541690565b6040516101bd9190611dec565b34801561032057600080fd5b506101fb61032f366004611dba565b610758565b34801561034057600080fd5b5061020e600a5481565b34801561035657600080fd5b5061036a610365366004611dba565b610762565b6040516101bd9190611e06565b34801561038357600080fd5b5061020e610392366004611dba565b73ffffffffffffffffffffffffffffffffffffffff1660009081526020819052604090205490565b3480156103c657600080fd5b5061020e6103d5366004611dba565b610791565b3480156103e657600080fd5b5061020e6103f5366004611e14565b6107bc565b34801561040657600080fd5b506101b0610802565b34801561041b57600080fd5b5061020e61042a366004611dba565b610811565b34801561043b57600080fd5b506101e661044a366004611cea565b6108dc565b34801561045b57600080fd5b506101e661046a366004611cea565b610962565b34801561047b57600080fd5b506101fb61048a366004611e49565b610970565b34801561049b57600080fd5b506101fb6104aa366004611ed3565b610a62565b3480156104bb57600080fd5b5061020e6104ca366004611f72565b73ffffffffffffffffffffffffffffffffffffffff918216600090815260016020908152604080832093909416825291909152205490565b34801561050e57600080fd5b5061052261051d366004611fbc565b610b92565b6040516101bd9190612037565b60606003805461053e90612074565b80601f016020809104026020016040519081016040528092919081815260200182805461056a90612074565b80156105b75780601f1061058c576101008083540402835291602001916105b7565b820191906000526020600020905b81548152906001019060200180831161059a57829003601f168201915b5050505050905090565b6000336105cf818585610c38565b60019150505b92915050565b346658d15e1762800014610624576040517f08c379a000000000000000000000000000000000000000000000000000000000815260040161061b906120d1565b60405180910390fd5b61063c336004600a54610637919061213f565b610d47565b565b60003361064c858285610d55565b610657858585610dfc565b60019150505b9392505050565b600061066e610f74565b905090565b33600081815260016020908152604080832073ffffffffffffffffffffffffffffffffffffffff871684529091528120549091906105cf90829086906106ba908790612153565b610c38565b60004382106106fa576040517f08c379a000000000000000000000000000000000000000000000000000000000815260040161061b9061219a565b73ffffffffffffffffffffffffffffffffffffffff8316600090815260086020526040902061065d908361106f565b60405133904780156108fc02916000818181858888f19350505050158015610755573d6000803e3d6000fd5b50565b6107553382611190565b73ffffffffffffffffffffffffffffffffffffffff81166000908152600860205260408120546105d59061122e565b73ffffffffffffffffffffffffffffffffffffffff81166000908152600560205260408120546105d5565b60004382106107f7576040517f08c379a000000000000000000000000000000000000000000000000000000000815260040161061b9061219a565b6105d560098361106f565b60606004805461053e90612074565b73ffffffffffffffffffffffffffffffffffffffff811660009081526008602052604081205480156108b45773ffffffffffffffffffffffffffffffffffffffff8316600090815260086020526040902061086d6001836121aa565b8154811061087d5761087d6121bd565b60009182526020909120015464010000000090047bffffffffffffffffffffffffffffffffffffffffffffffffffffffff166108b7565b60005b7bffffffffffffffffffffffffffffffffffffffffffffffffffffffff169392505050565b33600081815260016020908152604080832073ffffffffffffffffffffffffffffffffffffffff871684529091528120549091908381101561094a576040517f08c379a000000000000000000000000000000000000000000000000000000000815260040161061b90612249565b6109578286868403610c38565b506001949350505050565b6000336105cf818585610dfc565b834211156109aa576040517f08c379a000000000000000000000000000000000000000000000000000000000815260040161061b9061228d565b6000610a0c610a047fe48329057bfd03d55e49b547132e39cffd9c1820ad7b9d4c5307691425d15adf8989896040516020016109e9949392919061229d565b60405160208183030381529060405280519060200120611272565b858585611285565b9050610a17816112ad565b8614610a4f576040517f08c379a000000000000000000000000000000000000000000000000000000000815260040161061b9061230f565b610a598188611190565b50505050505050565b83421115610a9c576040517f08c379a000000000000000000000000000000000000000000000000000000000815260040161061b90612353565b60007f6e71edae12b1b97f4d1f60370fef10105fa2faae0126114a169c64845d6126c9888888610acb8c6112ad565b89604051602001610ae196959493929190612363565b6040516020818303038152906040528051906020012090506000610b0482611272565b90506000610b1482878787611285565b90508973ffffffffffffffffffffffffffffffffffffffff168173ffffffffffffffffffffffffffffffffffffffff1614610b7b576040517f08c379a000000000000000000000000000000000000000000000000000000000815260040161061b906123f1565b610b868a8a8a610c38565b50505050505050505050565b604080518082019091526000808252602082015273ffffffffffffffffffffffffffffffffffffffff83166000908152600860205260409020805463ffffffff8416908110610be357610be36121bd565b60009182526020918290206040805180820190915291015463ffffffff8116825264010000000090047bffffffffffffffffffffffffffffffffffffffffffffffffffffffff16918101919091529392505050565b73ffffffffffffffffffffffffffffffffffffffff8316610c85576040517f08c379a000000000000000000000000000000000000000000000000000000000815260040161061b9061245b565b73ffffffffffffffffffffffffffffffffffffffff8216610cd2576040517f08c379a000000000000000000000000000000000000000000000000000000000815260040161061b906124c5565b73ffffffffffffffffffffffffffffffffffffffff80841660008181526001602090815260408083209487168084529490915290819020849055517f8c5be1e5ebec7d5bd14f71427d1e84f3dd0314c0f7b2291e5b200ac8c7c3b92590610d3a908590611d45565b60405180910390a3505050565b610d5182826112e2565b5050565b73ffffffffffffffffffffffffffffffffffffffff8381166000908152600160209081526040808320938616835292905220547fffffffffffffffffffffffffffffffffffffffffffffffffffffffffffffffff8114610df65781811015610de9576040517f08c379a000000000000000000000000000000000000000000000000000000000815260040161061b90612509565b610df68484848403610c38565b50505050565b73ffffffffffffffffffffffffffffffffffffffff8316610e49576040517f08c379a000000000000000000000000000000000000000000000000000000000815260040161061b90612573565b73ffffffffffffffffffffffffffffffffffffffff8216610e96576040517f08c379a000000000000000000000000000000000000000000000000000000000815260040161061b906125dd565b73ffffffffffffffffffffffffffffffffffffffff831660009081526020819052604090205481811015610ef6576040517f08c379a000000000000000000000000000000000000000000000000000000000815260040161061b90612647565b73ffffffffffffffffffffffffffffffffffffffff80851660008181526020819052604080822086860390559286168082529083902080548601905591517fddf252ad1be2c89b69c2b068fc378daa952ba7f163c4a11628f55a4df523b3ef90610f61908690611d45565b60405180910390a3610df6848484611357565b60003073ffffffffffffffffffffffffffffffffffffffff7f000000000000000000000000000000000000000000000000000000000000000016148015610fda57507f000000000000000000000000000000000000000000000000000000000000000046145b1561100457507f000000000000000000000000000000000000000000000000000000000000000090565b61066e7f00000000000000000000000000000000000000000000000000000000000000007f00000000000000000000000000000000000000000000000000000000000000007f0000000000000000000000000000000000000000000000000000000000000000611362565b8154600090818160058111156110c957600061108a8461139c565b61109490856121aa565b600088815260209020909150869082015463ffffffff1611156110b9578091506110c7565b6110c4816001612153565b92505b505b808210156111165760006110dd8383611484565b600088815260209020909150869082015463ffffffff16111561110257809150611110565b61110d816001612153565b92505b506110c9565b8015611165576111398661112b6001846121aa565b600091825260209091200190565b5464010000000090047bffffffffffffffffffffffffffffffffffffffffffffffffffffffff16611168565b60005b7bffffffffffffffffffffffffffffffffffffffffffffffffffffffff169695505050505050565b73ffffffffffffffffffffffffffffffffffffffff8281166000818152600760208181526040808420805485845282862054949093528787167fffffffffffffffffffffffff00000000000000000000000000000000000000008416811790915590519190951694919391928592917f3134e8a2e6d97e929a7e54011ea5485d7d196dd5f0ba4d4ef95803e8e3fc257f9190a4610df682848361149f565b600063ffffffff82111561126e576040517f08c379a000000000000000000000000000000000000000000000000000000000815260040161061b906126b1565b5090565b60006105d561127f610f74565b83611632565b600080600061129687878787611665565b915091506112a381611747565b5095945050505050565b73ffffffffffffffffffffffffffffffffffffffff811660009081526005602052604090208054600181018255905b50919050565b6112ec8282611844565b6002547bffffffffffffffffffffffffffffffffffffffffffffffffffffffff1015611344576040517f08c379a000000000000000000000000000000000000000000000000000000000815260040161061b9061271b565b610df6600961191683611922565b505050565b611352838383611aca565b6000838383463060405160200161137d95949392919061272b565b6040516020818303038152906040528051906020012090509392505050565b6000816000036113ae57506000919050565b600060016113bb84611b09565b901c6001901b905060018184816113d4576113d46120e1565b048201901c905060018184816113ec576113ec6120e1565b048201901c90506001818481611404576114046120e1565b048201901c9050600181848161141c5761141c6120e1565b048201901c90506001818481611434576114346120e1565b048201901c9050600181848161144c5761144c6120e1565b048201901c90506001818481611464576114646120e1565b048201901c905061065d8182858161147e5761147e6120e1565b04611b9d565b6000611493600284841861213f565b61065d90848416612153565b8173ffffffffffffffffffffffffffffffffffffffff168373ffffffffffffffffffffffffffffffffffffffff16141580156114db5750600081115b156113525773ffffffffffffffffffffffffffffffffffffffff8316156115875773ffffffffffffffffffffffffffffffffffffffff83166000908152600860205260408120819061153090611bb385611922565b915091508473ffffffffffffffffffffffffffffffffffffffff167fdec2bacdd2f05b59de34da9b523dff8be42e5e38e818c82fdb0bae774387a724838360405161157c929190612777565b60405180910390a250505b73ffffffffffffffffffffffffffffffffffffffff8216156113525773ffffffffffffffffffffffffffffffffffffffff8216600090815260086020526040812081906115d79061191685611922565b915091508373ffffffffffffffffffffffffffffffffffffffff167fdec2bacdd2f05b59de34da9b523dff8be42e5e38e818c82fdb0bae774387a7248383604051611623929190612777565b60405180910390a25050505050565b60008282604051602001611647929190612792565b60405160208183030381529060405280519060200120905092915050565b6000807f7fffffffffffffffffffffffffffffff5d576e7357a4501ddfe92f46681b20a083111561169c575060009050600361173e565b6000600187878787604051600081526020016040526040516116c194939291906127de565b6020604051602081039080840390855afa1580156116e3573d6000803e3d6000fd5b50506040517fffffffffffffffffffffffffffffffffffffffffffffffffffffffffffffffe0015191505073ffffffffffffffffffffffffffffffffffffffff81166117375760006001925092505061173e565b9150600090505b94509492505050565b600081600481111561175b5761175b6127f9565b036117635750565b6001816004811115611777576117776127f9565b036117ae576040517f08c379a000000000000000000000000000000000000000000000000000000000815260040161061b9061285c565b60028160048111156117c2576117c26127f9565b036117f9576040517f08c379a000000000000000000000000000000000000000000000000000000000815260040161061b906128a0565b600381600481111561180d5761180d6127f9565b03610755576040517f08c379a000000000000000000000000000000000000000000000000000000000815260040161061b9061290a565b73ffffffffffffffffffffffffffffffffffffffff8216611891576040517f08c379a000000000000000000000000000000000000000000000000000000000815260040161061b9061294e565b80600260008282546118a39190612153565b909155505073ffffffffffffffffffffffffffffffffffffffff8216600081815260208190526040808220805485019055517fddf252ad1be2c89b69c2b068fc378daa952ba7f163c4a11628f55a4df523b3ef90611902908590611d45565b60405180910390a3610d5160008383611357565b600061065d8284612153565b825460009081908181156119845761193f8761112b6001856121aa565b60408051808201909152905463ffffffff8116825264010000000090047bffffffffffffffffffffffffffffffffffffffffffffffffffffffff166020820152611999565b60408051808201909152600080825260208201525b905080602001517bffffffffffffffffffffffffffffffffffffffffffffffffffffffff1693506119ce84868863ffffffff16565b92506000821180156119e65750805163ffffffff1643145b15611a40576119f483611bbf565b611a038861112b6001866121aa565b80547bffffffffffffffffffffffffffffffffffffffffffffffffffffffff929092166401000000000263ffffffff909216919091179055611ac0565b866040518060400160405280611a554361122e565b63ffffffff168152602001611a6986611bbf565b7bffffffffffffffffffffffffffffffffffffffffffffffffffffffff90811690915282546001810184556000938452602093849020835194909301519091166401000000000263ffffffff909316929092179101555b5050935093915050565b73ffffffffffffffffffffffffffffffffffffffff8381166000908152600760205260408082205485841683529120546113529291821691168361149f565b600080608083901c15611b1e57608092831c92015b604083901c15611b3057604092831c92015b602083901c15611b4257602092831c92015b601083901c15611b5457601092831c92015b600883901c15611b6657600892831c92015b600483901c15611b7857600492831c92015b600283901c15611b8a57600292831c92015b600183901c156105d55760010192915050565b6000818310611bac578161065d565b5090919050565b600061065d82846121aa565b60007bffffffffffffffffffffffffffffffffffffffffffffffffffffffff82111561126e576040517f08c379a000000000000000000000000000000000000000000000000000000000815260040161061b906129b8565b60005b83811015611c32578181015183820152602001611c1a565b50506000910152565b6000611c45825190565b808452602084019350611c5c818560208601611c17565b601f017fffffffffffffffffffffffffffffffffffffffffffffffffffffffffffffffe0169290920192915050565b6020808252810161065d8184611c3b565b600073ffffffffffffffffffffffffffffffffffffffff82166105d5565b611cc381611c9c565b811461075557600080fd5b80356105d581611cba565b80611cc3565b80356105d581611cd9565b60008060408385031215611d0057611d00600080fd5b6000611d0c8585611cce565b9250506020611d1d85828601611cdf565b9150509250929050565b8015155b82525050565b602081016105d58284611d27565b80611d2b565b602081016105d58284611d3f565b600080600060608486031215611d6b57611d6b600080fd5b6000611d778686611cce565b9350506020611d8886828701611cce565b9250506040611d9986828701611cdf565b9150509250925092565b60ff8116611d2b565b602081016105d58284611da3565b600060208284031215611dcf57611dcf600080fd5b6000611ddb8484611cce565b949350505050565b611d2b81611c9c565b602081016105d58284611de3565b63ffffffff8116611d2b565b602081016105d58284611dfa565b600060208284031215611e2957611e29600080fd5b6000611ddb8484611cdf565b60ff8116611cc3565b80356105d581611e35565b60008060008060008060c08789031215611e6557611e65600080fd5b6000611e718989611cce565b9650506020611e8289828a01611cdf565b9550506040611e9389828a01611cdf565b9450506060611ea489828a01611e3e565b9350506080611eb589828a01611cdf565b92505060a0611ec689828a01611cdf565b9150509295509295509295565b600080600080600080600060e0888a031215611ef157611ef1600080fd5b6000611efd8a8a611cce565b9750506020611f0e8a828b01611cce565b9650506040611f1f8a828b01611cdf565b9550506060611f308a828b01611cdf565b9450506080611f418a828b01611e3e565b93505060a0611f528a828b01611cdf565b92505060c0611f638a828b01611cdf565b91505092959891949750929550565b60008060408385031215611f8857611f88600080fd5b6000611f948585611cce565b9250506020611d1d85828601611cce565b63ffffffff8116611cc3565b80356105d581611fa5565b60008060408385031215611fd257611fd2600080fd5b6000611fde8585611cce565b9250506020611d1d85828601611fb1565b7bffffffffffffffffffffffffffffffffffffffffffffffffffffffff8116611d2b565b805160408301906120248482611dfa565b506020820151610df66020850182611fef565b604081016105d58284612013565b7f4e487b7100000000000000000000000000000000000000000000000000000000600052602260045260246000fd5b60028104600182168061208857607f821691505b6020821081036112dc576112dc612045565b600f81526000602082017f4e6f7420656e6f75676820455448210000000000000000000000000000000000815291505b5060200190565b602080825281016105d58161209a565b7f4e487b7100000000000000000000000000000000000000000000000000000000600052601260045260246000fd5b7f4e487b7100000000000000000000000000000000000000000000000000000000600052601160045260246000fd5b60008261214e5761214e6120e1565b500490565b808201808211156105d5576105d5612110565b601f81526000602082017f4552433230566f7465733a20626c6f636b206e6f7420796574206d696e656400815291506120ca565b602080825281016105d581612166565b818103818111156105d5576105d5612110565b7f4e487b7100000000000000000000000000000000000000000000000000000000600052603260045260246000fd5b602581526000602082017f45524332303a2064656372656173656420616c6c6f77616e63652062656c6f7781527f207a65726f000000000000000000000000000000000000000000000000000000602082015291505b5060400190565b602080825281016105d5816121ec565b601d81526000602082017f4552433230566f7465733a207369676e61747572652065787069726564000000815291506120ca565b602080825281016105d581612259565b608081016122ab8287611d3f565b6122b86020830186611de3565b6122c56040830185611d3f565b6122d26060830184611d3f565b95945050505050565b601981526000602082017f4552433230566f7465733a20696e76616c6964206e6f6e636500000000000000815291506120ca565b602080825281016105d5816122db565b601d81526000602082017f45524332305065726d69743a206578706972656420646561646c696e65000000815291506120ca565b602080825281016105d58161231f565b60c081016123718289611d3f565b61237e6020830188611de3565b61238b6040830187611de3565b6123986060830186611d3f565b6123a56080830185611d3f565b6123b260a0830184611d3f565b979650505050505050565b601e81526000602082017f45524332305065726d69743a20696e76616c6964207369676e61747572650000815291506120ca565b602080825281016105d5816123bd565b602481526000602082017f45524332303a20617070726f76652066726f6d20746865207a65726f2061646481527f726573730000000000000000000000000000000000000000000000000000000060208201529150612242565b602080825281016105d581612401565b602281526000602082017f45524332303a20617070726f766520746f20746865207a65726f20616464726581527f737300000000000000000000000000000000000000000000000000000000000060208201529150612242565b602080825281016105d58161246b565b601d81526000602082017f45524332303a20696e73756666696369656e7420616c6c6f77616e6365000000815291506120ca565b602080825281016105d5816124d5565b602581526000602082017f45524332303a207472616e736665722066726f6d20746865207a65726f20616481527f647265737300000000000000000000000000000000000000000000000000000060208201529150612242565b602080825281016105d581612519565b602381526000602082017f45524332303a207472616e7366657220746f20746865207a65726f206164647281527f657373000000000000000000000000000000000000000000000000000000000060208201529150612242565b602080825281016105d581612583565b602681526000602082017f45524332303a207472616e7366657220616d6f756e742065786365656473206281527f616c616e6365000000000000000000000000000000000000000000000000000060208201529150612242565b602080825281016105d5816125ed565b602681526000602082017f53616665436173743a2076616c756520646f65736e27742066697420696e203381527f322062697473000000000000000000000000000000000000000000000000000060208201529150612242565b602080825281016105d581612657565b603081526000602082017f4552433230566f7465733a20746f74616c20737570706c79207269736b73206f81527f766572666c6f77696e6720766f7465730000000000000000000000000000000060208201529150612242565b602080825281016105d5816126c1565b60a081016127398288611d3f565b6127466020830187611d3f565b6127536040830186611d3f565b6127606060830185611d3f565b61276d6080830184611de3565b9695505050505050565b604081016127858285611d3f565b61065d6020830184611d3f565b7f1901000000000000000000000000000000000000000000000000000000000000815260020160006127c48285611d3f565b6020820191506127d48284611d3f565b5060200192915050565b608081016127ec8287611d3f565b6122b86020830186611da3565b7f4e487b7100000000000000000000000000000000000000000000000000000000600052602160045260246000fd5b601881526000602082017f45434453413a20696e76616c6964207369676e61747572650000000000000000815291506120ca565b602080825281016105d581612828565b601f81526000602082017f45434453413a20696e76616c6964207369676e6174757265206c656e67746800815291506120ca565b602080825281016105d58161286c565b602281526000602082017f45434453413a20696e76616c6964207369676e6174757265202773272076616c81527f756500000000000000000000000000000000000000000000000000000000000060208201529150612242565b602080825281016105d5816128b0565b601f81526000602082017f45524332303a206d696e7420746f20746865207a65726f206164647265737300815291506120ca565b602080825281016105d58161291a565b602781526000602082017f53616665436173743a2076616c756520646f65736e27742066697420696e203281527f323420626974730000000000000000000000000000000000000000000000000060208201529150612242565b602080825281016105d58161295e56fea2646970667358221220a7dc4d1c82aa781ae5f335cd6b7082460b8644b3cdef321df139cf4cb083922164736f6c63430008120033",
  "devdoc": {
    "events": {
      "Approval(address,address,uint256)": {
        "details": "Emitted when the allowance of a `spender` for an `owner` is set by a call to {approve}. `value` is the new allowance."
      },
      "DelegateChanged(address,address,address)": {
        "details": "Emitted when an account changes their delegate."
      },
      "DelegateVotesChanged(address,uint256,uint256)": {
        "details": "Emitted when a token transfer or delegate change results in changes to a delegate's number of votes."
      },
      "Transfer(address,address,uint256)": {
        "details": "Emitted when `value` tokens are moved from one account (`from`) to another (`to`). Note that `value` may be zero."
      }
    },
    "kind": "dev",
    "methods": {
      "DOMAIN_SEPARATOR()": {
        "details": "See {IERC20Permit-DOMAIN_SEPARATOR}."
      },
      "allowance(address,address)": {
        "details": "See {IERC20-allowance}."
      },
      "approve(address,uint256)": {
        "details": "See {IERC20-approve}. NOTE: If `amount` is the maximum `uint256`, the allowance is not updated on `transferFrom`. This is semantically equivalent to an infinite approval. Requirements: - `spender` cannot be the zero address."
      },
      "balanceOf(address)": {
        "details": "See {IERC20-balanceOf}."
      },
      "checkpoints(address,uint32)": {
        "details": "Get the `pos`-th checkpoint for `account`."
      },
      "decimals()": {
        "details": "Returns the number of decimals used to get its user representation. For example, if `decimals` equals `2`, a balance of `505` tokens should be displayed to a user as `5.05` (`505 / 10 ** 2`). Tokens usually opt for a value of 18, imitating the relationship between Ether and Wei. This is the value {ERC20} uses, unless this function is overridden; NOTE: This information is only used for _display_ purposes: it in no way affects any of the arithmetic of the contract, including {IERC20-balanceOf} and {IERC20-transfer}."
      },
      "decreaseAllowance(address,uint256)": {
        "details": "Atomically decreases the allowance granted to `spender` by the caller. This is an alternative to {approve} that can be used as a mitigation for problems described in {IERC20-approve}. Emits an {Approval} event indicating the updated allowance. Requirements: - `spender` cannot be the zero address. - `spender` must have allowance for the caller of at least `subtractedValue`."
      },
      "delegate(address)": {
        "details": "Delegate votes from the sender to `delegatee`."
      },
      "delegateBySig(address,uint256,uint256,uint8,bytes32,bytes32)": {
        "details": "Delegates votes from signer to `delegatee`"
      },
      "delegates(address)": {
        "details": "Get the address `account` is currently delegating to."
      },
      "getPastTotalSupply(uint256)": {
        "details": "Retrieve the `totalSupply` at the end of `blockNumber`. Note, this value is the sum of all balances. It is but NOT the sum of all the delegated votes! Requirements: - `blockNumber` must have been already mined"
      },
      "getPastVotes(address,uint256)": {
        "details": "Retrieve the number of votes for `account` at the end of `blockNumber`. Requirements: - `blockNumber` must have been already mined"
      },
      "getVotes(address)": {
        "details": "Gets the current votes balance for `account`"
      },
      "increaseAllowance(address,uint256)": {
        "details": "Atomically increases the allowance granted to `spender` by the caller. This is an alternative to {approve} that can be used as a mitigation for problems described in {IERC20-approve}. Emits an {Approval} event indicating the updated allowance. Requirements: - `spender` cannot be the zero address."
      },
      "name()": {
        "details": "Returns the name of the token."
      },
      "nonces(address)": {
        "details": "See {IERC20Permit-nonces}."
      },
      "numCheckpoints(address)": {
        "details": "Get number of checkpoints for `account`."
      },
      "permit(address,address,uint256,uint256,uint8,bytes32,bytes32)": {
        "details": "See {IERC20Permit-permit}."
      },
      "symbol()": {
        "details": "Returns the symbol of the token, usually a shorter version of the name."
      },
      "totalSupply()": {
        "details": "See {IERC20-totalSupply}."
      },
      "transfer(address,uint256)": {
        "details": "See {IERC20-transfer}. Requirements: - `to` cannot be the zero address. - the caller must have a balance of at least `amount`."
      },
      "transferFrom(address,address,uint256)": {
        "details": "See {IERC20-transferFrom}. Emits an {Approval} event indicating the updated allowance. This is not required by the EIP. See the note at the beginning of {ERC20}. NOTE: Does not update the allowance if the current allowance is the maximum `uint256`. Requirements: - `from` and `to` cannot be the zero address. - `from` must have a balance of at least `amount`. - the caller must have allowance for ``from``'s tokens of at least `amount`."
      }
    },
    "version": 1
  },
  "userdoc": {
    "kind": "user",
    "methods": {},
    "version": 1
  },
  "storageLayout": {
    "storage": [
      {
        "astId": 2342,
        "contract": "contracts/Token.sol:Token",
        "label": "_balances",
        "offset": 0,
        "slot": "0",
        "type": "t_mapping(t_address,t_uint256)"
      },
      {
        "astId": 2348,
        "contract": "contracts/Token.sol:Token",
        "label": "_allowances",
        "offset": 0,
        "slot": "1",
        "type": "t_mapping(t_address,t_mapping(t_address,t_uint256))"
      },
      {
        "astId": 2350,
        "contract": "contracts/Token.sol:Token",
        "label": "_totalSupply",
        "offset": 0,
        "slot": "2",
        "type": "t_uint256"
      },
      {
        "astId": 2352,
        "contract": "contracts/Token.sol:Token",
        "label": "_name",
        "offset": 0,
        "slot": "3",
        "type": "t_string_storage"
      },
      {
        "astId": 2354,
        "contract": "contracts/Token.sol:Token",
        "label": "_symbol",
        "offset": 0,
        "slot": "4",
        "type": "t_string_storage"
      },
      {
        "astId": 3737,
        "contract": "contracts/Token.sol:Token",
        "label": "_nonces",
        "offset": 0,
        "slot": "5",
        "type": "t_mapping(t_address,t_struct(Counter)5669_storage)"
      },
      {
        "astId": 3745,
        "contract": "contracts/Token.sol:Token",
        "label": "_PERMIT_TYPEHASH_DEPRECATED_SLOT",
        "offset": 0,
        "slot": "6",
        "type": "t_bytes32"
      },
      {
        "astId": 3017,
        "contract": "contracts/Token.sol:Token",
        "label": "_delegates",
        "offset": 0,
        "slot": "7",
        "type": "t_mapping(t_address,t_address)"
      },
      {
        "astId": 3023,
        "contract": "contracts/Token.sol:Token",
        "label": "_checkpoints",
        "offset": 0,
        "slot": "8",
        "type": "t_mapping(t_address,t_array(t_struct(Checkpoint)3008_storage)dyn_storage)"
      },
      {
        "astId": 3027,
        "contract": "contracts/Token.sol:Token",
        "label": "_totalSupplyCheckpoints",
        "offset": 0,
        "slot": "9",
        "type": "t_array(t_struct(Checkpoint)3008_storage)dyn_storage"
      },
      {
        "astId": 9939,
        "contract": "contracts/Token.sol:Token",
        "label": "s_maxSupply",
        "offset": 0,
        "slot": "10",
        "type": "t_uint256"
      }
    ],
    "types": {
      "t_address": {
        "encoding": "inplace",
        "label": "address",
        "numberOfBytes": "20"
      },
      "t_array(t_struct(Checkpoint)3008_storage)dyn_storage": {
        "base": "t_struct(Checkpoint)3008_storage",
        "encoding": "dynamic_array",
        "label": "struct ERC20Votes.Checkpoint[]",
        "numberOfBytes": "32"
      },
      "t_bytes32": {
        "encoding": "inplace",
        "label": "bytes32",
        "numberOfBytes": "32"
      },
      "t_mapping(t_address,t_address)": {
        "encoding": "mapping",
        "key": "t_address",
        "label": "mapping(address => address)",
        "numberOfBytes": "32",
        "value": "t_address"
      },
      "t_mapping(t_address,t_array(t_struct(Checkpoint)3008_storage)dyn_storage)": {
        "encoding": "mapping",
        "key": "t_address",
        "label": "mapping(address => struct ERC20Votes.Checkpoint[])",
        "numberOfBytes": "32",
        "value": "t_array(t_struct(Checkpoint)3008_storage)dyn_storage"
      },
      "t_mapping(t_address,t_mapping(t_address,t_uint256))": {
        "encoding": "mapping",
        "key": "t_address",
        "label": "mapping(address => mapping(address => uint256))",
        "numberOfBytes": "32",
        "value": "t_mapping(t_address,t_uint256)"
      },
      "t_mapping(t_address,t_struct(Counter)5669_storage)": {
        "encoding": "mapping",
        "key": "t_address",
        "label": "mapping(address => struct Counters.Counter)",
        "numberOfBytes": "32",
        "value": "t_struct(Counter)5669_storage"
      },
      "t_mapping(t_address,t_uint256)": {
        "encoding": "mapping",
        "key": "t_address",
        "label": "mapping(address => uint256)",
        "numberOfBytes": "32",
        "value": "t_uint256"
      },
      "t_string_storage": {
        "encoding": "bytes",
        "label": "string",
        "numberOfBytes": "32"
      },
      "t_struct(Checkpoint)3008_storage": {
        "encoding": "inplace",
        "label": "struct ERC20Votes.Checkpoint",
        "members": [
          {
            "astId": 3005,
            "contract": "contracts/Token.sol:Token",
            "label": "fromBlock",
            "offset": 0,
            "slot": "0",
            "type": "t_uint32"
          },
          {
            "astId": 3007,
            "contract": "contracts/Token.sol:Token",
            "label": "votes",
            "offset": 4,
            "slot": "0",
            "type": "t_uint224"
          }
        ],
        "numberOfBytes": "32"
      },
      "t_struct(Counter)5669_storage": {
        "encoding": "inplace",
        "label": "struct Counters.Counter",
        "members": [
          {
            "astId": 5668,
            "contract": "contracts/Token.sol:Token",
            "label": "_value",
            "offset": 0,
            "slot": "0",
            "type": "t_uint256"
          }
        ],
        "numberOfBytes": "32"
      },
      "t_uint224": {
        "encoding": "inplace",
        "label": "uint224",
        "numberOfBytes": "28"
      },
      "t_uint256": {
        "encoding": "inplace",
        "label": "uint256",
        "numberOfBytes": "32"
      },
      "t_uint32": {
        "encoding": "inplace",
        "label": "uint32",
        "numberOfBytes": "4"
      }
    }
  }
}