{
  "address": "0x3FadA72f0E9D799c28432Ff83133d68Fd4578eaA",
  "abi": [
    {
      "inputs": [
        {
          "internalType": "contract IVotes",
          "name": "_token",
          "type": "address"
        },
        {
          "internalType": "address",
          "name": "_automation",
          "type": "address"
        }
      ],
      "stateMutability": "nonpayable",
      "type": "constructor"
    },
    {
      "inputs": [],
      "name": "Empty",
      "type": "error"
    },
    {
      "anonymous": false,
      "inputs": [
        {
          "indexed": false,
          "internalType": "uint256",
          "name": "proposalId",
          "type": "uint256"
        }
      ],
      "name": "ProposalCanceled",
      "type": "event"
    },
    {
      "anonymous": false,
      "inputs": [
        {
          "indexed": false,
          "internalType": "uint256",
          "name": "proposalId",
          "type": "uint256"
        },
        {
          "indexed": false,
          "internalType": "address",
          "name": "proposer",
          "type": "address"
        },
        {
          "indexed": false,
          "internalType": "address[]",
          "name": "targets",
          "type": "address[]"
        },
        {
          "indexed": false,
          "internalType": "uint256[]",
          "name": "values",
          "type": "uint256[]"
        },
        {
          "indexed": false,
          "internalType": "string[]",
          "name": "signatures",
          "type": "string[]"
        },
        {
          "indexed": false,
          "internalType": "bytes[]",
          "name": "calldatas",
          "type": "bytes[]"
        },
        {
          "indexed": false,
          "internalType": "uint256",
          "name": "startBlock",
          "type": "uint256"
        },
        {
          "indexed": false,
          "internalType": "uint256",
          "name": "endBlock",
          "type": "uint256"
        },
        {
          "indexed": false,
          "internalType": "string",
          "name": "description",
          "type": "string"
        }
      ],
      "name": "ProposalCreated",
      "type": "event"
    },
    {
      "anonymous": false,
      "inputs": [
        {
          "indexed": false,
          "internalType": "uint256",
          "name": "proposalId",
          "type": "uint256"
        }
      ],
      "name": "ProposalExecuted",
      "type": "event"
    },
    {
      "anonymous": false,
      "inputs": [
        {
          "indexed": false,
          "internalType": "uint256",
          "name": "oldQuorumNumerator",
          "type": "uint256"
        },
        {
          "indexed": false,
          "internalType": "uint256",
          "name": "newQuorumNumerator",
          "type": "uint256"
        }
      ],
      "name": "QuorumNumeratorUpdated",
      "type": "event"
    },
    {
      "anonymous": false,
      "inputs": [
        {
          "indexed": true,
          "internalType": "address",
          "name": "voter",
          "type": "address"
        },
        {
          "indexed": false,
          "internalType": "uint256",
          "name": "proposalId",
          "type": "uint256"
        },
        {
          "indexed": false,
          "internalType": "uint8",
          "name": "support",
          "type": "uint8"
        },
        {
          "indexed": false,
          "internalType": "uint256",
          "name": "weight",
          "type": "uint256"
        },
        {
          "indexed": false,
          "internalType": "string",
          "name": "reason",
          "type": "string"
        }
      ],
      "name": "VoteCast",
      "type": "event"
    },
    {
      "anonymous": false,
      "inputs": [
        {
          "indexed": true,
          "internalType": "address",
          "name": "voter",
          "type": "address"
        },
        {
          "indexed": false,
          "internalType": "uint256",
          "name": "proposalId",
          "type": "uint256"
        },
        {
          "indexed": false,
          "internalType": "uint8",
          "name": "support",
          "type": "uint8"
        },
        {
          "indexed": false,
          "internalType": "uint256",
          "name": "weight",
          "type": "uint256"
        },
        {
          "indexed": false,
          "internalType": "string",
          "name": "reason",
          "type": "string"
        },
        {
          "indexed": false,
          "internalType": "bytes",
          "name": "params",
          "type": "bytes"
        }
      ],
      "name": "VoteCastWithParams",
      "type": "event"
    },
    {
      "inputs": [],
      "name": "BALLOT_TYPEHASH",
      "outputs": [
        {
          "internalType": "bytes32",
          "name": "",
          "type": "bytes32"
        }
      ],
      "stateMutability": "view",
      "type": "function"
    },
    {
      "inputs": [],
      "name": "COUNTING_MODE",
      "outputs": [
        {
          "internalType": "string",
          "name": "",
          "type": "string"
        }
      ],
      "stateMutability": "pure",
      "type": "function"
    },
    {
      "inputs": [],
      "name": "EXTENDED_BALLOT_TYPEHASH",
      "outputs": [
        {
          "internalType": "bytes32",
          "name": "",
          "type": "bytes32"
        }
      ],
      "stateMutability": "view",
      "type": "function"
    },
    {
      "inputs": [],
      "name": "automation",
      "outputs": [
        {
          "internalType": "address",
          "name": "",
          "type": "address"
        }
      ],
      "stateMutability": "view",
      "type": "function"
    },
    {
      "inputs": [
        {
          "internalType": "address[]",
          "name": "targets",
          "type": "address[]"
        },
        {
          "internalType": "uint256[]",
          "name": "values",
          "type": "uint256[]"
        },
        {
          "internalType": "bytes[]",
          "name": "calldatas",
          "type": "bytes[]"
        },
        {
          "internalType": "bytes32",
          "name": "descriptionHash",
          "type": "bytes32"
        }
      ],
      "name": "cancel",
      "outputs": [],
      "stateMutability": "nonpayable",
      "type": "function"
    },
    {
      "inputs": [
        {
          "internalType": "uint256",
          "name": "proposalId",
          "type": "uint256"
        },
        {
          "internalType": "uint8",
          "name": "support",
          "type": "uint8"
        }
      ],
      "name": "castVote",
      "outputs": [
        {
          "internalType": "uint256",
          "name": "",
          "type": "uint256"
        }
      ],
      "stateMutability": "nonpayable",
      "type": "function"
    },
    {
      "inputs": [
        {
          "internalType": "uint256",
          "name": "proposalId",
          "type": "uint256"
        },
        {
          "internalType": "uint8",
          "name": "support",
          "type": "uint8"
        },
        {
          "internalType": "uint8",
          "name": "v",
          "type": "uint8"
        },
        {
          "internalType": "bytes32",
          "name": "r",
          "type": "bytes32"
        },
        {
          "internalType": "bytes32",
          "name": "s",
          "type": "bytes32"
        }
      ],
      "name": "castVoteBySig",
      "outputs": [
        {
          "internalType": "uint256",
          "name": "",
          "type": "uint256"
        }
      ],
      "stateMutability": "nonpayable",
      "type": "function"
    },
    {
      "inputs": [
        {
          "internalType": "uint256",
          "name": "proposalId",
          "type": "uint256"
        },
        {
          "internalType": "uint8",
          "name": "support",
          "type": "uint8"
        },
        {
          "internalType": "string",
          "name": "reason",
          "type": "string"
        }
      ],
      "name": "castVoteWithReason",
      "outputs": [
        {
          "internalType": "uint256",
          "name": "",
          "type": "uint256"
        }
      ],
      "stateMutability": "nonpayable",
      "type": "function"
    },
    {
      "inputs": [
        {
          "internalType": "uint256",
          "name": "proposalId",
          "type": "uint256"
        },
        {
          "internalType": "uint8",
          "name": "support",
          "type": "uint8"
        },
        {
          "internalType": "string",
          "name": "reason",
          "type": "string"
        },
        {
          "internalType": "bytes",
          "name": "params",
          "type": "bytes"
        }
      ],
      "name": "castVoteWithReasonAndParams",
      "outputs": [
        {
          "internalType": "uint256",
          "name": "",
          "type": "uint256"
        }
      ],
      "stateMutability": "nonpayable",
      "type": "function"
    },
    {
      "inputs": [
        {
          "internalType": "uint256",
          "name": "proposalId",
          "type": "uint256"
        },
        {
          "internalType": "uint8",
          "name": "support",
          "type": "uint8"
        },
        {
          "internalType": "string",
          "name": "reason",
          "type": "string"
        },
        {
          "internalType": "bytes",
          "name": "params",
          "type": "bytes"
        },
        {
          "internalType": "uint8",
          "name": "v",
          "type": "uint8"
        },
        {
          "internalType": "bytes32",
          "name": "r",
          "type": "bytes32"
        },
        {
          "internalType": "bytes32",
          "name": "s",
          "type": "bytes32"
        }
      ],
      "name": "castVoteWithReasonAndParamsBySig",
      "outputs": [
        {
          "internalType": "uint256",
          "name": "",
          "type": "uint256"
        }
      ],
      "stateMutability": "nonpayable",
      "type": "function"
    },
    {
      "inputs": [],
      "name": "currentProposal",
      "outputs": [
        {
          "internalType": "uint256",
          "name": "proposalId",
          "type": "uint256"
        },
        {
          "internalType": "uint256",
          "name": "executionTime",
          "type": "uint256"
        },
        {
          "internalType": "bytes32",
          "name": "description",
          "type": "bytes32"
        }
      ],
      "stateMutability": "view",
      "type": "function"
    },
    {
      "inputs": [
        {
          "internalType": "address[]",
          "name": "targets",
          "type": "address[]"
        },
        {
          "internalType": "uint256[]",
          "name": "values",
          "type": "uint256[]"
        },
        {
          "internalType": "bytes[]",
          "name": "calldatas",
          "type": "bytes[]"
        },
        {
          "internalType": "bytes32",
          "name": "descriptionHash",
          "type": "bytes32"
        }
      ],
      "name": "execute",
      "outputs": [
        {
          "internalType": "uint256",
          "name": "",
          "type": "uint256"
        }
      ],
      "stateMutability": "payable",
      "type": "function"
    },
    {
      "inputs": [],
      "name": "executionDelay",
      "outputs": [
        {
          "internalType": "uint256",
          "name": "",
          "type": "uint256"
        }
      ],
      "stateMutability": "view",
      "type": "function"
    },
    {
      "inputs": [],
      "name": "getCalldatas",
      "outputs": [
        {
          "internalType": "bytes[]",
          "name": "",
          "type": "bytes[]"
        }
      ],
      "stateMutability": "view",
      "type": "function"
    },
    {
      "inputs": [],
      "name": "getDescription",
      "outputs": [
        {
          "internalType": "bytes32",
          "name": "",
          "type": "bytes32"
        }
      ],
      "stateMutability": "view",
      "type": "function"
    },
    {
      "inputs": [],
      "name": "getExecutionTime",
      "outputs": [
        {
          "internalType": "uint256",
          "name": "",
          "type": "uint256"
        }
      ],
      "stateMutability": "view",
      "type": "function"
    },
    {
      "inputs": [],
      "name": "getProposalId",
      "outputs": [
        {
          "internalType": "uint256",
          "name": "",
          "type": "uint256"
        }
      ],
      "stateMutability": "view",
      "type": "function"
    },
    {
      "inputs": [],
      "name": "getTargets",
      "outputs": [
        {
          "internalType": "address[]",
          "name": "",
          "type": "address[]"
        }
      ],
      "stateMutability": "view",
      "type": "function"
    },
    {
      "inputs": [],
      "name": "getValues",
      "outputs": [
        {
          "internalType": "uint256[]",
          "name": "",
          "type": "uint256[]"
        }
      ],
      "stateMutability": "view",
      "type": "function"
    },
    {
      "inputs": [
        {
          "internalType": "address",
          "name": "account",
          "type": "address"
        },
        {
          "internalType": "uint256",
          "name": "blockNumber",
          "type": "uint256"
        }
      ],
      "name": "getVotes",
      "outputs": [
        {
          "internalType": "uint256",
          "name": "",
          "type": "uint256"
        }
      ],
      "stateMutability": "view",
      "type": "function"
    },
    {
      "inputs": [
        {
          "internalType": "address",
          "name": "account",
          "type": "address"
        },
        {
          "internalType": "uint256",
          "name": "blockNumber",
          "type": "uint256"
        },
        {
          "internalType": "bytes",
          "name": "params",
          "type": "bytes"
        }
      ],
      "name": "getVotesWithParams",
      "outputs": [
        {
          "internalType": "uint256",
          "name": "",
          "type": "uint256"
        }
      ],
      "stateMutability": "view",
      "type": "function"
    },
    {
      "inputs": [
        {
          "internalType": "uint256",
          "name": "proposalId",
          "type": "uint256"
        },
        {
          "internalType": "address",
          "name": "account",
          "type": "address"
        }
      ],
      "name": "hasVoted",
      "outputs": [
        {
          "internalType": "bool",
          "name": "",
          "type": "bool"
        }
      ],
      "stateMutability": "view",
      "type": "function"
    },
    {
      "inputs": [
        {
          "internalType": "address[]",
          "name": "targets",
          "type": "address[]"
        },
        {
          "internalType": "uint256[]",
          "name": "values",
          "type": "uint256[]"
        },
        {
          "internalType": "bytes[]",
          "name": "calldatas",
          "type": "bytes[]"
        },
        {
          "internalType": "bytes32",
          "name": "descriptionHash",
          "type": "bytes32"
        }
      ],
      "name": "hashProposal",
      "outputs": [
        {
          "internalType": "uint256",
          "name": "",
          "type": "uint256"
        }
      ],
      "stateMutability": "pure",
      "type": "function"
    },
    {
      "inputs": [],
      "name": "isReadyToExecution",
      "outputs": [
        {
          "internalType": "bool",
          "name": "",
          "type": "bool"
        }
      ],
      "stateMutability": "view",
      "type": "function"
    },
    {
      "inputs": [],
      "name": "isReadyToPropose",
      "outputs": [
        {
          "internalType": "bool",
          "name": "",
          "type": "bool"
        }
      ],
      "stateMutability": "view",
      "type": "function"
    },
    {
      "inputs": [],
      "name": "name",
      "outputs": [
        {
          "internalType": "string",
          "name": "",
          "type": "string"
        }
      ],
      "stateMutability": "view",
      "type": "function"
    },
    {
      "inputs": [
        {
          "internalType": "address",
          "name": "",
          "type": "address"
        },
        {
          "internalType": "address",
          "name": "",
          "type": "address"
        },
        {
          "internalType": "uint256[]",
          "name": "",
          "type": "uint256[]"
        },
        {
          "internalType": "uint256[]",
          "name": "",
          "type": "uint256[]"
        },
        {
          "internalType": "bytes",
          "name": "",
          "type": "bytes"
        }
      ],
      "name": "onERC1155BatchReceived",
      "outputs": [
        {
          "internalType": "bytes4",
          "name": "",
          "type": "bytes4"
        }
      ],
      "stateMutability": "nonpayable",
      "type": "function"
    },
    {
      "inputs": [
        {
          "internalType": "address",
          "name": "",
          "type": "address"
        },
        {
          "internalType": "address",
          "name": "",
          "type": "address"
        },
        {
          "internalType": "uint256",
          "name": "",
          "type": "uint256"
        },
        {
          "internalType": "uint256",
          "name": "",
          "type": "uint256"
        },
        {
          "internalType": "bytes",
          "name": "",
          "type": "bytes"
        }
      ],
      "name": "onERC1155Received",
      "outputs": [
        {
          "internalType": "bytes4",
          "name": "",
          "type": "bytes4"
        }
      ],
      "stateMutability": "nonpayable",
      "type": "function"
    },
    {
      "inputs": [
        {
          "internalType": "address",
          "name": "",
          "type": "address"
        },
        {
          "internalType": "address",
          "name": "",
          "type": "address"
        },
        {
          "internalType": "uint256",
          "name": "",
          "type": "uint256"
        },
        {
          "internalType": "bytes",
          "name": "",
          "type": "bytes"
        }
      ],
      "name": "onERC721Received",
      "outputs": [
        {
          "internalType": "bytes4",
          "name": "",
          "type": "bytes4"
        }
      ],
      "stateMutability": "nonpayable",
      "type": "function"
    },
    {
      "inputs": [
        {
          "internalType": "uint256",
          "name": "proposalId",
          "type": "uint256"
        }
      ],
      "name": "proposalDeadline",
      "outputs": [
        {
          "internalType": "uint256",
          "name": "",
          "type": "uint256"
        }
      ],
      "stateMutability": "view",
      "type": "function"
    },
    {
      "inputs": [
        {
          "internalType": "uint256",
          "name": "proposalId",
          "type": "uint256"
        }
      ],
      "name": "proposalSnapshot",
      "outputs": [
        {
          "internalType": "uint256",
          "name": "",
          "type": "uint256"
        }
      ],
      "stateMutability": "view",
      "type": "function"
    },
    {
      "inputs": [],
      "name": "proposalThreshold",
      "outputs": [
        {
          "internalType": "uint256",
          "name": "",
          "type": "uint256"
        }
      ],
      "stateMutability": "view",
      "type": "function"
    },
    {
      "inputs": [
        {
          "internalType": "uint256",
          "name": "proposalId",
          "type": "uint256"
        }
      ],
      "name": "proposalVotes",
      "outputs": [
        {
          "internalType": "uint256",
          "name": "againstVotes",
          "type": "uint256"
        },
        {
          "internalType": "uint256",
          "name": "forVotes",
          "type": "uint256"
        },
        {
          "internalType": "uint256",
          "name": "abstainVotes",
          "type": "uint256"
        }
      ],
      "stateMutability": "view",
      "type": "function"
    },
    {
      "inputs": [
        {
          "internalType": "address[]",
          "name": "targets",
          "type": "address[]"
        },
        {
          "internalType": "uint256[]",
          "name": "values",
          "type": "uint256[]"
        },
        {
          "internalType": "bytes[]",
          "name": "calldatas",
          "type": "bytes[]"
        },
        {
          "internalType": "string",
          "name": "description",
          "type": "string"
        }
      ],
      "name": "propose",
      "outputs": [
        {
          "internalType": "uint256",
          "name": "",
          "type": "uint256"
        }
      ],
      "stateMutability": "nonpayable",
      "type": "function"
    },
    {
      "inputs": [
        {
          "internalType": "uint256",
          "name": "blockNumber",
          "type": "uint256"
        }
      ],
      "name": "quorum",
      "outputs": [
        {
          "internalType": "uint256",
          "name": "",
          "type": "uint256"
        }
      ],
      "stateMutability": "view",
      "type": "function"
    },
    {
      "inputs": [],
      "name": "quorumDenominator",
      "outputs": [
        {
          "internalType": "uint256",
          "name": "",
          "type": "uint256"
        }
      ],
      "stateMutability": "view",
      "type": "function"
    },
    {
      "inputs": [
        {
          "internalType": "uint256",
          "name": "blockNumber",
          "type": "uint256"
        }
      ],
      "name": "quorumNumerator",
      "outputs": [
        {
          "internalType": "uint256",
          "name": "",
          "type": "uint256"
        }
      ],
      "stateMutability": "view",
      "type": "function"
    },
    {
      "inputs": [],
      "name": "quorumNumerator",
      "outputs": [
        {
          "internalType": "uint256",
          "name": "",
          "type": "uint256"
        }
      ],
      "stateMutability": "view",
      "type": "function"
    },
    {
      "inputs": [
        {
          "internalType": "address",
          "name": "target",
          "type": "address"
        },
        {
          "internalType": "uint256",
          "name": "value",
          "type": "uint256"
        },
        {
          "internalType": "bytes",
          "name": "data",
          "type": "bytes"
        }
      ],
      "name": "relay",
      "outputs": [],
      "stateMutability": "payable",
      "type": "function"
    },
    {
      "inputs": [
        {
          "internalType": "address",
          "name": "_automation",
          "type": "address"
        }
      ],
      "name": "setAutomation",
      "outputs": [],
      "stateMutability": "nonpayable",
      "type": "function"
    },
    {
      "inputs": [
        {
          "internalType": "uint256",
          "name": "proposalId",
          "type": "uint256"
        }
      ],
      "name": "state",
      "outputs": [
        {
          "internalType": "enum IGovernor.ProposalState",
          "name": "",
          "type": "uint8"
        }
      ],
      "stateMutability": "view",
      "type": "function"
    },
    {
      "inputs": [
        {
          "internalType": "bytes4",
          "name": "interfaceId",
          "type": "bytes4"
        }
      ],
      "name": "supportsInterface",
      "outputs": [
        {
          "internalType": "bool",
          "name": "",
          "type": "bool"
        }
      ],
      "stateMutability": "view",
      "type": "function"
    },
    {
      "inputs": [],
      "name": "token",
      "outputs": [
        {
          "internalType": "contract IVotes",
          "name": "",
          "type": "address"
        }
      ],
      "stateMutability": "view",
      "type": "function"
    },
    {
      "inputs": [
        {
          "internalType": "uint256",
          "name": "newQuorumNumerator",
          "type": "uint256"
        }
      ],
      "name": "updateQuorumNumerator",
      "outputs": [],
      "stateMutability": "nonpayable",
      "type": "function"
    },
    {
      "inputs": [],
      "name": "version",
      "outputs": [
        {
          "internalType": "string",
          "name": "",
          "type": "string"
        }
      ],
      "stateMutability": "view",
      "type": "function"
    },
    {
      "inputs": [],
      "name": "votingDelay",
      "outputs": [
        {
          "internalType": "uint256",
          "name": "",
          "type": "uint256"
        }
      ],
      "stateMutability": "pure",
      "type": "function"
    },
    {
      "inputs": [],
      "name": "votingPeriod",
      "outputs": [
        {
          "internalType": "uint256",
          "name": "",
          "type": "uint256"
        }
      ],
      "stateMutability": "pure",
      "type": "function"
    },
    {
      "stateMutability": "payable",
      "type": "receive"
    }
  ],
  "transactionHash": "0xb5bf45b5ebe18157bb519648d964b96ca1362c9ad5454af941f1e1fc6317b7d3",
  "args": [
    "0xc1E3bd6Ee4bb6f78c0817453E534E8223F9f339B",
    "0xbb1bDC005d77E0aCFb5E7a83C246DD9F86A971F8"
  ],
  "numDeployments": 1,
  "solcInputHash": "b7a0d19b6b903f5d5d8a3eef0f405cb2",
  "bytecode": "0x610160604052603c600e553480156200001757600080fd5b5060405162005609380380620056098339810160408190526200003a91620005b2565b6004826040518060400160405280600a815260200169476f7665726e616e636560b01b81525080620000716200012460201b60201c565b815160208084019190912082519183019190912060e08290526101008190524660a0527f8b73c3c69bb8fe3d512ecc4cf759cc79239f7b179b0ffacaa9a75d522b39400f620000c28184846200013f565b6080523060c052610120525060009250620000e291508390508262000703565b50506001600160a01b031661014052620000fc816200017c565b50600780546001600160a01b0319166001600160a01b039290921691909117905550620009e0565b6040805180820190915260018152603160f81b602082015290565b600083838346306040516020016200015c959493929190620007e6565b6040516020818303038152906040528051906020012090505b9392505050565b6064811115620001a95760405162461bcd60e51b8152600401620001a0906200083c565b60405180910390fd5b6000620001b56200029e565b90508015801590620001c75750600654155b15620002425760066000016040518060400160405280600063ffffffff1681526020016200020084620002d660201b6200167a1760201c565b6001600160e01b0390811690915282546001810184556000938452602093849020835194909301519091166401000000000263ffffffff909316929092179101555b6200025d8260066200030660201b620016d61790919060201c565b50507f0553476bf02ef2726e8ce5ced78d63e26e602e4a2257b1f559418e24b4633997818360405162000292929190620008aa565b60405180910390a15050565b60065460009015620002cf57620002c160066200035960201b620017211760201c565b6001600160e01b0316905090565b5060055490565b60006001600160e01b03821115620003025760405162461bcd60e51b8152600401620001a09062000910565b5090565b60008062000343846000016200032743620003a660201b6200177e1760201c565b6200033d86620002d660201b6200167a1760201c565b620003cf565b6001600160e01b03918216969116945092505050565b805460009080156200039d5762000385836200037760018462000938565b600091825260209091200190565b5464010000000090046001600160e01b031662000175565b60009392505050565b600063ffffffff821115620003025760405162461bcd60e51b8152600401620001a09062000992565b825460009081908015620004f5576000620003f1876200037760018562000938565b60408051808201909152905463ffffffff8082168084526401000000009092046001600160e01b031660208401529192509087161015620004465760405162461bcd60e51b8152600401620001a090620009a4565b805163ffffffff8088169116036200049457846200046b886200037760018662000938565b80546001600160e01b03929092166401000000000263ffffffff909216919091179055620004e4565b6040805180820190915263ffffffff80881682526001600160e01b0380881660208085019182528b54600181018d5560008d81529190912094519151909216640100000000029216919091179101555b6020015192508391506200054b9050565b50506040805180820190915263ffffffff80851682526001600160e01b0380851660208085019182528854600181018a5560008a8152918220955192519093166401000000000291909316179201919091559050815b935093915050565b60006001600160a01b0382165b92915050565b6000620005608262000553565b6200057e8162000566565b81146200058a57600080fd5b50565b8051620005608162000573565b6200057e8162000553565b805162000560816200059a565b60008060408385031215620005ca57620005ca600080fd5b6000620005d885856200058d565b9250506020620005eb85828601620005a5565b9150509250929050565b634e487b7160e01b600052604160045260246000fd5b634e487b7160e01b600052602260045260246000fd5b6002810460018216806200063657607f821691505b6020821081036200064b576200064b6200060b565b50919050565b6000620005606200065f8381565b90565b6200066d8362000651565b815460001960089490940293841b1916921b91909117905550565b60006200069781848462000662565b505050565b81811015620006bb57620006b260008262000688565b6001016200069c565b5050565b601f82111562000697576000818152602090206020601f85010481016020851015620006e85750805b620006fc6020601f8601048301826200069c565b5050505050565b81516001600160401b038111156200071f576200071f620005f5565b6200072b825462000621565b62000738828285620006bf565b6020601f8311600181146200076f5760008415620007565750858201515b600019600886021c1981166002860217865550620007cb565b600085815260208120601f198616915b82811015620007a157888501518255602094850194600190920191016200077f565b86831015620007be5784890151600019601f89166008021c191682555b6001600288020188555050505b505050505050565b805b82525050565b620007d58162000553565b60a08101620007f68288620007d3565b620008056020830187620007d3565b620008146040830186620007d3565b620008236060830185620007d3565b620008326080830184620007db565b9695505050505050565b602080825281016200056081604381527f476f7665726e6f72566f74657351756f72756d4672616374696f6e3a2071756f60208201527f72756d4e756d657261746f72206f7665722071756f72756d44656e6f6d696e616040820152623a37b960e91b606082015260800190565b60408101620008ba8285620007d3565b620001756020830184620007d3565b602781526000602082017f53616665436173743a2076616c756520646f65736e27742066697420696e20328152663234206269747360c81b602082015291505b5060400190565b602080825281016200056081620008c9565b634e487b7160e01b600052601160045260246000fd5b8181038181111562000560576200056062000922565b602681526000602082017f53616665436173743a2076616c756520646f65736e27742066697420696e203381526532206269747360d01b6020820152915062000909565b6020808252810162000560816200094e565b602080825281016200056081601781527f436865636b706f696e743a20696e76616c6964206b6579000000000000000000602082015260400190565b60805160a05160c05160e051610100516101205161014051614bc062000a49600039600081816109b901528181612187015261226201526000612566015260006125a801526000612587015260006124eb015260006125150152600061253f0152614bc06000f3fe60806040526004361061030c5760003560e01c80635f398a141161019a578063bc197c81116100e1578063e5adf8a51161008a578063f8ce560a11610064578063f8ce560a14610987578063fc0c546a146109a7578063fe95ad48146109e857600080fd5b8063e5adf8a51461090d578063eb9019d414610922578063f23a6e611461094257600080fd5b8063c59057e4116100bb578063c59057e414610873578063dd4e2ba514610893578063deaaa7cc146108d957600080fd5b8063bc197c81146107fb578063c01f9e3714610840578063c28bc2fa1461086057600080fd5b80638b25798911610143578063a7713a701161011d578063a7713a70146107b0578063b36ea864146107c5578063b58131b0146107e757600080fd5b80638b2579891461076657806397c3d3341461077c5780639a802a6d1461079057600080fd5b8063730dcc8e11610174578063730dcc8e146107065780637b3c71d3146107265780637d5e81e21461074657600080fd5b80635f398a14146106a457806360c4247f146106c457806363fe3b56146106e457600080fd5b80632d63f6931161025e578063452115d611610207578063544ffc9c116101e1578063544ffc9c1461060457806354fd4d501461063e578063567813881461068457600080fd5b8063452115d61461059557806349f961d6146105b5578063532c27b8146105ef57600080fd5b80633bccf4fd116102385780633bccf4fd146104f15780633e4f49e614610511578063438596321461053e57600080fd5b80632d63f693146104895780632fe3e261146104a95780633932abb1146104dd57600080fd5b8063150b7a02116102c05780631ad85cb51161029a5780631ad85cb5146104335780632656227d146104485780632b49d4251461045b57600080fd5b8063150b7a02146103cf57806319eb4a90146103fc5780631a0925411461041e57600080fd5b806303420181116102f1578063034201811461036d57806306f3f9e61461038d57806306fdde03146103ad57600080fd5b806301ffc9a71461031a57806302a251a31461035057600080fd5b3661031557005b005b600080fd5b34801561032657600080fd5b5061033a610335366004612ea8565b6109fd565b6040516103479190612ed3565b60405180910390f35b34801561035c57600080fd5b50600a5b6040516103479190612ee7565b34801561037957600080fd5b506103606103883660046130ad565b610b2e565b34801561039957600080fd5b506103136103a8366004613186565b610c05565b3480156103b957600080fd5b506103c2610c6a565b604051610347919061321b565b3480156103db57600080fd5b506103ef6103ea36600461325e565b610cfc565b6040516103479190613305565b34801561040857600080fd5b50610411610d26565b6040516103479190613370565b34801561042a57600080fd5b50600d54610360565b34801561043f57600080fd5b5061033a610d80565b61036061045636600461352b565b610dcf565b34801561046757600080fd5b50600854600954600d5461047a92919083565b604051610347939291906135d3565b34801561049557600080fd5b506103606104a4366004613186565b610e38565b3480156104b557600080fd5b506103607fb3b3f3b703cd84ce352197dcff232b1b5d3cfb2025ce47cf04742d0651f1af8881565b3480156104e957600080fd5b506001610360565b3480156104fd57600080fd5b5061036061050c3660046135fb565b610e71565b34801561051d57600080fd5b5061053161052c366004613186565b610ed7565b60405161034791906136d0565b34801561054a57600080fd5b5061033a6105593660046136de565b600082815260046020908152604080832073ffffffffffffffffffffffffffffffffffffffff8516845260030190915290205460ff1692915050565b3480156105a157600080fd5b506103136105b036600461352b565b610fd0565b3480156105c157600080fd5b506007546105e29073ffffffffffffffffffffffffffffffffffffffff1681565b6040516103479190613724565b3480156105fb57600080fd5b50600854610360565b34801561061057600080fd5b5061047a61061f366004613186565b6000908152600460205260409020805460018201546002909201549092565b34801561064a57600080fd5b5060408051808201909152600181527f310000000000000000000000000000000000000000000000000000000000000060208201526103c2565b34801561069057600080fd5b5061036061069f366004613732565b611021565b3480156106b057600080fd5b506103606106bf366004613765565b611042565b3480156106d057600080fd5b506103606106df366004613186565b61108c565b3480156106f057600080fd5b506106f961114e565b6040516103479190613841565b34801561071257600080fd5b50610313610721366004613852565b6111bf565b34801561073257600080fd5b50610360610741366004613873565b61123f565b34801561075257600080fd5b506103606107613660046138e1565b611291565b34801561077257600080fd5b50610360600e5481565b34801561078857600080fd5b506064610360565b34801561079c57600080fd5b506103606107ab366004613978565b611329565b3480156107bc57600080fd5b50610360611340565b3480156107d157600080fd5b506107da61137f565b6040516103479190613a55565b3480156107f357600080fd5b506000610360565b34801561080757600080fd5b506103ef610816366004613a66565b7fbc197c810000000000000000000000000000000000000000000000000000000095945050505050565b34801561084c57600080fd5b5061036061085b366004613186565b61145b565b61031361086e366004613b16565b61148b565b34801561087f57600080fd5b5061036061088e36600461352b565b611579565b34801561089f57600080fd5b506040805180820190915260208082527f737570706f72743d627261766f2671756f72756d3d666f722c6162737461696e908201526103c2565b3480156108e557600080fd5b506103607f150214d74d59b7d1e90c73fc22ef3d991dd0a76b046543d4d80ab92d2a50328f81565b34801561091957600080fd5b5061033a6115d1565b34801561092e57600080fd5b5061036061093d366004613b4c565b61164e565b34801561094e57600080fd5b506103ef61095d366004613b7f565b7ff23a6e610000000000000000000000000000000000000000000000000000000095945050505050565b34801561099357600080fd5b506103606109a2366004613186565b61166f565b3480156109b357600080fd5b506109db7f000000000000000000000000000000000000000000000000000000000000000081565b6040516103479190613c35565b3480156109f457600080fd5b50600954610360565b60007fffffffff0000000000000000000000000000000000000000000000000000000082167fbf26d897000000000000000000000000000000000000000000000000000000001480610a9057507fffffffff0000000000000000000000000000000000000000000000000000000082167f79dd796f00000000000000000000000000000000000000000000000000000000145b80610adc57507fffffffff0000000000000000000000000000000000000000000000000000000082167f4e2312e000000000000000000000000000000000000000000000000000000000145b80610b2857507f01ffc9a7000000000000000000000000000000000000000000000000000000007fffffffff000000000000000000000000000000000000000000000000000000008316145b92915050565b600080610bb1610ba97fb3b3f3b703cd84ce352197dcff232b1b5d3cfb2025ce47cf04742d0651f1af888c8c8c8c604051610b6a929190613c56565b60405180910390208b80519060200120604051602001610b8e959493929190613c6c565b604051602081830303815290604052805190602001206117be565b8686866117d1565b9050610bf78a828b8b8b8080601f0160208091040260200160405190810160405280939291908181526020018383808284376000920191909152508d92506117f9915050565b9a9950505050505050505050565b333014610c47576040517f08c379a0000000000000000000000000000000000000000000000000000000008152600401610c3e90613ce5565b60405180910390fd5b610c5e565b80610c576002611957565b03610c4c57505b610c6781611a14565b50565b606060008054610c7990613d24565b80601f0160208091040260200160405190810160405280929190818152602001828054610ca590613d24565b8015610cf25780601f10610cc757610100808354040283529160200191610cf2565b820191906000526020600020905b815481529060010190602001808311610cd557829003601f168201915b5050505050905090565b7f150b7a02000000000000000000000000000000000000000000000000000000005b949350505050565b60606008600301805480602002602001604051908101604052809291908181526020018280548015610cf257602002820191906000526020600020905b815481526020019060010190808311610d63575050505050905090565b60006004600854610d9090610ed7565b6007811115610da157610da1613673565b1480610dca575060055b600854610db790610ed7565b6007811115610dc857610dc8613673565b145b905090565b60075460009073ffffffffffffffffffffffffffffffffffffffff163314610e23576040517f08c379a0000000000000000000000000000000000000000000000000000000008152600401610c3e90613d84565b610e2f85858585611b2e565b95945050505050565b600081815260016020908152604080832081519283019091525467ffffffffffffffff16908190525b67ffffffffffffffff1692915050565b600080610eaf610ba97f150214d74d59b7d1e90c73fc22ef3d991dd0a76b046543d4d80ab92d2a50328f8989604051602001610b8e93929190613d94565b9050610ecc87828860405180602001604052806000815250611c4e565b979650505050505050565b6000818152600160205260408120600281015460ff1615610efb5750600792915050565b6002810154610100900460ff1615610f165750600292915050565b6000610f2184610e38565b905080600003610f5d576040517f08c379a0000000000000000000000000000000000000000000000000000000008152600401610c3e90613df0565b438110610f6e575060009392505050565b6000610f798561145b565b9050438110610f8d57506001949350505050565b610f9685611c71565b8015610fb5575060008581526004602052604090208054600190910154115b15610fc557506004949350505050565b506003949350505050565b610fdc84848484611ca8565b5060006008818155600982905590610ff5600a82612cb3565b611003600383016000612cb3565b611011600483016000612cd1565b6005820160009055505050505050565b600080339050610d1e84828560405180602001604052806000815250611c4e565b600080339050610ecc87828888888080601f0160208091040260200160405190810160405280939291908181526020018383808284376000920191909152508a92506117f9915050565b6006546000908082036110a3575050600554919050565b600060066110b2600184613e2f565b815481106110c2576110c2613e42565b60009182526020918290206040805180820190915291015463ffffffff81168083526401000000009091047bffffffffffffffffffffffffffffffffffffffffffffffffffffffff16928201929092529150841061114357602001517bffffffffffffffffffffffffffffffffffffffffffffffffffffffff169392505050565b610d1e600685611dcb565b60606008600201805480602002602001604051908101604052809291908181526020018280548015610cf257602002820191906000526020600020905b815473ffffffffffffffffffffffffffffffffffffffff16815260019091019060200180831161118b575050505050905090565b3330146111f8576040517f08c379a0000000000000000000000000000000000000000000000000000000008152600401610c3e90613ea5565b600780547fffffffffffffffffffffffff00000000000000000000000000000000000000001673ffffffffffffffffffffffffffffffffffffffff92909216919091179055565b60008033905061128786828787878080601f016020809104026020016040519081016040528093929190818152602001838380828437600092019190915250611c4e92505050565b9695505050505050565b600854600090156112ad576112a46115d1565b6112ad57600080fd5b6112b985858585611e92565b60085584516112cf90600a906020880190612cef565b5083516112e390600b906020870190612d75565b5082516112f790600c906020860190612db0565b5081516020830120600d55600e546113104260a5613eb5565b61131a9190613eb5565b60095550600854949350505050565b6000611336848484612147565b90505b9392505050565b60065460009015611378576113556006611721565b7bffffffffffffffffffffffffffffffffffffffffffffffffffffffff16905090565b5060055490565b60606008600401805480602002602001604051908101604052809291908181526020016000905b828210156114525783829060005260206000200180546113c590613d24565b80601f01602080910402602001604051908101604052809291908181526020018280546113f190613d24565b801561143e5780601f106114135761010080835404028352916020019161143e565b820191906000526020600020905b81548152906001019060200180831161142157829003601f168201915b5050505050815260200190600101906113a6565b50505050905090565b600081815260016020818152604080842081519283019091529091015467ffffffffffffffff1690819052610e61565b3330146114c4576040517f08c379a0000000000000000000000000000000000000000000000000000000008152600401610c3e90613ce5565b6114db565b806114d46002611957565b036114c957505b6000808573ffffffffffffffffffffffffffffffffffffffff16858585604051611506929190613c56565b60006040518083038185875af1925050503d8060008114611543576040519150601f19603f3d011682016040523d82523d6000602084013e611548565b606091505b50915091506115708282604051806060016040528060288152602001614b3c602891396121ff565b50505050505050565b6000848484846040516020016115929493929190613ec8565b604080517fffffffffffffffffffffffffffffffffffffffffffffffffffffffffffffffe0818403018152919052805160209091012095945050505050565b600060026008546115e190610ed7565b60078111156115f2576115f2613673565b148061161a5750600360085461160790610ed7565b600781111561161857611618613673565b145b806116415750600760085461162e90610ed7565b600781111561163f5761163f613673565b145b80610dca57506000610dab565b6000611339838361166a60408051602081019091526000815290565b612147565b6000610b2882612218565b60007bffffffffffffffffffffffffffffffffffffffffffffffffffffffff8211156116d2576040517f08c379a0000000000000000000000000000000000000000000000000000000008152600401610c3e90613f6d565b5090565b6000806116f4846116e64361177e565b6116ef8661167a565b6122ec565b7bffffffffffffffffffffffffffffffffffffffffffffffffffffffff91821693501690505b9250929050565b80546000908015611775576117498361173b600184613e2f565b600091825260209091200190565b5464010000000090047bffffffffffffffffffffffffffffffffffffffffffffffffffffffff16611339565b60009392505050565b600063ffffffff8211156116d2576040517f08c379a0000000000000000000000000000000000000000000000000000000008152600401610c3e90613fd7565b6000610b286117cb6124d1565b836125cc565b60008060006117e2878787876125ff565b915091506117ef816126e1565b5095945050505050565b600085815260016020819052604082209061181388610ed7565b600781111561182457611824613673565b1461185b576040517f08c379a0000000000000000000000000000000000000000000000000000000008152600401610c3e90614041565b6040805160208101909152815467ffffffffffffffff169081905260009061188590889086612147565b905061189488888884886127de565b83516000036118f6578673ffffffffffffffffffffffffffffffffffffffff167fb8e138887d0aa13bab447e82de9d5c1777041ecd21ca36ba824ff1e6c07ddda4898884896040516118e99493929190614051565b60405180910390a2610ecc565b8673ffffffffffffffffffffffffffffffffffffffff167fe2babfbac5889a709b63bb7f598b324e08bc5a4fb9ec647fb3cbc9ec07eb8712898884898960405161194495949392919061408b565b60405180910390a2979650505050505050565b600061197f8254600f81810b700100000000000000000000000000000000909204900b131590565b156119b6576040517f3db2a12a00000000000000000000000000000000000000000000000000000000815260040160405180910390fd5b508054600f0b6000818152600180840160205260408220805492905583547fffffffffffffffffffffffffffffffff000000000000000000000000000000001692016fffffffffffffffffffffffffffffffff169190911790915590565b6064811115611a4f576040517f08c379a0000000000000000000000000000000000000000000000000000000008152600401610c3e906140d9565b6000611a59611340565b90508015801590611a6a5750600654155b15611ae457604080518082019091526000815260069060208101611a8d8461167a565b7bffffffffffffffffffffffffffffffffffffffffffffffffffffffff90811690915282546001810184556000938452602093849020835194909301519091166401000000000263ffffffff909316929092179101555b611aef6006836116d6565b50507f0553476bf02ef2726e8ce5ced78d63e26e602e4a2257b1f559418e24b46339978183604051611b22929190614160565b60405180910390a15050565b600080611b3d86868686611579565b90506000611b4a82610ed7565b90506004816007811115611b6057611b60613673565b1480611b7d57506005816007811115611b7b57611b7b613673565b145b611bb3576040517f08c379a0000000000000000000000000000000000000000000000000000000008152600401610c3e906141d5565b60008281526001602081905260409182902060020180547fffffffffffffffffffffffffffffffffffffffffffffffffffffffffffffff00169091179055517f712ae1383f79ac853f8d882153778e0260ef8f03b504e2866e0593e04d2b291f90611c1f908490612ee7565b60405180910390a1611c34828888888861297a565b611c418288888888612a1f565b6117ef828888888861297a565b6000610e2f85858585611c6c60408051602081019091526000815290565b6117f9565b600081815260046020526040812060028101546001820154611c939190613eb5565b611c9f6109a285610e38565b11159392505050565b600080611cb786868686611579565b90506000611cc482610ed7565b90506002816007811115611cda57611cda613673565b14158015611cfa57506006816007811115611cf757611cf7613673565b14155b8015611d1857506007816007811115611d1557611d15613673565b14155b611d4e576040517f08c379a0000000000000000000000000000000000000000000000000000000008152600401610c3e90614219565b6000828152600160205260409081902060020180547fffffffffffffffffffffffffffffffffffffffffffffffffffffffffffff00ff16610100179055517f789cf55be980739dad1d0699b93b58e806b51c9d96619bfa8fe0a28abaa7b30c90611db9908490612ee7565b60405180910390a15095945050505050565b6000438210611e06576040517f08c379a0000000000000000000000000000000000000000000000000000000008152600401610c3e9061425b565b6000611e118361177e565b84549091506000611e2486848385612b22565b90508015611e6757611e3b8661173b600184613e2f565b5464010000000090047bffffffffffffffffffffffffffffffffffffffffffffffffffffffff16611e6a565b60005b7bffffffffffffffffffffffffffffffffffffffffffffffffffffffff169695505050505050565b600080611ea43361093d600143613e2f565b1015611edc576040517f08c379a0000000000000000000000000000000000000000000000000000000008152600401610c3e906142c5565b6000611ef18686868680519060200120611579565b90508451865114611f2e576040517f08c379a0000000000000000000000000000000000000000000000000000000008152600401610c3e9061432f565b8351865114611f69576040517f08c379a0000000000000000000000000000000000000000000000000000000008152600401610c3e9061432f565b6000865111611fa4576040517f08c379a0000000000000000000000000000000000000000000000000000000008152600401610c3e90614373565b6000818152600160209081526040918290208251918201909252815467ffffffffffffffff169081905215612005576040517f08c379a0000000000000000000000000000000000000000000000000000000008152600401610c3e906143dd565b60006120116001612b80565b61201a43612b80565b61202491906143ed565b90506000612032600a612b80565b61203c90836143ed565b83547fffffffffffffffffffffffffffffffffffffffffffffffff00000000000000001667ffffffffffffffff841617845590506001830180547fffffffffffffffffffffffffffffffffffffffffffffffff00000000000000001667ffffffffffffffff83161790557f7d84a6263ae0d98d3329bd7b46bb4e8d6f98cd35a7adb45c274c8b7fd5ebd5e084338b8b8d5167ffffffffffffffff8111156120e5576120e5612f65565b60405190808252806020026020018201604052801561211857816020015b60608152602001906001900390816121035790505b508c88888e60405161213299989796959493929190614489565b60405180910390a15091979650505050505050565b6040517f3a46b1a800000000000000000000000000000000000000000000000000000000815260009073ffffffffffffffffffffffffffffffffffffffff7f00000000000000000000000000000000000000000000000000000000000000001690633a46b1a8906121be9087908790600401614531565b602060405180830381865afa1580156121db573d6000803e3d6000fd5b505050506040513d601f19601f82011682018060405250810190611336919061454a565b6060831561220e575081611339565b6113398383612bc4565b600060646122258361108c565b6040517f8e539e8c00000000000000000000000000000000000000000000000000000000815273ffffffffffffffffffffffffffffffffffffffff7f00000000000000000000000000000000000000000000000000000000000000001690638e539e8c90612297908790600401612ee7565b602060405180830381865afa1580156122b4573d6000803e3d6000fd5b505050506040513d601f19601f820116820180604052508101906122d8919061454a565b6122e2919061456b565b610b2891906145b9565b82546000908190801561245e57600061230a8761173b600185613e2f565b60408051808201909152905463ffffffff8082168084526401000000009092047bffffffffffffffffffffffffffffffffffffffffffffffffffffffff166020840152919250908716101561238b576040517f08c379a0000000000000000000000000000000000000000000000000000000008152600401610c3e90614601565b805163ffffffff8088169116036123e957846123ac8861173b600186613e2f565b80547bffffffffffffffffffffffffffffffffffffffffffffffffffffffff929092166401000000000263ffffffff90921691909117905561244e565b6040805180820190915263ffffffff80881682527bffffffffffffffffffffffffffffffffffffffffffffffffffffffff80881660208085019182528b54600181018d5560008d81529190912094519151909216640100000000029216919091179101555b6020015192508391506124c99050565b50506040805180820190915263ffffffff80851682527bffffffffffffffffffffffffffffffffffffffffffffffffffffffff80851660208085019182528854600181018a5560008a8152918220955192519093166401000000000291909316179201919091559050815b935093915050565b60003073ffffffffffffffffffffffffffffffffffffffff7f00000000000000000000000000000000000000000000000000000000000000001614801561253757507f000000000000000000000000000000000000000000000000000000000000000046145b1561256157507f000000000000000000000000000000000000000000000000000000000000000090565b610dca7f00000000000000000000000000000000000000000000000000000000000000007f00000000000000000000000000000000000000000000000000000000000000007f0000000000000000000000000000000000000000000000000000000000000000612c0c565b600082826040516020016125e1929190614611565b60405160208183030381529060405280519060200120905092915050565b6000807f7fffffffffffffffffffffffffffffff5d576e7357a4501ddfe92f46681b20a083111561263657506000905060036126d8565b60006001878787876040516000815260200160405260405161265b949392919061465d565b6020604051602081039080840390855afa15801561267d573d6000803e3d6000fd5b50506040517fffffffffffffffffffffffffffffffffffffffffffffffffffffffffffffffe0015191505073ffffffffffffffffffffffffffffffffffffffff81166126d1576000600192509250506126d8565b9150600090505b94509492505050565b60008160048111156126f5576126f5613673565b036126fd5750565b600181600481111561271157612711613673565b03612748576040517f08c379a0000000000000000000000000000000000000000000000000000000008152600401610c3e906146c6565b600281600481111561275c5761275c613673565b03612793576040517f08c379a0000000000000000000000000000000000000000000000000000000008152600401610c3e9061470a565b60038160048111156127a7576127a7613673565b03610c67576040517f08c379a0000000000000000000000000000000000000000000000000000000008152600401610c3e90614774565b600085815260046020908152604080832073ffffffffffffffffffffffffffffffffffffffff88168452600381019092529091205460ff161561284d576040517f08c379a0000000000000000000000000000000000000000000000000000000008152600401610c3e906147de565b73ffffffffffffffffffffffffffffffffffffffff85166000908152600382016020526040902080547fffffffffffffffffffffffffffffffffffffffffffffffffffffffffffffff0016600117905560ff84166128c457828160000160008282546128b99190613eb5565b909155506129729050565b7fffffffffffffffffffffffffffffffffffffffffffffffffffffffffffffffff60ff85160161290257828160010160008282546128b99190613eb5565b7ffffffffffffffffffffffffffffffffffffffffffffffffffffffffffffffffe60ff85160161294057828160020160008282546128b99190613eb5565b6040517f08c379a0000000000000000000000000000000000000000000000000000000008152600401610c3e90614848565b505050505050565b612a18565b8451811015612972573073ffffffffffffffffffffffffffffffffffffffff168582815181106129b1576129b1613e42565b602002602001015173ffffffffffffffffffffffffffffffffffffffff1603612a0857612a088382815181106129e9576129e9613e42565b6020026020010151805190602001206002612c4690919063ffffffff16565b612a1181614858565b905061297f565b5050505050565b6000604051806060016040528060278152602001614b6460279139905060005b855181101561157057600080878381518110612a5d57612a5d613e42565b602002602001015173ffffffffffffffffffffffffffffffffffffffff16878481518110612a8d57612a8d613e42565b6020026020010151878581518110612aa757612aa7613e42565b6020026020010151604051612abc91906148b2565b60006040518083038185875af1925050503d8060008114612af9576040519150601f19603f3d011682016040523d82523d6000602084013e612afe565b606091505b5091509150612b0e8282866121ff565b50505080612b1b90614858565b9050612a3f565b60005b81831015612b78576000612b398484612c98565b60008781526020902090915063ffffffff86169082015463ffffffff161115612b6457809250612b72565b612b6f816001613eb5565b93505b50612b25565b509392505050565b600067ffffffffffffffff8211156116d2576040517f08c379a0000000000000000000000000000000000000000000000000000000008152600401610c3e90614918565b815115612bd45781518083602001fd5b806040517f08c379a0000000000000000000000000000000000000000000000000000000008152600401610c3e919061321b565b5050565b60008383834630604051602001612c27959493929190614928565b6040516020818303038152906040528051906020012090509392505050565b815470010000000000000000000000000000000090819004600f0b6000818152600180860160205260409091209390935583546fffffffffffffffffffffffffffffffff908116939091011602179055565b6000612ca760028484186145b9565b61133990848416613eb5565b5080546000825590600052602060002090810190610c679190612e02565b5080546000825590600052602060002090810190610c679190612e17565b828054828255906000526020600020908101928215612d69579160200282015b82811115612d6957825182547fffffffffffffffffffffffff00000000000000000000000000000000000000001673ffffffffffffffffffffffffffffffffffffffff909116178255602090920191600190910190612d0f565b506116d2929150612e02565b828054828255906000526020600020908101928215612d69579160200282015b82811115612d69578251825591602001919060010190612d95565b828054828255906000526020600020908101928215612df6579160200282015b82811115612df65782518290612de69082614a1e565b5091602001919060010190612dd0565b506116d2929150612e17565b5b808211156116d25760008155600101612e03565b808211156116d2576000612e2b8282612e34565b50600101612e17565b508054612e4090613d24565b6000825580601f10612e50575050565b601f016020900490600052602060002090810190610c679190612e02565b7fffffffff0000000000000000000000000000000000000000000000000000000081165b8114610c6757600080fd5b8035610b2881612e6e565b600060208284031215612ebd57612ebd600080fd5b6000610d1e8484612e9d565b8015155b82525050565b60208101610b288284612ec9565b80612ecd565b60208101610b288284612ee1565b80612e92565b8035610b2881612ef5565b60ff8116612e92565b8035610b2881612f06565b60008083601f840112612f2f57612f2f600080fd5b50813567ffffffffffffffff811115612f4a57612f4a600080fd5b60208301915083600182028301111561171a5761171a600080fd5b7f4e487b7100000000000000000000000000000000000000000000000000000000600052604160045260246000fd5b7fffffffffffffffffffffffffffffffffffffffffffffffffffffffffffffffe0601f830116810181811067ffffffffffffffff82111715612fd857612fd8612f65565b6040525050565b6000612fea60405190565b9050612ff68282612f94565b919050565b600067ffffffffffffffff82111561301557613015612f65565b7fffffffffffffffffffffffffffffffffffffffffffffffffffffffffffffffe0601f83011660200192915050565b82818337506000910152565b600061306361305e84612ffb565b612fdf565b90508281526020810184848401111561307e5761307e600080fd5b612b78848285613044565b600082601f83011261309d5761309d600080fd5b8135610d1e848260208601613050565b60008060008060008060008060e0898b0312156130cc576130cc600080fd5b60006130d88b8b612efb565b98505060206130e98b828c01612f0f565b975050604089013567ffffffffffffffff81111561310957613109600080fd5b6131158b828c01612f1a565b9650965050606089013567ffffffffffffffff81111561313757613137600080fd5b6131438b828c01613089565b94505060806131548b828c01612f0f565b93505060a06131658b828c01612efb565b92505060c06131768b828c01612efb565b9150509295985092959890939650565b60006020828403121561319b5761319b600080fd5b6000610d1e8484612efb565b60005b838110156131c25781810151838201526020016131aa565b50506000910152565b60006131d5825190565b8084526020840193506131ec8185602086016131a7565b601f017fffffffffffffffffffffffffffffffffffffffffffffffffffffffffffffffe0169290920192915050565b6020808252810161133981846131cb565b600073ffffffffffffffffffffffffffffffffffffffff8216610b28565b612e928161322c565b8035610b288161324a565b6000806000806080858703121561327757613277600080fd5b60006132838787613253565b945050602061329487828801613253565b93505060406132a587828801612efb565b925050606085013567ffffffffffffffff8111156132c5576132c5600080fd5b6132d187828801613089565b91505092959194509250565b7fffffffff000000000000000000000000000000000000000000000000000000008116612ecd565b60208101610b2882846132dd565b600061331f8383612ee1565b505060200190565b6000613331825190565b80845260209384019383018060005b838110156133655781516133548882613313565b975060208301925050600101613340565b509495945050505050565b602080825281016113398184613327565b600067ffffffffffffffff82111561339b5761339b612f65565b5060209081020190565b60006133b361305e84613381565b838152905060208082019084028301858111156133d2576133d2600080fd5b835b818110156133f657806133e78882613253565b845250602092830192016133d4565b5050509392505050565b600082601f83011261341457613414600080fd5b8135610d1e8482602086016133a5565b600061343261305e84613381565b8381529050602080820190840283018581111561345157613451600080fd5b835b818110156133f657806134668882612efb565b84525060209283019201613453565b600082601f83011261348957613489600080fd5b8135610d1e848260208601613424565b60006134a761305e84613381565b838152905060208082019084028301858111156134c6576134c6600080fd5b835b818110156133f657803567ffffffffffffffff8111156134ea576134ea600080fd5b8086016134f78982613089565b85525050602092830192016134c8565b600082601f83011261351b5761351b600080fd5b8135610d1e848260208601613499565b6000806000806080858703121561354457613544600080fd5b843567ffffffffffffffff81111561355e5761355e600080fd5b61356a87828801613400565b945050602085013567ffffffffffffffff81111561358a5761358a600080fd5b61359687828801613475565b935050604085013567ffffffffffffffff8111156135b6576135b6600080fd5b6135c287828801613507565b92505060606132d187828801612efb565b606081016135e18286612ee1565b6135ee6020830185612ee1565b610d1e6040830184612ee1565b600080600080600060a0868803121561361657613616600080fd5b60006136228888612efb565b955050602061363388828901612f0f565b945050604061364488828901612f0f565b935050606061365588828901612efb565b925050608061366688828901612efb565b9150509295509295909350565b7f4e487b7100000000000000000000000000000000000000000000000000000000600052602160045260246000fd5b60088110610c6757610c67613673565b80612ff6816136a2565b6000610b28826136b2565b612ecd816136bc565b60208101610b2882846136c7565b600080604083850312156136f4576136f4600080fd5b60006137008585612efb565b925050602061371185828601613253565b9150509250929050565b612ecd8161322c565b60208101610b28828461371b565b6000806040838503121561374857613748600080fd5b60006137548585612efb565b925050602061371185828601612f0f565b60008060008060006080868803121561378057613780600080fd5b600061378c8888612efb565b955050602061379d88828901612f0f565b945050604086013567ffffffffffffffff8111156137bd576137bd600080fd5b6137c988828901612f1a565b9350935050606086013567ffffffffffffffff8111156137eb576137eb600080fd5b61366688828901613089565b600061331f838361371b565b600061380d825190565b80845260209384019383018060005b8381101561336557815161383088826137f7565b97506020830192505060010161381c565b602080825281016113398184613803565b60006020828403121561386757613867600080fd5b6000610d1e8484613253565b6000806000806060858703121561388c5761388c600080fd5b60006138988787612efb565b94505060206138a987828801612f0f565b935050604085013567ffffffffffffffff8111156138c9576138c9600080fd5b6138d587828801612f1a565b95989497509550505050565b600080600080608085870312156138fa576138fa600080fd5b843567ffffffffffffffff81111561391457613914600080fd5b61392087828801613400565b945050602085013567ffffffffffffffff81111561394057613940600080fd5b61394c87828801613475565b935050604085013567ffffffffffffffff81111561396c5761396c600080fd5b6132a587828801613507565b60008060006060848603121561399057613990600080fd5b600061399c8686613253565b93505060206139ad86828701612efb565b925050604084013567ffffffffffffffff8111156139cd576139cd600080fd5b6139d986828701613089565b9150509250925092565b600061133983836131cb565b60006139f9825190565b80845260208401935083602082028501613a138560200190565b8060005b85811015613a485784840389528151613a3085826139e3565b94506020830160209a909a0199925050600101613a17565b5091979650505050505050565b6020808252810161133981846139ef565b600080600080600060a08688031215613a8157613a81600080fd5b6000613a8d8888613253565b9550506020613a9e88828901613253565b945050604086013567ffffffffffffffff811115613abe57613abe600080fd5b613aca88828901613475565b935050606086013567ffffffffffffffff811115613aea57613aea600080fd5b613af688828901613475565b925050608086013567ffffffffffffffff8111156137eb576137eb600080fd5b60008060008060608587031215613b2f57613b2f600080fd5b6000613b3b8787613253565b94505060206138a987828801612efb565b60008060408385031215613b6257613b62600080fd5b6000613b6e8585613253565b925050602061371185828601612efb565b600080600080600060a08688031215613b9a57613b9a600080fd5b6000613ba68888613253565b9550506020613bb788828901613253565b9450506040613bc888828901612efb565b9350506060613af688828901612efb565b6000610b2873ffffffffffffffffffffffffffffffffffffffff8316613bfd565b90565b73ffffffffffffffffffffffffffffffffffffffff1690565b6000610b2882613bd9565b6000610b2882613c16565b612ecd81613c21565b60208101610b288284613c2c565b6000613c50838584613044565b50500190565b6000610d1e828486613c43565b60ff8116612ecd565b60a08101613c7a8288612ee1565b613c876020830187612ee1565b613c946040830186613c63565b613ca16060830185612ee1565b6112876080830184612ee1565b601881526000602082017f476f7665726e6f723a206f6e6c79476f7665726e616e63650000000000000000815291505b5060200190565b60208082528101610b2881613cae565b7f4e487b7100000000000000000000000000000000000000000000000000000000600052602260045260246000fd5b600281046001821680613d3857607f821691505b602082108103613d4a57613d4a613cf5565b50919050565b601b81526000602082017f4f6e6c79206175746f6d6174696f6e2063616e2061636365737321000000000081529150613cde565b60208082528101610b2881613d50565b60608101613da28286612ee1565b613daf6020830185612ee1565b610d1e6040830184613c63565b601d81526000602082017f476f7665726e6f723a20756e6b6e6f776e2070726f706f73616c20696400000081529150613cde565b60208082528101610b2881613dbc565b7f4e487b7100000000000000000000000000000000000000000000000000000000600052601160045260246000fd5b81810381811115610b2857610b28613e00565b7f4e487b7100000000000000000000000000000000000000000000000000000000600052603260045260246000fd5b601b81526000602082017f4f6e6c7920676f7665726e616e63652063616e2061636365737321000000000081529150613cde565b60208082528101610b2881613e71565b80820180821115610b2857610b28613e00565b60808082528101613ed98187613803565b90508181036020830152613eed8186613327565b90508181036040830152613f0181856139ef565b9050610e2f6060830184612ee1565b602781526000602082017f53616665436173743a2076616c756520646f65736e27742066697420696e203281527f3234206269747300000000000000000000000000000000000000000000000000602082015291505b5060400190565b60208082528101610b2881613f10565b602681526000602082017f53616665436173743a2076616c756520646f65736e27742066697420696e203381527f322062697473000000000000000000000000000000000000000000000000000060208201529150613f66565b60208082528101610b2881613f7d565b602381526000602082017f476f7665726e6f723a20766f7465206e6f742063757272656e746c792061637481527f697665000000000000000000000000000000000000000000000000000000000060208201529150613f66565b60208082528101610b2881613fe7565b6080810161405f8287612ee1565b61406c6020830186613c63565b6140796040830185612ee1565b818103606083015261128781846131cb565b60a081016140998288612ee1565b6140a66020830187613c63565b6140b36040830186612ee1565b81810360608301526140c581856131cb565b90508181036080830152610ecc81846131cb565b60208082528101610b2881604381527f476f7665726e6f72566f74657351756f72756d4672616374696f6e3a2071756f60208201527f72756d4e756d657261746f72206f7665722071756f72756d44656e6f6d696e6160408201527f746f720000000000000000000000000000000000000000000000000000000000606082015260800190565b6040810161416e8285612ee1565b6113396020830184612ee1565b602181526000602082017f476f7665726e6f723a2070726f706f73616c206e6f742073756363657373667581527f6c0000000000000000000000000000000000000000000000000000000000000060208201529150613f66565b60208082528101610b288161417b565b601d81526000602082017f476f7665726e6f723a2070726f706f73616c206e6f742061637469766500000081529150613cde565b60208082528101610b28816141e5565b60208082527f436865636b706f696e74733a20626c6f636b206e6f7420796574206d696e656491019081526000613cde565b60208082528101610b2881614229565b603181526000602082017f476f7665726e6f723a2070726f706f73657220766f7465732062656c6f77207081527f726f706f73616c207468726573686f6c6400000000000000000000000000000060208201529150613f66565b60208082528101610b288161426b565b602181526000602082017f476f7665726e6f723a20696e76616c69642070726f706f73616c206c656e677481527f680000000000000000000000000000000000000000000000000000000000000060208201529150613f66565b60208082528101610b28816142d5565b601881526000602082017f476f7665726e6f723a20656d7074792070726f706f73616c000000000000000081529150613cde565b60208082528101610b288161433f565b602181526000602082017f476f7665726e6f723a2070726f706f73616c20616c726561647920657869737481527f730000000000000000000000000000000000000000000000000000000000000060208201529150613f66565b60208082528101610b2881614383565b67ffffffffffffffff918216919081169082820190811115610b2857610b28613e00565b600061441b825190565b808452602084019350836020820285016144358560200190565b8060005b85811015613a48578484038952815161445285826139e3565b94506020830160209a909a0199925050600101614439565b6000610b28613bfa67ffffffffffffffff841681565b612ecd8161446a565b6101208101614498828c612ee1565b6144a5602083018b61371b565b81810360408301526144b7818a613803565b905081810360608301526144cb8189613327565b905081810360808301526144df8188614411565b905081810360a08301526144f381876139ef565b905061450260c0830186614480565b61450f60e0830185614480565b81810361010083015261452281846131cb565b9b9a5050505050505050505050565b6040810161416e828561371b565b8051610b2881612ef5565b60006020828403121561455f5761455f600080fd5b6000610d1e848461453f565b81810280821583820485141761458357614583613e00565b5092915050565b7f4e487b7100000000000000000000000000000000000000000000000000000000600052601260045260246000fd5b6000826145c8576145c861458a565b500490565b601781526000602082017f436865636b706f696e743a20696e76616c6964206b657900000000000000000081529150613cde565b60208082528101610b28816145cd565b7f1901000000000000000000000000000000000000000000000000000000000000815260020160006146438285612ee1565b6020820191506146538284612ee1565b5060200192915050565b6080810161466b8287612ee1565b6146786020830186613c63565b6146856040830185612ee1565b610e2f6060830184612ee1565b601881526000602082017f45434453413a20696e76616c6964207369676e6174757265000000000000000081529150613cde565b60208082528101610b2881614692565b601f81526000602082017f45434453413a20696e76616c6964207369676e6174757265206c656e6774680081529150613cde565b60208082528101610b28816146d6565b602281526000602082017f45434453413a20696e76616c6964207369676e6174757265202773272076616c81527f756500000000000000000000000000000000000000000000000000000000000060208201529150613f66565b60208082528101610b288161471a565b602781526000602082017f476f7665726e6f72566f74696e6753696d706c653a20766f746520616c72656181527f647920636173740000000000000000000000000000000000000000000000000060208201529150613f66565b60208082528101610b2881614784565b603581526000602082017f476f7665726e6f72566f74696e6753696d706c653a20696e76616c696420766181527f6c756520666f7220656e756d20566f746554797065000000000000000000000060208201529150613f66565b60208082528101610b28816147ee565b60007fffffffffffffffffffffffffffffffffffffffffffffffffffffffffffffffff820361488957614889613e00565b5060010190565b600061489a825190565b6148a88185602086016131a7565b9290920192915050565b60006113398284614890565b602681526000602082017f53616665436173743a2076616c756520646f65736e27742066697420696e203681527f342062697473000000000000000000000000000000000000000000000000000060208201529150613f66565b60208082528101610b28816148be565b60a081016149368288612ee1565b6149436020830187612ee1565b6149506040830186612ee1565b61495d6060830185612ee1565b611287608083018461371b565b6000610b28613bfa8381565b61497f8361496a565b81547fffffffffffffffffffffffffffffffffffffffffffffffffffffffffffffffff60089490940293841b1916921b91909117905550565b60006149c5818484614976565b505050565b81811015612c08576149dd6000826149b8565b6001016149ca565b601f8211156149c5576000818152602090206020601f85010481016020851015614a0c5750805b612a186020601f8601048301826149ca565b815167ffffffffffffffff811115614a3857614a38612f65565b614a428254613d24565b614a4d8282856149e5565b6020601f831160018114614a9f5760008415614a695750858201515b7fffffffffffffffffffffffffffffffffffffffffffffffffffffffffffffffff600886021c1981166002860217865550612972565b6000858152602081207fffffffffffffffffffffffffffffffffffffffffffffffffffffffffffffffe08616915b82811015614aed5788850151825560209485019460019092019101614acd565b86831015614b2757848901517fffffffffffffffffffffffffffffffffffffffffffffffffffffffffffffffff601f89166008021c191682555b60016002880201885550505050505050505056fe476f7665726e6f723a2072656c617920726576657274656420776974686f7574206d657373616765476f7665726e6f723a2063616c6c20726576657274656420776974686f7574206d657373616765a2646970667358221220afcf5517bccd5447a133ece14988e24f8280f1bf31126e6878a8f67a3040f8c664736f6c63430008120033",
  "devdoc": {
    "errors": {
      "Empty()": [
        {
          "details": "An operation (e.g. {front}) couldn't be completed due to the queue being empty."
        }
      ]
    },
    "events": {
      "ProposalCanceled(uint256)": {
        "details": "Emitted when a proposal is canceled."
      },
      "ProposalCreated(uint256,address,address[],uint256[],string[],bytes[],uint256,uint256,string)": {
        "details": "Emitted when a proposal is created."
      },
      "ProposalExecuted(uint256)": {
        "details": "Emitted when a proposal is executed."
      },
      "VoteCast(address,uint256,uint8,uint256,string)": {
        "details": "Emitted when a vote is cast without params. Note: `support` values should be seen as buckets. Their interpretation depends on the voting module used."
      },
      "VoteCastWithParams(address,uint256,uint8,uint256,string,bytes)": {
        "details": "Emitted when a vote is cast with params. Note: `support` values should be seen as buckets. Their interpretation depends on the voting module used. `params` are additional encoded parameters. Their intepepretation also depends on the voting module used."
      }
    },
    "kind": "dev",
    "methods": {
      "COUNTING_MODE()": {
        "details": "See {IGovernor-COUNTING_MODE}."
      },
      "castVote(uint256,uint8)": {
        "details": "See {IGovernor-castVote}."
      },
      "castVoteBySig(uint256,uint8,uint8,bytes32,bytes32)": {
        "details": "See {IGovernor-castVoteBySig}."
      },
      "castVoteWithReason(uint256,uint8,string)": {
        "details": "See {IGovernor-castVoteWithReason}."
      },
      "castVoteWithReasonAndParams(uint256,uint8,string,bytes)": {
        "details": "See {IGovernor-castVoteWithReasonAndParams}."
      },
      "castVoteWithReasonAndParamsBySig(uint256,uint8,string,bytes,uint8,bytes32,bytes32)": {
        "details": "See {IGovernor-castVoteWithReasonAndParamsBySig}."
      },
      "getVotes(address,uint256)": {
        "details": "See {IGovernor-getVotes}."
      },
      "getVotesWithParams(address,uint256,bytes)": {
        "details": "See {IGovernor-getVotesWithParams}."
      },
      "hasVoted(uint256,address)": {
        "details": "See {IGovernor-hasVoted}."
      },
      "hashProposal(address[],uint256[],bytes[],bytes32)": {
        "details": "See {IGovernor-hashProposal}. The proposal id is produced by hashing the ABI encoded `targets` array, the `values` array, the `calldatas` array and the descriptionHash (bytes32 which itself is the keccak256 hash of the description string). This proposal id can be produced from the proposal data which is part of the {ProposalCreated} event. It can even be computed in advance, before the proposal is submitted. Note that the chainId and the governor address are not part of the proposal id computation. Consequently, the same proposal (with same operation and same description) will have the same id if submitted on multiple governors across multiple networks. This also means that in order to execute the same operation twice (on the same governor) the proposer will have to change the description in order to avoid proposal id conflicts."
      },
      "name()": {
        "details": "See {IGovernor-name}."
      },
      "onERC1155BatchReceived(address,address,uint256[],uint256[],bytes)": {
        "details": "See {IERC1155Receiver-onERC1155BatchReceived}."
      },
      "onERC1155Received(address,address,uint256,uint256,bytes)": {
        "details": "See {IERC1155Receiver-onERC1155Received}."
      },
      "onERC721Received(address,address,uint256,bytes)": {
        "details": "See {IERC721Receiver-onERC721Received}."
      },
      "proposalDeadline(uint256)": {
        "details": "See {IGovernor-proposalDeadline}."
      },
      "proposalSnapshot(uint256)": {
        "details": "See {IGovernor-proposalSnapshot}."
      },
      "proposalThreshold()": {
        "details": "Part of the Governor Bravo's interface: _\"The number of votes required in order for a voter to become a proposer\"_."
      },
      "proposalVotes(uint256)": {
        "details": "Accessor to the internal vote counts."
      },
      "propose(address[],uint256[],bytes[],string)": {
        "details": "See {IGovernor-propose}."
      },
      "quorumDenominator()": {
        "details": "Returns the quorum denominator. Defaults to 100, but may be overridden."
      },
      "quorumNumerator()": {
        "details": "Returns the current quorum numerator. See {quorumDenominator}."
      },
      "quorumNumerator(uint256)": {
        "details": "Returns the quorum numerator at a specific block number. See {quorumDenominator}."
      },
      "relay(address,uint256,bytes)": {
        "details": "Relays a transaction or function call to an arbitrary target. In cases where the governance executor is some contract other than the governor itself, like when using a timelock, this function can be invoked in a governance proposal to recover tokens or Ether that was sent to the governor contract by mistake. Note that if the executor is simply the governor itself, use of `relay` is redundant."
      },
      "state(uint256)": {
        "details": "See {IGovernor-state}."
      },
      "supportsInterface(bytes4)": {
        "details": "See {IERC165-supportsInterface}."
      },
      "updateQuorumNumerator(uint256)": {
        "details": "Changes the quorum numerator. Emits a {QuorumNumeratorUpdated} event. Requirements: - Must be called through a governance proposal. - New numerator must be smaller or equal to the denominator."
      },
      "version()": {
        "details": "See {IGovernor-version}."
      },
      "votingDelay()": {
        "details": "Delay, in number of block, between the proposal is created and the vote starts. This can be increassed to leave time for users to buy voting power, or delegate it, before the voting of a proposal starts."
      },
      "votingPeriod()": {
        "details": "Delay, in number of blocks, between the vote start and vote ends. NOTE: The {votingDelay} can delay the start of the vote. This must be considered when setting the voting duration compared to the voting delay."
      }
    },
    "version": 1
  },
  "userdoc": {
    "kind": "user",
    "methods": {
      "votingDelay()": {
        "notice": "module:user-config"
      },
      "votingPeriod()": {
        "notice": "module:user-config"
      }
    },
    "version": 1
  },
  "storageLayout": {
    "storage": [
      {
        "astId": 191,
        "contract": "contracts/Governance.sol:Governance",
        "label": "_name",
        "offset": 0,
        "slot": "0",
        "type": "t_string_storage"
      },
      {
        "astId": 196,
        "contract": "contracts/Governance.sol:Governance",
        "label": "_proposals",
        "offset": 0,
        "slot": "1",
        "type": "t_mapping(t_uint256,t_struct(ProposalCore)189_storage)"
      },
      {
        "astId": 199,
        "contract": "contracts/Governance.sol:Governance",
        "label": "_governanceCall",
        "offset": 0,
        "slot": "2",
        "type": "t_struct(Bytes32Deque)9102_storage"
      },
      {
        "astId": 1762,
        "contract": "contracts/Governance.sol:Governance",
        "label": "_proposalVotes",
        "offset": 0,
        "slot": "4",
        "type": "t_mapping(t_uint256,t_struct(ProposalVote)1757_storage)"
      },
      {
        "astId": 2018,
        "contract": "contracts/Governance.sol:Governance",
        "label": "_quorumNumerator",
        "offset": 0,
        "slot": "5",
        "type": "t_uint256"
      },
      {
        "astId": 2021,
        "contract": "contracts/Governance.sol:Governance",
        "label": "_quorumNumeratorHistory",
        "offset": 0,
        "slot": "6",
        "type": "t_struct(History)4280_storage"
      },
      {
        "astId": 9582,
        "contract": "contracts/Governance.sol:Governance",
        "label": "automation",
        "offset": 0,
        "slot": "7",
        "type": "t_address"
      },
      {
        "astId": 9585,
        "contract": "contracts/Governance.sol:Governance",
        "label": "currentProposal",
        "offset": 0,
        "slot": "8",
        "type": "t_struct(CurrentProposal)9955_storage"
      },
      {
        "astId": 9588,
        "contract": "contracts/Governance.sol:Governance",
        "label": "executionDelay",
        "offset": 0,
        "slot": "14",
        "type": "t_uint256"
      }
    ],
    "types": {
      "t_address": {
        "encoding": "inplace",
        "label": "address",
        "numberOfBytes": "20"
      },
      "t_array(t_address)dyn_storage": {
        "base": "t_address",
        "encoding": "dynamic_array",
        "label": "address[]",
        "numberOfBytes": "32"
      },
      "t_array(t_bytes_storage)dyn_storage": {
        "base": "t_bytes_storage",
        "encoding": "dynamic_array",
        "label": "bytes[]",
        "numberOfBytes": "32"
      },
      "t_array(t_struct(Checkpoint)4285_storage)dyn_storage": {
        "base": "t_struct(Checkpoint)4285_storage",
        "encoding": "dynamic_array",
        "label": "struct Checkpoints.Checkpoint[]",
        "numberOfBytes": "32"
      },
      "t_array(t_uint256)dyn_storage": {
        "base": "t_uint256",
        "encoding": "dynamic_array",
        "label": "uint256[]",
        "numberOfBytes": "32"
      },
      "t_bool": {
        "encoding": "inplace",
        "label": "bool",
        "numberOfBytes": "1"
      },
      "t_bytes32": {
        "encoding": "inplace",
        "label": "bytes32",
        "numberOfBytes": "32"
      },
      "t_bytes_storage": {
        "encoding": "bytes",
        "label": "bytes",
        "numberOfBytes": "32"
      },
      "t_int128": {
        "encoding": "inplace",
        "label": "int128",
        "numberOfBytes": "16"
      },
      "t_mapping(t_address,t_bool)": {
        "encoding": "mapping",
        "key": "t_address",
        "label": "mapping(address => bool)",
        "numberOfBytes": "32",
        "value": "t_bool"
      },
      "t_mapping(t_int128,t_bytes32)": {
        "encoding": "mapping",
        "key": "t_int128",
        "label": "mapping(int128 => bytes32)",
        "numberOfBytes": "32",
        "value": "t_bytes32"
      },
      "t_mapping(t_uint256,t_struct(ProposalCore)189_storage)": {
        "encoding": "mapping",
        "key": "t_uint256",
        "label": "mapping(uint256 => struct Governor.ProposalCore)",
        "numberOfBytes": "32",
        "value": "t_struct(ProposalCore)189_storage"
      },
      "t_mapping(t_uint256,t_struct(ProposalVote)1757_storage)": {
        "encoding": "mapping",
        "key": "t_uint256",
        "label": "mapping(uint256 => struct GovernorCountingSimple.ProposalVote)",
        "numberOfBytes": "32",
        "value": "t_struct(ProposalVote)1757_storage"
      },
      "t_string_storage": {
        "encoding": "bytes",
        "label": "string",
        "numberOfBytes": "32"
      },
      "t_struct(BlockNumber)6023_storage": {
        "encoding": "inplace",
        "label": "struct Timers.BlockNumber",
        "members": [
          {
            "astId": 6022,
            "contract": "contracts/Governance.sol:Governance",
            "label": "_deadline",
            "offset": 0,
            "slot": "0",
            "type": "t_uint64"
          }
        ],
        "numberOfBytes": "32"
      },
      "t_struct(Bytes32Deque)9102_storage": {
        "encoding": "inplace",
        "label": "struct DoubleEndedQueue.Bytes32Deque",
        "members": [
          {
            "astId": 9095,
            "contract": "contracts/Governance.sol:Governance",
            "label": "_begin",
            "offset": 0,
            "slot": "0",
            "type": "t_int128"
          },
          {
            "astId": 9097,
            "contract": "contracts/Governance.sol:Governance",
            "label": "_end",
            "offset": 16,
            "slot": "0",
            "type": "t_int128"
          },
          {
            "astId": 9101,
            "contract": "contracts/Governance.sol:Governance",
            "label": "_data",
            "offset": 0,
            "slot": "1",
            "type": "t_mapping(t_int128,t_bytes32)"
          }
        ],
        "numberOfBytes": "64"
      },
      "t_struct(Checkpoint)4285_storage": {
        "encoding": "inplace",
        "label": "struct Checkpoints.Checkpoint",
        "members": [
          {
            "astId": 4282,
            "contract": "contracts/Governance.sol:Governance",
            "label": "_blockNumber",
            "offset": 0,
            "slot": "0",
            "type": "t_uint32"
          },
          {
            "astId": 4284,
            "contract": "contracts/Governance.sol:Governance",
            "label": "_value",
            "offset": 4,
            "slot": "0",
            "type": "t_uint224"
          }
        ],
        "numberOfBytes": "32"
      },
      "t_struct(CurrentProposal)9955_storage": {
        "encoding": "inplace",
        "label": "struct IGovernance.CurrentProposal",
        "members": [
          {
            "astId": 9941,
            "contract": "contracts/Governance.sol:Governance",
            "label": "proposalId",
            "offset": 0,
            "slot": "0",
            "type": "t_uint256"
          },
          {
            "astId": 9943,
            "contract": "contracts/Governance.sol:Governance",
            "label": "executionTime",
            "offset": 0,
            "slot": "1",
            "type": "t_uint256"
          },
          {
            "astId": 9946,
            "contract": "contracts/Governance.sol:Governance",
            "label": "targets",
            "offset": 0,
            "slot": "2",
            "type": "t_array(t_address)dyn_storage"
          },
          {
            "astId": 9949,
            "contract": "contracts/Governance.sol:Governance",
            "label": "values",
            "offset": 0,
            "slot": "3",
            "type": "t_array(t_uint256)dyn_storage"
          },
          {
            "astId": 9952,
            "contract": "contracts/Governance.sol:Governance",
            "label": "calldatas",
            "offset": 0,
            "slot": "4",
            "type": "t_array(t_bytes_storage)dyn_storage"
          },
          {
            "astId": 9954,
            "contract": "contracts/Governance.sol:Governance",
            "label": "description",
            "offset": 0,
            "slot": "5",
            "type": "t_bytes32"
          }
        ],
        "numberOfBytes": "192"
      },
      "t_struct(History)4280_storage": {
        "encoding": "inplace",
        "label": "struct Checkpoints.History",
        "members": [
          {
            "astId": 4279,
            "contract": "contracts/Governance.sol:Governance",
            "label": "_checkpoints",
            "offset": 0,
            "slot": "0",
            "type": "t_array(t_struct(Checkpoint)4285_storage)dyn_storage"
          }
        ],
        "numberOfBytes": "32"
      },
      "t_struct(ProposalCore)189_storage": {
        "encoding": "inplace",
        "label": "struct Governor.ProposalCore",
        "members": [
          {
            "astId": 181,
            "contract": "contracts/Governance.sol:Governance",
            "label": "voteStart",
            "offset": 0,
            "slot": "0",
            "type": "t_struct(BlockNumber)6023_storage"
          },
          {
            "astId": 184,
            "contract": "contracts/Governance.sol:Governance",
            "label": "voteEnd",
            "offset": 0,
            "slot": "1",
            "type": "t_struct(BlockNumber)6023_storage"
          },
          {
            "astId": 186,
            "contract": "contracts/Governance.sol:Governance",
            "label": "executed",
            "offset": 0,
            "slot": "2",
            "type": "t_bool"
          },
          {
            "astId": 188,
            "contract": "contracts/Governance.sol:Governance",
            "label": "canceled",
            "offset": 1,
            "slot": "2",
            "type": "t_bool"
          }
        ],
        "numberOfBytes": "96"
      },
      "t_struct(ProposalVote)1757_storage": {
        "encoding": "inplace",
        "label": "struct GovernorCountingSimple.ProposalVote",
        "members": [
          {
            "astId": 1748,
            "contract": "contracts/Governance.sol:Governance",
            "label": "againstVotes",
            "offset": 0,
            "slot": "0",
            "type": "t_uint256"
          },
          {
            "astId": 1750,
            "contract": "contracts/Governance.sol:Governance",
            "label": "forVotes",
            "offset": 0,
            "slot": "1",
            "type": "t_uint256"
          },
          {
            "astId": 1752,
            "contract": "contracts/Governance.sol:Governance",
            "label": "abstainVotes",
            "offset": 0,
            "slot": "2",
            "type": "t_uint256"
          },
          {
            "astId": 1756,
            "contract": "contracts/Governance.sol:Governance",
            "label": "hasVoted",
            "offset": 0,
            "slot": "3",
            "type": "t_mapping(t_address,t_bool)"
          }
        ],
        "numberOfBytes": "128"
      },
      "t_uint224": {
        "encoding": "inplace",
        "label": "uint224",
        "numberOfBytes": "28"
      },
      "t_uint256": {
        "encoding": "inplace",
        "label": "uint256",
        "numberOfBytes": "32"
      },
      "t_uint32": {
        "encoding": "inplace",
        "label": "uint32",
        "numberOfBytes": "4"
      },
      "t_uint64": {
        "encoding": "inplace",
        "label": "uint64",
        "numberOfBytes": "8"
      }
    }
  }
}