{
  "address": "0x88d72d090C138fb28148bd951e75DB3483232fFB",
  "abi": [
    {
      "inputs": [
        {
          "internalType": "address",
          "name": "_governance",
          "type": "address"
        },
        {
          "internalType": "address",
          "name": "_token",
          "type": "address"
        }
      ],
      "stateMutability": "nonpayable",
      "type": "constructor"
    },
    {
      "anonymous": false,
      "inputs": [
        {
          "indexed": true,
          "internalType": "address",
          "name": "previousOwner",
          "type": "address"
        },
        {
          "indexed": true,
          "internalType": "address",
          "name": "newOwner",
          "type": "address"
        }
      ],
      "name": "OwnershipTransferred",
      "type": "event"
    },
    {
      "inputs": [],
      "name": "balance",
      "outputs": [
        {
          "internalType": "uint256",
          "name": "",
          "type": "uint256"
        }
      ],
      "stateMutability": "view",
      "type": "function"
    },
    {
      "inputs": [],
      "name": "getBalance",
      "outputs": [
        {
          "internalType": "uint256",
          "name": "",
          "type": "uint256"
        }
      ],
      "stateMutability": "view",
      "type": "function"
    },
    {
      "inputs": [],
      "name": "owner",
      "outputs": [
        {
          "internalType": "address",
          "name": "",
          "type": "address"
        }
      ],
      "stateMutability": "view",
      "type": "function"
    },
    {
      "inputs": [],
      "name": "renounceOwnership",
      "outputs": [],
      "stateMutability": "nonpayable",
      "type": "function"
    },
    {
      "inputs": [],
      "name": "token",
      "outputs": [
        {
          "internalType": "contract IToken",
          "name": "",
          "type": "address"
        }
      ],
      "stateMutability": "view",
      "type": "function"
    },
    {
      "inputs": [
        {
          "internalType": "address",
          "name": "to",
          "type": "address"
        },
        {
          "internalType": "uint256",
          "name": "amount",
          "type": "uint256"
        }
      ],
      "name": "transfer",
      "outputs": [],
      "stateMutability": "nonpayable",
      "type": "function"
    },
    {
      "inputs": [
        {
          "internalType": "address",
          "name": "newOwner",
          "type": "address"
        }
      ],
      "name": "transferOwnership",
      "outputs": [],
      "stateMutability": "nonpayable",
      "type": "function"
    },
    {
      "stateMutability": "payable",
      "type": "receive"
    }
  ],
  "transactionHash": "0xec4f8365c07dd7cb8196a7b2ea1a2de0d476c19d8849fe565f1e59f1b2ac4ba0",
  "args": [
    "0x3FadA72f0E9D799c28432Ff83133d68Fd4578eaA",
    "0xc1E3bd6Ee4bb6f78c0817453E534E8223F9f339B"
  ],
  "numDeployments": 1,
  "solcInputHash": "d9b6d8f83a3e6d6c9fcc54284348c2b6",
  "bytecode": "0x608060405234801561001057600080fd5b5060405161082538038061082583398101604081905261002f916101a6565b610038336100b5565b61004182610105565b600180546001600160a01b0319166001600160a01b03831690811790915560408051633ccfd60b60e01b81529051633ccfd60b9160048082019260009290919082900301818387803b15801561009657600080fd5b505af11580156100aa573d6000803e3d6000fd5b505050505050610267565b600080546001600160a01b038381166001600160a01b0319831681178455604051919092169283917f8be0079c531659141344cd1fd0a4f28419497f9722a3daafe3b4186f6b6457e09190a35050565b61010d610148565b6001600160a01b03811661013c5760405162461bcd60e51b8152600401610133906101e3565b60405180910390fd5b610145816100b5565b50565b6000546001600160a01b031633146101725760405162461bcd60e51b81526004016101339061022d565b565b60006001600160a01b0382165b92915050565b61019081610174565b811461014557600080fd5b805161018181610187565b600080604083850312156101bc576101bc600080fd5b60006101c8858561019b565b92505060206101d98582860161019b565b9150509250929050565b6020808252810161018181602681527f4f776e61626c653a206e6577206f776e657220697320746865207a65726f206160208201526564647265737360d01b604082015260600190565b60208082528181019081527f4f776e61626c653a2063616c6c6572206973206e6f7420746865206f776e6572604083015260608201610181565b6105af806102766000396000f3fe6080604052600436106100745760003560e01c8063a9059cbb1161004e578063a9059cbb146100ef578063b69ef8a81461010f578063f2fde38b14610125578063fc0c546a1461014557600080fd5b806312065fe014610080578063715018a6146100a55780638da5cb5b146100bc57600080fd5b3661007b57005b600080fd5b34801561008c57600080fd5b50475b60405161009c919061037b565b60405180910390f35b3480156100b157600080fd5b506100ba61017f565b005b3480156100c857600080fd5b5060005473ffffffffffffffffffffffffffffffffffffffff1660405161009c91906103b6565b3480156100fb57600080fd5b506100ba61010a3660046103f4565b610193565b34801561011b57600080fd5b5061008f60025481565b34801561013157600080fd5b506100ba610140366004610431565b61024c565b34801561015157600080fd5b506001546101729073ffffffffffffffffffffffffffffffffffffffff1681565b60405161009c9190610479565b6101876102ad565b61019160006102fe565b565b61019b6102ad565b60008273ffffffffffffffffffffffffffffffffffffffff16826040516101c190610487565b60006040518083038185875af1925050503d80600081146101fe576040519150601f19603f3d011682016040523d82523d6000602084013e610203565b606091505b5050905080610247576040517f08c379a000000000000000000000000000000000000000000000000000000000815260040161023e906104c6565b60405180910390fd5b505050565b6102546102ad565b73ffffffffffffffffffffffffffffffffffffffff81166102a1576040517f08c379a000000000000000000000000000000000000000000000000000000000815260040161023e906104d6565b6102aa816102fe565b50565b60005473ffffffffffffffffffffffffffffffffffffffff163314610191576040517f08c379a000000000000000000000000000000000000000000000000000000000815260040161023e90610569565b6000805473ffffffffffffffffffffffffffffffffffffffff8381167fffffffffffffffffffffffff0000000000000000000000000000000000000000831681178455604051919092169283917f8be0079c531659141344cd1fd0a4f28419497f9722a3daafe3b4186f6b6457e09190a35050565b805b82525050565b602081016103898284610373565b92915050565b600073ffffffffffffffffffffffffffffffffffffffff8216610389565b6103758161038f565b6020810161038982846103ad565b6103cd8161038f565b81146102aa57600080fd5b8035610389816103c4565b806103cd565b8035610389816103e3565b6000806040838503121561040a5761040a600080fd5b600061041685856103d8565b9250506020610427858286016103e9565b9150509250929050565b60006020828403121561044657610446600080fd5b600061045284846103d8565b949350505050565b60006103898261038f565b60006103898261045a565b61037581610465565b602081016103898284610470565b600081610389565b601081526000602082017f5472616e73666572206661696c65642100000000000000000000000000000000815291505b5060200190565b602080825281016103898161048f565b6020808252810161038981602681527f4f776e61626c653a206e6577206f776e657220697320746865207a65726f206160208201527f6464726573730000000000000000000000000000000000000000000000000000604082015260600190565b60208082527f4f776e61626c653a2063616c6c6572206973206e6f7420746865206f776e6572910190815260006104bf565b602080825281016103898161053756fea2646970667358221220d4998ec95105191023e77da6e42305695880272a159a52d77338ad62524efeab64736f6c63430008120033",
  "devdoc": {
    "kind": "dev",
    "methods": {
      "owner()": {
        "details": "Returns the address of the current owner."
      },
      "renounceOwnership()": {
        "details": "Leaves the contract without owner. It will not be possible to call `onlyOwner` functions anymore. Can only be called by the current owner. NOTE: Renouncing ownership will leave the contract without an owner, thereby removing any functionality that is only available to the owner."
      },
      "transferOwnership(address)": {
        "details": "Transfers ownership of the contract to a new account (`newOwner`). Can only be called by the current owner."
      }
    },
    "version": 1
  },
  "userdoc": {
    "kind": "user",
    "methods": {},
    "version": 1
  },
  "storageLayout": {
    "storage": [
      {
        "astId": 7,
        "contract": "contracts/Treasury.sol:Treasury",
        "label": "_owner",
        "offset": 0,
        "slot": "0",
        "type": "t_address"
      },
      {
        "astId": 149,
        "contract": "contracts/Treasury.sol:Treasury",
        "label": "token",
        "offset": 0,
        "slot": "1",
        "type": "t_contract(IToken)140"
      },
      {
        "astId": 151,
        "contract": "contracts/Treasury.sol:Treasury",
        "label": "balance",
        "offset": 0,
        "slot": "2",
        "type": "t_uint256"
      }
    ],
    "types": {
      "t_address": {
        "encoding": "inplace",
        "label": "address",
        "numberOfBytes": "20"
      },
      "t_contract(IToken)140": {
        "encoding": "inplace",
        "label": "contract IToken",
        "numberOfBytes": "20"
      },
      "t_uint256": {
        "encoding": "inplace",
        "label": "uint256",
        "numberOfBytes": "32"
      }
    }
  }
}