{
  "address": "0xbf0580DE9Ad61c2723ac096DA89701881a68623D",
  "abi": [
    {
      "inputs": [
        {
          "internalType": "contract IVotes",
          "name": "_token",
          "type": "address"
        },
        {
          "internalType": "address",
          "name": "_automation",
          "type": "address"
        }
      ],
      "stateMutability": "nonpayable",
      "type": "constructor"
    },
    {
      "inputs": [],
      "name": "Empty",
      "type": "error"
    },
    {
      "anonymous": false,
      "inputs": [
        {
          "indexed": false,
          "internalType": "uint256",
          "name": "proposalId",
          "type": "uint256"
        }
      ],
      "name": "ProposalCanceled",
      "type": "event"
    },
    {
      "anonymous": false,
      "inputs": [
        {
          "indexed": false,
          "internalType": "uint256",
          "name": "proposalId",
          "type": "uint256"
        },
        {
          "indexed": false,
          "internalType": "address",
          "name": "proposer",
          "type": "address"
        },
        {
          "indexed": false,
          "internalType": "address[]",
          "name": "targets",
          "type": "address[]"
        },
        {
          "indexed": false,
          "internalType": "uint256[]",
          "name": "values",
          "type": "uint256[]"
        },
        {
          "indexed": false,
          "internalType": "string[]",
          "name": "signatures",
          "type": "string[]"
        },
        {
          "indexed": false,
          "internalType": "bytes[]",
          "name": "calldatas",
          "type": "bytes[]"
        },
        {
          "indexed": false,
          "internalType": "uint256",
          "name": "startBlock",
          "type": "uint256"
        },
        {
          "indexed": false,
          "internalType": "uint256",
          "name": "endBlock",
          "type": "uint256"
        },
        {
          "indexed": false,
          "internalType": "string",
          "name": "description",
          "type": "string"
        }
      ],
      "name": "ProposalCreated",
      "type": "event"
    },
    {
      "anonymous": false,
      "inputs": [
        {
          "indexed": false,
          "internalType": "uint256",
          "name": "proposalId",
          "type": "uint256"
        }
      ],
      "name": "ProposalExecuted",
      "type": "event"
    },
    {
      "anonymous": false,
      "inputs": [
        {
          "indexed": false,
          "internalType": "uint256",
          "name": "oldQuorumNumerator",
          "type": "uint256"
        },
        {
          "indexed": false,
          "internalType": "uint256",
          "name": "newQuorumNumerator",
          "type": "uint256"
        }
      ],
      "name": "QuorumNumeratorUpdated",
      "type": "event"
    },
    {
      "anonymous": false,
      "inputs": [
        {
          "indexed": true,
          "internalType": "address",
          "name": "voter",
          "type": "address"
        },
        {
          "indexed": false,
          "internalType": "uint256",
          "name": "proposalId",
          "type": "uint256"
        },
        {
          "indexed": false,
          "internalType": "uint8",
          "name": "support",
          "type": "uint8"
        },
        {
          "indexed": false,
          "internalType": "uint256",
          "name": "weight",
          "type": "uint256"
        },
        {
          "indexed": false,
          "internalType": "string",
          "name": "reason",
          "type": "string"
        }
      ],
      "name": "VoteCast",
      "type": "event"
    },
    {
      "anonymous": false,
      "inputs": [
        {
          "indexed": true,
          "internalType": "address",
          "name": "voter",
          "type": "address"
        },
        {
          "indexed": false,
          "internalType": "uint256",
          "name": "proposalId",
          "type": "uint256"
        },
        {
          "indexed": false,
          "internalType": "uint8",
          "name": "support",
          "type": "uint8"
        },
        {
          "indexed": false,
          "internalType": "uint256",
          "name": "weight",
          "type": "uint256"
        },
        {
          "indexed": false,
          "internalType": "string",
          "name": "reason",
          "type": "string"
        },
        {
          "indexed": false,
          "internalType": "bytes",
          "name": "params",
          "type": "bytes"
        }
      ],
      "name": "VoteCastWithParams",
      "type": "event"
    },
    {
      "inputs": [],
      "name": "BALLOT_TYPEHASH",
      "outputs": [
        {
          "internalType": "bytes32",
          "name": "",
          "type": "bytes32"
        }
      ],
      "stateMutability": "view",
      "type": "function"
    },
    {
      "inputs": [],
      "name": "COUNTING_MODE",
      "outputs": [
        {
          "internalType": "string",
          "name": "",
          "type": "string"
        }
      ],
      "stateMutability": "pure",
      "type": "function"
    },
    {
      "inputs": [],
      "name": "EXTENDED_BALLOT_TYPEHASH",
      "outputs": [
        {
          "internalType": "bytes32",
          "name": "",
          "type": "bytes32"
        }
      ],
      "stateMutability": "view",
      "type": "function"
    },
    {
      "inputs": [],
      "name": "automation",
      "outputs": [
        {
          "internalType": "address",
          "name": "",
          "type": "address"
        }
      ],
      "stateMutability": "view",
      "type": "function"
    },
    {
      "inputs": [
        {
          "internalType": "address[]",
          "name": "targets",
          "type": "address[]"
        },
        {
          "internalType": "uint256[]",
          "name": "values",
          "type": "uint256[]"
        },
        {
          "internalType": "bytes[]",
          "name": "calldatas",
          "type": "bytes[]"
        },
        {
          "internalType": "bytes32",
          "name": "descriptionHash",
          "type": "bytes32"
        }
      ],
      "name": "cancel",
      "outputs": [],
      "stateMutability": "nonpayable",
      "type": "function"
    },
    {
      "inputs": [
        {
          "internalType": "uint256",
          "name": "proposalId",
          "type": "uint256"
        },
        {
          "internalType": "uint8",
          "name": "support",
          "type": "uint8"
        }
      ],
      "name": "castVote",
      "outputs": [
        {
          "internalType": "uint256",
          "name": "",
          "type": "uint256"
        }
      ],
      "stateMutability": "nonpayable",
      "type": "function"
    },
    {
      "inputs": [
        {
          "internalType": "uint256",
          "name": "proposalId",
          "type": "uint256"
        },
        {
          "internalType": "uint8",
          "name": "support",
          "type": "uint8"
        },
        {
          "internalType": "uint8",
          "name": "v",
          "type": "uint8"
        },
        {
          "internalType": "bytes32",
          "name": "r",
          "type": "bytes32"
        },
        {
          "internalType": "bytes32",
          "name": "s",
          "type": "bytes32"
        }
      ],
      "name": "castVoteBySig",
      "outputs": [
        {
          "internalType": "uint256",
          "name": "",
          "type": "uint256"
        }
      ],
      "stateMutability": "nonpayable",
      "type": "function"
    },
    {
      "inputs": [
        {
          "internalType": "uint256",
          "name": "proposalId",
          "type": "uint256"
        },
        {
          "internalType": "uint8",
          "name": "support",
          "type": "uint8"
        },
        {
          "internalType": "string",
          "name": "reason",
          "type": "string"
        }
      ],
      "name": "castVoteWithReason",
      "outputs": [
        {
          "internalType": "uint256",
          "name": "",
          "type": "uint256"
        }
      ],
      "stateMutability": "nonpayable",
      "type": "function"
    },
    {
      "inputs": [
        {
          "internalType": "uint256",
          "name": "proposalId",
          "type": "uint256"
        },
        {
          "internalType": "uint8",
          "name": "support",
          "type": "uint8"
        },
        {
          "internalType": "string",
          "name": "reason",
          "type": "string"
        },
        {
          "internalType": "bytes",
          "name": "params",
          "type": "bytes"
        }
      ],
      "name": "castVoteWithReasonAndParams",
      "outputs": [
        {
          "internalType": "uint256",
          "name": "",
          "type": "uint256"
        }
      ],
      "stateMutability": "nonpayable",
      "type": "function"
    },
    {
      "inputs": [
        {
          "internalType": "uint256",
          "name": "proposalId",
          "type": "uint256"
        },
        {
          "internalType": "uint8",
          "name": "support",
          "type": "uint8"
        },
        {
          "internalType": "string",
          "name": "reason",
          "type": "string"
        },
        {
          "internalType": "bytes",
          "name": "params",
          "type": "bytes"
        },
        {
          "internalType": "uint8",
          "name": "v",
          "type": "uint8"
        },
        {
          "internalType": "bytes32",
          "name": "r",
          "type": "bytes32"
        },
        {
          "internalType": "bytes32",
          "name": "s",
          "type": "bytes32"
        }
      ],
      "name": "castVoteWithReasonAndParamsBySig",
      "outputs": [
        {
          "internalType": "uint256",
          "name": "",
          "type": "uint256"
        }
      ],
      "stateMutability": "nonpayable",
      "type": "function"
    },
    {
      "inputs": [],
      "name": "currentProposal",
      "outputs": [
        {
          "internalType": "uint256",
          "name": "proposalId",
          "type": "uint256"
        },
        {
          "internalType": "uint256",
          "name": "executionTime",
          "type": "uint256"
        },
        {
          "internalType": "bytes32",
          "name": "description",
          "type": "bytes32"
        },
        {
          "internalType": "string",
          "name": "descriptionString",
          "type": "string"
        }
      ],
      "stateMutability": "view",
      "type": "function"
    },
    {
      "inputs": [
        {
          "internalType": "address[]",
          "name": "targets",
          "type": "address[]"
        },
        {
          "internalType": "uint256[]",
          "name": "values",
          "type": "uint256[]"
        },
        {
          "internalType": "bytes[]",
          "name": "calldatas",
          "type": "bytes[]"
        },
        {
          "internalType": "bytes32",
          "name": "descriptionHash",
          "type": "bytes32"
        }
      ],
      "name": "execute",
      "outputs": [
        {
          "internalType": "uint256",
          "name": "",
          "type": "uint256"
        }
      ],
      "stateMutability": "payable",
      "type": "function"
    },
    {
      "inputs": [],
      "name": "executionDelay",
      "outputs": [
        {
          "internalType": "uint256",
          "name": "",
          "type": "uint256"
        }
      ],
      "stateMutability": "view",
      "type": "function"
    },
    {
      "inputs": [],
      "name": "getCalldatas",
      "outputs": [
        {
          "internalType": "bytes[]",
          "name": "",
          "type": "bytes[]"
        }
      ],
      "stateMutability": "view",
      "type": "function"
    },
    {
      "inputs": [],
      "name": "getDescription",
      "outputs": [
        {
          "internalType": "bytes32",
          "name": "",
          "type": "bytes32"
        }
      ],
      "stateMutability": "view",
      "type": "function"
    },
    {
      "inputs": [],
      "name": "getDescriptionString",
      "outputs": [
        {
          "internalType": "string",
          "name": "",
          "type": "string"
        }
      ],
      "stateMutability": "view",
      "type": "function"
    },
    {
      "inputs": [],
      "name": "getExecutionTime",
      "outputs": [
        {
          "internalType": "uint256",
          "name": "",
          "type": "uint256"
        }
      ],
      "stateMutability": "view",
      "type": "function"
    },
    {
      "inputs": [],
      "name": "getProposalId",
      "outputs": [
        {
          "internalType": "uint256",
          "name": "",
          "type": "uint256"
        }
      ],
      "stateMutability": "view",
      "type": "function"
    },
    {
      "inputs": [],
      "name": "getTargets",
      "outputs": [
        {
          "internalType": "address[]",
          "name": "",
          "type": "address[]"
        }
      ],
      "stateMutability": "view",
      "type": "function"
    },
    {
      "inputs": [],
      "name": "getValues",
      "outputs": [
        {
          "internalType": "uint256[]",
          "name": "",
          "type": "uint256[]"
        }
      ],
      "stateMutability": "view",
      "type": "function"
    },
    {
      "inputs": [
        {
          "internalType": "address",
          "name": "account",
          "type": "address"
        },
        {
          "internalType": "uint256",
          "name": "blockNumber",
          "type": "uint256"
        }
      ],
      "name": "getVotes",
      "outputs": [
        {
          "internalType": "uint256",
          "name": "",
          "type": "uint256"
        }
      ],
      "stateMutability": "view",
      "type": "function"
    },
    {
      "inputs": [
        {
          "internalType": "address",
          "name": "account",
          "type": "address"
        },
        {
          "internalType": "uint256",
          "name": "blockNumber",
          "type": "uint256"
        },
        {
          "internalType": "bytes",
          "name": "params",
          "type": "bytes"
        }
      ],
      "name": "getVotesWithParams",
      "outputs": [
        {
          "internalType": "uint256",
          "name": "",
          "type": "uint256"
        }
      ],
      "stateMutability": "view",
      "type": "function"
    },
    {
      "inputs": [
        {
          "internalType": "uint256",
          "name": "proposalId",
          "type": "uint256"
        },
        {
          "internalType": "address",
          "name": "account",
          "type": "address"
        }
      ],
      "name": "hasVoted",
      "outputs": [
        {
          "internalType": "bool",
          "name": "",
          "type": "bool"
        }
      ],
      "stateMutability": "view",
      "type": "function"
    },
    {
      "inputs": [
        {
          "internalType": "address[]",
          "name": "targets",
          "type": "address[]"
        },
        {
          "internalType": "uint256[]",
          "name": "values",
          "type": "uint256[]"
        },
        {
          "internalType": "bytes[]",
          "name": "calldatas",
          "type": "bytes[]"
        },
        {
          "internalType": "bytes32",
          "name": "descriptionHash",
          "type": "bytes32"
        }
      ],
      "name": "hashProposal",
      "outputs": [
        {
          "internalType": "uint256",
          "name": "",
          "type": "uint256"
        }
      ],
      "stateMutability": "pure",
      "type": "function"
    },
    {
      "inputs": [],
      "name": "isReadyToExecution",
      "outputs": [
        {
          "internalType": "bool",
          "name": "",
          "type": "bool"
        }
      ],
      "stateMutability": "view",
      "type": "function"
    },
    {
      "inputs": [],
      "name": "isReadyToPropose",
      "outputs": [
        {
          "internalType": "bool",
          "name": "",
          "type": "bool"
        }
      ],
      "stateMutability": "view",
      "type": "function"
    },
    {
      "inputs": [],
      "name": "name",
      "outputs": [
        {
          "internalType": "string",
          "name": "",
          "type": "string"
        }
      ],
      "stateMutability": "view",
      "type": "function"
    },
    {
      "inputs": [
        {
          "internalType": "address",
          "name": "",
          "type": "address"
        },
        {
          "internalType": "address",
          "name": "",
          "type": "address"
        },
        {
          "internalType": "uint256[]",
          "name": "",
          "type": "uint256[]"
        },
        {
          "internalType": "uint256[]",
          "name": "",
          "type": "uint256[]"
        },
        {
          "internalType": "bytes",
          "name": "",
          "type": "bytes"
        }
      ],
      "name": "onERC1155BatchReceived",
      "outputs": [
        {
          "internalType": "bytes4",
          "name": "",
          "type": "bytes4"
        }
      ],
      "stateMutability": "nonpayable",
      "type": "function"
    },
    {
      "inputs": [
        {
          "internalType": "address",
          "name": "",
          "type": "address"
        },
        {
          "internalType": "address",
          "name": "",
          "type": "address"
        },
        {
          "internalType": "uint256",
          "name": "",
          "type": "uint256"
        },
        {
          "internalType": "uint256",
          "name": "",
          "type": "uint256"
        },
        {
          "internalType": "bytes",
          "name": "",
          "type": "bytes"
        }
      ],
      "name": "onERC1155Received",
      "outputs": [
        {
          "internalType": "bytes4",
          "name": "",
          "type": "bytes4"
        }
      ],
      "stateMutability": "nonpayable",
      "type": "function"
    },
    {
      "inputs": [
        {
          "internalType": "address",
          "name": "",
          "type": "address"
        },
        {
          "internalType": "address",
          "name": "",
          "type": "address"
        },
        {
          "internalType": "uint256",
          "name": "",
          "type": "uint256"
        },
        {
          "internalType": "bytes",
          "name": "",
          "type": "bytes"
        }
      ],
      "name": "onERC721Received",
      "outputs": [
        {
          "internalType": "bytes4",
          "name": "",
          "type": "bytes4"
        }
      ],
      "stateMutability": "nonpayable",
      "type": "function"
    },
    {
      "inputs": [
        {
          "internalType": "uint256",
          "name": "proposalId",
          "type": "uint256"
        }
      ],
      "name": "proposalDeadline",
      "outputs": [
        {
          "internalType": "uint256",
          "name": "",
          "type": "uint256"
        }
      ],
      "stateMutability": "view",
      "type": "function"
    },
    {
      "inputs": [
        {
          "internalType": "uint256",
          "name": "proposalId",
          "type": "uint256"
        }
      ],
      "name": "proposalSnapshot",
      "outputs": [
        {
          "internalType": "uint256",
          "name": "",
          "type": "uint256"
        }
      ],
      "stateMutability": "view",
      "type": "function"
    },
    {
      "inputs": [],
      "name": "proposalThreshold",
      "outputs": [
        {
          "internalType": "uint256",
          "name": "",
          "type": "uint256"
        }
      ],
      "stateMutability": "view",
      "type": "function"
    },
    {
      "inputs": [
        {
          "internalType": "uint256",
          "name": "proposalId",
          "type": "uint256"
        }
      ],
      "name": "proposalVotes",
      "outputs": [
        {
          "internalType": "uint256",
          "name": "againstVotes",
          "type": "uint256"
        },
        {
          "internalType": "uint256",
          "name": "forVotes",
          "type": "uint256"
        },
        {
          "internalType": "uint256",
          "name": "abstainVotes",
          "type": "uint256"
        }
      ],
      "stateMutability": "view",
      "type": "function"
    },
    {
      "inputs": [
        {
          "internalType": "address[]",
          "name": "targets",
          "type": "address[]"
        },
        {
          "internalType": "uint256[]",
          "name": "values",
          "type": "uint256[]"
        },
        {
          "internalType": "bytes[]",
          "name": "calldatas",
          "type": "bytes[]"
        },
        {
          "internalType": "string",
          "name": "description",
          "type": "string"
        }
      ],
      "name": "propose",
      "outputs": [
        {
          "internalType": "uint256",
          "name": "",
          "type": "uint256"
        }
      ],
      "stateMutability": "nonpayable",
      "type": "function"
    },
    {
      "inputs": [
        {
          "internalType": "uint256",
          "name": "blockNumber",
          "type": "uint256"
        }
      ],
      "name": "quorum",
      "outputs": [
        {
          "internalType": "uint256",
          "name": "",
          "type": "uint256"
        }
      ],
      "stateMutability": "view",
      "type": "function"
    },
    {
      "inputs": [],
      "name": "quorumDenominator",
      "outputs": [
        {
          "internalType": "uint256",
          "name": "",
          "type": "uint256"
        }
      ],
      "stateMutability": "view",
      "type": "function"
    },
    {
      "inputs": [
        {
          "internalType": "uint256",
          "name": "blockNumber",
          "type": "uint256"
        }
      ],
      "name": "quorumNumerator",
      "outputs": [
        {
          "internalType": "uint256",
          "name": "",
          "type": "uint256"
        }
      ],
      "stateMutability": "view",
      "type": "function"
    },
    {
      "inputs": [],
      "name": "quorumNumerator",
      "outputs": [
        {
          "internalType": "uint256",
          "name": "",
          "type": "uint256"
        }
      ],
      "stateMutability": "view",
      "type": "function"
    },
    {
      "inputs": [
        {
          "internalType": "address",
          "name": "target",
          "type": "address"
        },
        {
          "internalType": "uint256",
          "name": "value",
          "type": "uint256"
        },
        {
          "internalType": "bytes",
          "name": "data",
          "type": "bytes"
        }
      ],
      "name": "relay",
      "outputs": [],
      "stateMutability": "payable",
      "type": "function"
    },
    {
      "inputs": [
        {
          "internalType": "address",
          "name": "_automation",
          "type": "address"
        }
      ],
      "name": "setAutomation",
      "outputs": [],
      "stateMutability": "nonpayable",
      "type": "function"
    },
    {
      "inputs": [
        {
          "internalType": "uint256",
          "name": "proposalId",
          "type": "uint256"
        }
      ],
      "name": "state",
      "outputs": [
        {
          "internalType": "enum IGovernor.ProposalState",
          "name": "",
          "type": "uint8"
        }
      ],
      "stateMutability": "view",
      "type": "function"
    },
    {
      "inputs": [
        {
          "internalType": "bytes4",
          "name": "interfaceId",
          "type": "bytes4"
        }
      ],
      "name": "supportsInterface",
      "outputs": [
        {
          "internalType": "bool",
          "name": "",
          "type": "bool"
        }
      ],
      "stateMutability": "view",
      "type": "function"
    },
    {
      "inputs": [],
      "name": "token",
      "outputs": [
        {
          "internalType": "contract IVotes",
          "name": "",
          "type": "address"
        }
      ],
      "stateMutability": "view",
      "type": "function"
    },
    {
      "inputs": [
        {
          "internalType": "uint256",
          "name": "newQuorumNumerator",
          "type": "uint256"
        }
      ],
      "name": "updateQuorumNumerator",
      "outputs": [],
      "stateMutability": "nonpayable",
      "type": "function"
    },
    {
      "inputs": [],
      "name": "version",
      "outputs": [
        {
          "internalType": "string",
          "name": "",
          "type": "string"
        }
      ],
      "stateMutability": "view",
      "type": "function"
    },
    {
      "inputs": [],
      "name": "votingDelay",
      "outputs": [
        {
          "internalType": "uint256",
          "name": "",
          "type": "uint256"
        }
      ],
      "stateMutability": "pure",
      "type": "function"
    },
    {
      "inputs": [],
      "name": "votingPeriod",
      "outputs": [
        {
          "internalType": "uint256",
          "name": "",
          "type": "uint256"
        }
      ],
      "stateMutability": "pure",
      "type": "function"
    },
    {
      "stateMutability": "payable",
      "type": "receive"
    }
  ],
  "transactionHash": "0x2e0bb199444b3cc97559cf4121fad5da1a9070a5dcec1d6728ca604063070c47",
  "args": [
    "0x8ae338Ec40Ce079813474496cbefe624C7d752bC",
    "0xBC2D2E79bF3F2a032a1A55fed21c62bf178937b6"
  ],
  "numDeployments": 2,
  "solcInputHash": "88c80ea59fca8fe295b5eb92460d0042",
  "bytecode": "0x610160604052603c600f553480156200001757600080fd5b506040516200579c3803806200579c8339810160408190526200003a91620005b2565b6004826040518060400160405280600a815260200169476f7665726e616e636560b01b81525080620000716200012460201b60201c565b815160208084019190912082519183019190912060e08290526101008190524660a0527f8b73c3c69bb8fe3d512ecc4cf759cc79239f7b179b0ffacaa9a75d522b39400f620000c28184846200013f565b6080523060c052610120525060009250620000e291508390508262000703565b50506001600160a01b031661014052620000fc816200017c565b50600780546001600160a01b0319166001600160a01b039290921691909117905550620009e0565b6040805180820190915260018152603160f81b602082015290565b600083838346306040516020016200015c959493929190620007e6565b6040516020818303038152906040528051906020012090505b9392505050565b6064811115620001a95760405162461bcd60e51b8152600401620001a0906200083c565b60405180910390fd5b6000620001b56200029e565b90508015801590620001c75750600654155b15620002425760066000016040518060400160405280600063ffffffff1681526020016200020084620002d660201b620017b61760201c565b6001600160e01b0390811690915282546001810184556000938452602093849020835194909301519091166401000000000263ffffffff909316929092179101555b6200025d8260066200030660201b620018121790919060201c565b50507f0553476bf02ef2726e8ce5ced78d63e26e602e4a2257b1f559418e24b4633997818360405162000292929190620008aa565b60405180910390a15050565b60065460009015620002cf57620002c160066200035960201b6200185d1760201c565b6001600160e01b0316905090565b5060055490565b60006001600160e01b03821115620003025760405162461bcd60e51b8152600401620001a09062000910565b5090565b60008062000343846000016200032743620003a660201b620018ba1760201c565b6200033d86620002d660201b620017b61760201c565b620003cf565b6001600160e01b03918216969116945092505050565b805460009080156200039d5762000385836200037760018462000938565b600091825260209091200190565b5464010000000090046001600160e01b031662000175565b60009392505050565b600063ffffffff821115620003025760405162461bcd60e51b8152600401620001a09062000992565b825460009081908015620004f5576000620003f1876200037760018562000938565b60408051808201909152905463ffffffff8082168084526401000000009092046001600160e01b031660208401529192509087161015620004465760405162461bcd60e51b8152600401620001a090620009a4565b805163ffffffff8088169116036200049457846200046b886200037760018662000938565b80546001600160e01b03929092166401000000000263ffffffff909216919091179055620004e4565b6040805180820190915263ffffffff80881682526001600160e01b0380881660208085019182528b54600181018d5560008d81529190912094519151909216640100000000029216919091179101555b6020015192508391506200054b9050565b50506040805180820190915263ffffffff80851682526001600160e01b0380851660208085019182528854600181018a5560008a8152918220955192519093166401000000000291909316179201919091559050815b935093915050565b60006001600160a01b0382165b92915050565b6000620005608262000553565b6200057e8162000566565b81146200058a57600080fd5b50565b8051620005608162000573565b6200057e8162000553565b805162000560816200059a565b60008060408385031215620005ca57620005ca600080fd5b6000620005d885856200058d565b9250506020620005eb85828601620005a5565b9150509250929050565b634e487b7160e01b600052604160045260246000fd5b634e487b7160e01b600052602260045260246000fd5b6002810460018216806200063657607f821691505b6020821081036200064b576200064b6200060b565b50919050565b6000620005606200065f8381565b90565b6200066d8362000651565b815460001960089490940293841b1916921b91909117905550565b60006200069781848462000662565b505050565b81811015620006bb57620006b260008262000688565b6001016200069c565b5050565b601f82111562000697576000818152602090206020601f85010481016020851015620006e85750805b620006fc6020601f8601048301826200069c565b5050505050565b81516001600160401b038111156200071f576200071f620005f5565b6200072b825462000621565b62000738828285620006bf565b6020601f8311600181146200076f5760008415620007565750858201515b600019600886021c1981166002860217865550620007cb565b600085815260208120601f198616915b82811015620007a157888501518255602094850194600190920191016200077f565b86831015620007be5784890151600019601f89166008021c191682555b6001600288020188555050505b505050505050565b805b82525050565b620007d58162000553565b60a08101620007f68288620007d3565b620008056020830187620007d3565b620008146040830186620007d3565b620008236060830185620007d3565b620008326080830184620007db565b9695505050505050565b602080825281016200056081604381527f476f7665726e6f72566f74657351756f72756d4672616374696f6e3a2071756f60208201527f72756d4e756d657261746f72206f7665722071756f72756d44656e6f6d696e616040820152623a37b960e91b606082015260800190565b60408101620008ba8285620007d3565b620001756020830184620007d3565b602781526000602082017f53616665436173743a2076616c756520646f65736e27742066697420696e20328152663234206269747360c81b602082015291505b5060400190565b602080825281016200056081620008c9565b634e487b7160e01b600052601160045260246000fd5b8181038181111562000560576200056062000922565b602681526000602082017f53616665436173743a2076616c756520646f65736e27742066697420696e203381526532206269747360d01b6020820152915062000909565b6020808252810162000560816200094e565b602080825281016200056081601781527f436865636b706f696e743a20696e76616c6964206b6579000000000000000000602082015260400190565b60805160a05160c05160e051610100516101205161014051614d5362000a49600039600081816109df015281816122c3015261239e015260006126a2015260006126e4015260006126c301526000612627015260006126510152600061267b0152614d536000f3fe6080604052600436106103175760003560e01c80635f398a141161019a578063bc197c81116100e1578063e5adf8a51161008a578063f8ce560a11610064578063f8ce560a146109ad578063fc0c546a146109cd578063fe95ad4814610a0e57600080fd5b8063e5adf8a514610933578063eb9019d414610948578063f23a6e611461096857600080fd5b8063c59057e4116100bb578063c59057e414610899578063dd4e2ba5146108b9578063deaaa7cc146108ff57600080fd5b8063bc197c8114610821578063c01f9e3714610866578063c28bc2fa1461088657600080fd5b80638b25798911610143578063a7713a701161011d578063a7713a70146107d6578063b36ea864146107eb578063b58131b01461080d57600080fd5b80638b2579891461078c57806397c3d334146107a25780639a802a6d146107b657600080fd5b8063730dcc8e11610174578063730dcc8e1461072c5780637b3c71d31461074c5780637d5e81e21461076c57600080fd5b80635f398a14146106ca57806360c4247f146106ea57806363fe3b561461070a57600080fd5b80632d63f6931161025e578063452115d611610207578063544ffc9c116101e1578063544ffc9c1461061b57806354fd4d501461066457806356781388146106aa57600080fd5b8063452115d6146105ac57806349f961d6146105cc578063532c27b81461060657600080fd5b80633bccf4fd116102385780633bccf4fd146105085780633e4f49e614610528578063438596321461055557600080fd5b80632d63f693146104a05780632fe3e261146104c05780633932abb1146104f457600080fd5b806319eb4a90116102c05780632656227d1161029a5780632656227d146104535780632678876d146104665780632b49d4251461047b57600080fd5b806319eb4a90146104075780631a092541146104295780631ad85cb51461043e57600080fd5b806306f3f9e6116102f157806306f3f9e61461039857806306fdde03146103b8578063150b7a02146103da57600080fd5b806301ffc9a71461032557806302a251a31461035b578063034201811461037857600080fd5b3661032057005b005b600080fd5b34801561033157600080fd5b50610345610340366004612fdc565b610a23565b6040516103529190613007565b60405180910390f35b34801561036757600080fd5b50600a5b604051610352919061301b565b34801561038457600080fd5b5061036b6103933660046131e1565b610b54565b3480156103a457600080fd5b5061031e6103b33660046132ba565b610c2b565b3480156103c457600080fd5b506103cd610c90565b604051610352919061334f565b3480156103e657600080fd5b506103fa6103f5366004613392565b610d22565b6040516103529190613439565b34801561041357600080fd5b5061041c610d4c565b60405161035291906134a4565b34801561043557600080fd5b50600d5461036b565b34801561044a57600080fd5b50610345610da6565b61036b61046136600461365f565b610df5565b34801561047257600080fd5b506103cd610e5e565b34801561048757600080fd5b50610490610e70565b6040516103529493929190613707565b3480156104ac57600080fd5b5061036b6104bb3660046132ba565b610f11565b3480156104cc57600080fd5b5061036b7fb3b3f3b703cd84ce352197dcff232b1b5d3cfb2025ce47cf04742d0651f1af8881565b34801561050057600080fd5b50600161036b565b34801561051457600080fd5b5061036b610523366004613741565b610f4a565b34801561053457600080fd5b506105486105433660046132ba565b610fb0565b6040516103529190613816565b34801561056157600080fd5b50610345610570366004613824565b600082815260046020908152604080832073ffffffffffffffffffffffffffffffffffffffff8516845260030190915290205460ff1692915050565b3480156105b857600080fd5b5061031e6105c736600461365f565b6110a9565b3480156105d857600080fd5b506007546105f99073ffffffffffffffffffffffffffffffffffffffff1681565b604051610352919061386a565b34801561061257600080fd5b5060085461036b565b34801561062757600080fd5b506106556106363660046132ba565b6000908152600460205260409020805460018201546002909201549092565b60405161035293929190613878565b34801561067057600080fd5b5060408051808201909152600181527f310000000000000000000000000000000000000000000000000000000000000060208201526103cd565b3480156106b657600080fd5b5061036b6106c53660046138a0565b611150565b3480156106d657600080fd5b5061036b6106e53660046138d3565b611171565b3480156106f657600080fd5b5061036b6107053660046132ba565b6111bb565b34801561071657600080fd5b5061071f61127d565b60405161035291906139af565b34801561073857600080fd5b5061031e6107473660046139c0565b6112ee565b34801561075857600080fd5b5061036b6107673660046139e1565b61136e565b34801561077857600080fd5b5061036b610787366004613a4f565b6113c0565b34801561079857600080fd5b5061036b600f5481565b3480156107ae57600080fd5b50606461036b565b3480156107c257600080fd5b5061036b6107d1366004613ae6565b611465565b3480156107e257600080fd5b5061036b61147c565b3480156107f757600080fd5b506108006114bb565b6040516103529190613bc3565b34801561081957600080fd5b50600061036b565b34801561082d57600080fd5b506103fa61083c366004613bd4565b7fbc197c810000000000000000000000000000000000000000000000000000000095945050505050565b34801561087257600080fd5b5061036b6108813660046132ba565b611597565b61031e610894366004613c84565b6115c7565b3480156108a557600080fd5b5061036b6108b436600461365f565b6116b5565b3480156108c557600080fd5b506040805180820190915260208082527f737570706f72743d627261766f2671756f72756d3d666f722c6162737461696e908201526103cd565b34801561090b57600080fd5b5061036b7f150214d74d59b7d1e90c73fc22ef3d991dd0a76b046543d4d80ab92d2a50328f81565b34801561093f57600080fd5b5061034561170d565b34801561095457600080fd5b5061036b610963366004613cba565b61178a565b34801561097457600080fd5b506103fa610983366004613ced565b7ff23a6e610000000000000000000000000000000000000000000000000000000095945050505050565b3480156109b957600080fd5b5061036b6109c83660046132ba565b6117ab565b3480156109d957600080fd5b50610a017f000000000000000000000000000000000000000000000000000000000000000081565b6040516103529190613da3565b348015610a1a57600080fd5b5060095461036b565b60007fffffffff0000000000000000000000000000000000000000000000000000000082167fbf26d897000000000000000000000000000000000000000000000000000000001480610ab657507fffffffff0000000000000000000000000000000000000000000000000000000082167f79dd796f00000000000000000000000000000000000000000000000000000000145b80610b0257507fffffffff0000000000000000000000000000000000000000000000000000000082167f4e2312e000000000000000000000000000000000000000000000000000000000145b80610b4e57507f01ffc9a7000000000000000000000000000000000000000000000000000000007fffffffff000000000000000000000000000000000000000000000000000000008316145b92915050565b600080610bd7610bcf7fb3b3f3b703cd84ce352197dcff232b1b5d3cfb2025ce47cf04742d0651f1af888c8c8c8c604051610b90929190613dc4565b60405180910390208b80519060200120604051602001610bb4959493929190613dda565b604051602081830303815290604052805190602001206118fa565b86868661190d565b9050610c1d8a828b8b8b8080601f0160208091040260200160405190810160405280939291908181526020018383808284376000920191909152508d9250611935915050565b9a9950505050505050505050565b333014610c6d576040517f08c379a0000000000000000000000000000000000000000000000000000000008152600401610c6490613e53565b60405180910390fd5b610c84565b80610c7d6002611a93565b03610c7257505b610c8d81611b50565b50565b606060008054610c9f90613e92565b80601f0160208091040260200160405190810160405280929190818152602001828054610ccb90613e92565b8015610d185780601f10610ced57610100808354040283529160200191610d18565b820191906000526020600020905b815481529060010190602001808311610cfb57829003601f168201915b5050505050905090565b7f150b7a02000000000000000000000000000000000000000000000000000000005b949350505050565b60606008600301805480602002602001604051908101604052809291908181526020018280548015610d1857602002820191906000526020600020905b815481526020019060010190808311610d89575050505050905090565b60006004600854610db690610fb0565b6007811115610dc757610dc76137b9565b1480610df0575060055b600854610ddd90610fb0565b6007811115610dee57610dee6137b9565b145b905090565b60075460009073ffffffffffffffffffffffffffffffffffffffff163314610e49576040517f08c379a0000000000000000000000000000000000000000000000000000000008152600401610c6490613ef2565b610e5585858585611c6a565b95945050505050565b606060086006018054610c9f90613e92565b60088054600954600d54600e805493949293919291610e8e90613e92565b80601f0160208091040260200160405190810160405280929190818152602001828054610eba90613e92565b8015610f075780601f10610edc57610100808354040283529160200191610f07565b820191906000526020600020905b815481529060010190602001808311610eea57829003601f168201915b5050505050905084565b600081815260016020908152604080832081519283019091525467ffffffffffffffff16908190525b67ffffffffffffffff1692915050565b600080610f88610bcf7f150214d74d59b7d1e90c73fc22ef3d991dd0a76b046543d4d80ab92d2a50328f8989604051602001610bb493929190613f02565b9050610fa587828860405180602001604052806000815250611d8a565b979650505050505050565b6000818152600160205260408120600281015460ff1615610fd45750600792915050565b6002810154610100900460ff1615610fef5750600292915050565b6000610ffa84610f11565b905080600003611036576040517f08c379a0000000000000000000000000000000000000000000000000000000008152600401610c6490613f5e565b438110611047575060009392505050565b600061105285611597565b905043811061106657506001949350505050565b61106f85611dad565b801561108e575060008581526004602052604090208054600190910154115b1561109e57506004949350505050565b506003949350505050565b6110b5848484846116b5565b600854146110ef576040517f08c379a0000000000000000000000000000000000000000000000000000000008152600401610c6490613fa2565b6110fb84848484611de4565b5060006008818155600982905590611114600a82612de7565b611122600383016000612de7565b611130600483016000612e05565b60058201600090556006820160006111489190612e23565b505050505050565b600080339050610d4484828560405180602001604052806000815250611d8a565b600080339050610fa587828888888080601f0160208091040260200160405190810160405280939291908181526020018383808284376000920191909152508a9250611935915050565b6006546000908082036111d2575050600554919050565b600060066111e1600184613fe1565b815481106111f1576111f1613ff4565b60009182526020918290206040805180820190915291015463ffffffff81168083526401000000009091047bffffffffffffffffffffffffffffffffffffffffffffffffffffffff16928201929092529150841061127257602001517bffffffffffffffffffffffffffffffffffffffffffffffffffffffff169392505050565b610d44600685611f07565b60606008600201805480602002602001604051908101604052809291908181526020018280548015610d1857602002820191906000526020600020905b815473ffffffffffffffffffffffffffffffffffffffff1681526001909101906020018083116112ba575050505050905090565b333014611327576040517f08c379a0000000000000000000000000000000000000000000000000000000008152600401610c6490614057565b600780547fffffffffffffffffffffffff00000000000000000000000000000000000000001673ffffffffffffffffffffffffffffffffffffffff92909216919091179055565b6000803390506113b686828787878080601f016020809104026020016040519081016040528093929190818152602001838380828437600092019190915250611d8a92505050565b9695505050505050565b600854600090156113dc576113d361170d565b6113dc57600080fd5b6113e885858585611fce565b60085584516113fe90600a906020880190612e5d565b50835161141290600b906020870190612ee3565b50825161142690600c906020860190612f1e565b5081516020830120600d55600e61143d838261411b565b50600f5461144c4260a5614238565b6114569190614238565b60095550600854949350505050565b6000611472848484612283565b90505b9392505050565b600654600090156114b457611491600661185d565b7bffffffffffffffffffffffffffffffffffffffffffffffffffffffff16905090565b5060055490565b60606008600401805480602002602001604051908101604052809291908181526020016000905b8282101561158e57838290600052602060002001805461150190613e92565b80601f016020809104026020016040519081016040528092919081815260200182805461152d90613e92565b801561157a5780601f1061154f5761010080835404028352916020019161157a565b820191906000526020600020905b81548152906001019060200180831161155d57829003601f168201915b5050505050815260200190600101906114e2565b50505050905090565b600081815260016020818152604080842081519283019091529091015467ffffffffffffffff1690819052610f3a565b333014611600576040517f08c379a0000000000000000000000000000000000000000000000000000000008152600401610c6490613e53565b611617565b806116106002611a93565b0361160557505b6000808573ffffffffffffffffffffffffffffffffffffffff16858585604051611642929190613dc4565b60006040518083038185875af1925050503d806000811461167f576040519150601f19603f3d011682016040523d82523d6000602084013e611684565b606091505b50915091506116ac8282604051806060016040528060288152602001614ccf6028913961233b565b50505050505050565b6000848484846040516020016116ce949392919061424b565b604080517fffffffffffffffffffffffffffffffffffffffffffffffffffffffffffffffe0818403018152919052805160209091012095945050505050565b6000600260085461171d90610fb0565b600781111561172e5761172e6137b9565b14806117565750600360085461174390610fb0565b6007811115611754576117546137b9565b145b8061177d5750600760085461176a90610fb0565b600781111561177b5761177b6137b9565b145b80610df057506000610dd1565b600061147583836117a660408051602081019091526000815290565b612283565b6000610b4e82612354565b60007bffffffffffffffffffffffffffffffffffffffffffffffffffffffff82111561180e576040517f08c379a0000000000000000000000000000000000000000000000000000000008152600401610c64906142f0565b5090565b60008061183084611822436118ba565b61182b866117b6565b612428565b7bffffffffffffffffffffffffffffffffffffffffffffffffffffffff91821693501690505b9250929050565b805460009080156118b15761188583611877600184613fe1565b600091825260209091200190565b5464010000000090047bffffffffffffffffffffffffffffffffffffffffffffffffffffffff16611475565b60009392505050565b600063ffffffff82111561180e576040517f08c379a0000000000000000000000000000000000000000000000000000000008152600401610c649061435a565b6000610b4e61190761260d565b83612708565b600080600061191e8787878761273b565b9150915061192b8161281d565b5095945050505050565b600085815260016020819052604082209061194f88610fb0565b6007811115611960576119606137b9565b14611997576040517f08c379a0000000000000000000000000000000000000000000000000000000008152600401610c64906143c4565b6040805160208101909152815467ffffffffffffffff16908190526000906119c190889086612283565b90506119d0888888848861291a565b8351600003611a32578673ffffffffffffffffffffffffffffffffffffffff167fb8e138887d0aa13bab447e82de9d5c1777041ecd21ca36ba824ff1e6c07ddda489888489604051611a2594939291906143d4565b60405180910390a2610fa5565b8673ffffffffffffffffffffffffffffffffffffffff167fe2babfbac5889a709b63bb7f598b324e08bc5a4fb9ec647fb3cbc9ec07eb87128988848989604051611a809594939291906143ef565b60405180910390a2979650505050505050565b6000611abb8254600f81810b700100000000000000000000000000000000909204900b131590565b15611af2576040517f3db2a12a00000000000000000000000000000000000000000000000000000000815260040160405180910390fd5b508054600f0b6000818152600180840160205260408220805492905583547fffffffffffffffffffffffffffffffff000000000000000000000000000000001692016fffffffffffffffffffffffffffffffff169190911790915590565b6064811115611b8b576040517f08c379a0000000000000000000000000000000000000000000000000000000008152600401610c649061443d565b6000611b9561147c565b90508015801590611ba65750600654155b15611c2057604080518082019091526000815260069060208101611bc9846117b6565b7bffffffffffffffffffffffffffffffffffffffffffffffffffffffff90811690915282546001810184556000938452602093849020835194909301519091166401000000000263ffffffff909316929092179101555b611c2b600683611812565b50507f0553476bf02ef2726e8ce5ced78d63e26e602e4a2257b1f559418e24b46339978183604051611c5e9291906144c4565b60405180910390a15050565b600080611c79868686866116b5565b90506000611c8682610fb0565b90506004816007811115611c9c57611c9c6137b9565b1480611cb957506005816007811115611cb757611cb76137b9565b145b611cef576040517f08c379a0000000000000000000000000000000000000000000000000000000008152600401610c6490614539565b60008281526001602081905260409182902060020180547fffffffffffffffffffffffffffffffffffffffffffffffffffffffffffffff00169091179055517f712ae1383f79ac853f8d882153778e0260ef8f03b504e2866e0593e04d2b291f90611d5b90849061301b565b60405180910390a1611d708288888888612aae565b611d7d8288888888612b53565b61192b8288888888612aae565b6000610e5585858585611da860408051602081019091526000815290565b611935565b600081815260046020526040812060028101546001820154611dcf9190614238565b611ddb6109c885610f11565b11159392505050565b600080611df3868686866116b5565b90506000611e0082610fb0565b90506002816007811115611e1657611e166137b9565b14158015611e3657506006816007811115611e3357611e336137b9565b14155b8015611e5457506007816007811115611e5157611e516137b9565b14155b611e8a576040517f08c379a0000000000000000000000000000000000000000000000000000000008152600401610c649061457d565b6000828152600160205260409081902060020180547fffffffffffffffffffffffffffffffffffffffffffffffffffffffffffff00ff16610100179055517f789cf55be980739dad1d0699b93b58e806b51c9d96619bfa8fe0a28abaa7b30c90611ef590849061301b565b60405180910390a15095945050505050565b6000438210611f42576040517f08c379a0000000000000000000000000000000000000000000000000000000008152600401610c64906145bf565b6000611f4d836118ba565b84549091506000611f6086848385612c56565b90508015611fa357611f7786611877600184613fe1565b5464010000000090047bffffffffffffffffffffffffffffffffffffffffffffffffffffffff16611fa6565b60005b7bffffffffffffffffffffffffffffffffffffffffffffffffffffffff169695505050505050565b600080611fe033610963600143613fe1565b1015612018576040517f08c379a0000000000000000000000000000000000000000000000000000000008152600401610c6490614629565b600061202d86868686805190602001206116b5565b9050845186511461206a576040517f08c379a0000000000000000000000000000000000000000000000000000000008152600401610c6490614693565b83518651146120a5576040517f08c379a0000000000000000000000000000000000000000000000000000000008152600401610c6490614693565b60008651116120e0576040517f08c379a0000000000000000000000000000000000000000000000000000000008152600401610c64906146d7565b6000818152600160209081526040918290208251918201909252815467ffffffffffffffff169081905215612141576040517f08c379a0000000000000000000000000000000000000000000000000000000008152600401610c6490614741565b600061214d6001612cb4565b61215643612cb4565b6121609190614751565b9050600061216e600a612cb4565b6121789083614751565b83547fffffffffffffffffffffffffffffffffffffffffffffffff00000000000000001667ffffffffffffffff841617845590506001830180547fffffffffffffffffffffffffffffffffffffffffffffffff00000000000000001667ffffffffffffffff83161790557f7d84a6263ae0d98d3329bd7b46bb4e8d6f98cd35a7adb45c274c8b7fd5ebd5e084338b8b8d5167ffffffffffffffff81111561222157612221613099565b60405190808252806020026020018201604052801561225457816020015b606081526020019060019003908161223f5790505b508c88888e60405161226e999897969594939291906147ed565b60405180910390a15091979650505050505050565b6040517f3a46b1a800000000000000000000000000000000000000000000000000000000815260009073ffffffffffffffffffffffffffffffffffffffff7f00000000000000000000000000000000000000000000000000000000000000001690633a46b1a8906122fa9087908790600401614895565b602060405180830381865afa158015612317573d6000803e3d6000fd5b505050506040513d601f19601f8201168201806040525081019061147291906148ae565b6060831561234a575081611475565b6114758383612cf8565b60006064612361836111bb565b6040517f8e539e8c00000000000000000000000000000000000000000000000000000000815273ffffffffffffffffffffffffffffffffffffffff7f00000000000000000000000000000000000000000000000000000000000000001690638e539e8c906123d390879060040161301b565b602060405180830381865afa1580156123f0573d6000803e3d6000fd5b505050506040513d601f19601f8201168201806040525081019061241491906148ae565b61241e91906148cf565b610b4e919061491d565b82546000908190801561259a57600061244687611877600185613fe1565b60408051808201909152905463ffffffff8082168084526401000000009092047bffffffffffffffffffffffffffffffffffffffffffffffffffffffff16602084015291925090871610156124c7576040517f08c379a0000000000000000000000000000000000000000000000000000000008152600401610c6490614965565b805163ffffffff80881691160361252557846124e888611877600186613fe1565b80547bffffffffffffffffffffffffffffffffffffffffffffffffffffffff929092166401000000000263ffffffff90921691909117905561258a565b6040805180820190915263ffffffff80881682527bffffffffffffffffffffffffffffffffffffffffffffffffffffffff80881660208085019182528b54600181018d5560008d81529190912094519151909216640100000000029216919091179101555b6020015192508391506126059050565b50506040805180820190915263ffffffff80851682527bffffffffffffffffffffffffffffffffffffffffffffffffffffffff80851660208085019182528854600181018a5560008a8152918220955192519093166401000000000291909316179201919091559050815b935093915050565b60003073ffffffffffffffffffffffffffffffffffffffff7f00000000000000000000000000000000000000000000000000000000000000001614801561267357507f000000000000000000000000000000000000000000000000000000000000000046145b1561269d57507f000000000000000000000000000000000000000000000000000000000000000090565b610df07f00000000000000000000000000000000000000000000000000000000000000007f00000000000000000000000000000000000000000000000000000000000000007f0000000000000000000000000000000000000000000000000000000000000000612d40565b6000828260405160200161271d929190614975565b60405160208183030381529060405280519060200120905092915050565b6000807f7fffffffffffffffffffffffffffffff5d576e7357a4501ddfe92f46681b20a08311156127725750600090506003612814565b60006001878787876040516000815260200160405260405161279794939291906149c1565b6020604051602081039080840390855afa1580156127b9573d6000803e3d6000fd5b50506040517fffffffffffffffffffffffffffffffffffffffffffffffffffffffffffffffe0015191505073ffffffffffffffffffffffffffffffffffffffff811661280d57600060019250925050612814565b9150600090505b94509492505050565b6000816004811115612831576128316137b9565b036128395750565b600181600481111561284d5761284d6137b9565b03612884576040517f08c379a0000000000000000000000000000000000000000000000000000000008152600401610c6490614a2a565b6002816004811115612898576128986137b9565b036128cf576040517f08c379a0000000000000000000000000000000000000000000000000000000008152600401610c6490614a6e565b60038160048111156128e3576128e36137b9565b03610c8d576040517f08c379a0000000000000000000000000000000000000000000000000000000008152600401610c6490614ad8565b600085815260046020908152604080832073ffffffffffffffffffffffffffffffffffffffff88168452600381019092529091205460ff1615612989576040517f08c379a0000000000000000000000000000000000000000000000000000000008152600401610c6490614b42565b73ffffffffffffffffffffffffffffffffffffffff85166000908152600382016020526040902080547fffffffffffffffffffffffffffffffffffffffffffffffffffffffffffffff0016600117905560ff8416612a0057828160000160008282546129f59190614238565b909155506111489050565b7fffffffffffffffffffffffffffffffffffffffffffffffffffffffffffffffff60ff851601612a3e57828160010160008282546129f59190614238565b7ffffffffffffffffffffffffffffffffffffffffffffffffffffffffffffffffe60ff851601612a7c57828160020160008282546129f59190614238565b6040517f08c379a0000000000000000000000000000000000000000000000000000000008152600401610c6490614bac565b612b4c565b8451811015611148573073ffffffffffffffffffffffffffffffffffffffff16858281518110612ae557612ae5613ff4565b602002602001015173ffffffffffffffffffffffffffffffffffffffff1603612b3c57612b3c838281518110612b1d57612b1d613ff4565b6020026020010151805190602001206002612d7a90919063ffffffff16565b612b4581614bbc565b9050612ab3565b5050505050565b6000604051806060016040528060278152602001614cf760279139905060005b85518110156116ac57600080878381518110612b9157612b91613ff4565b602002602001015173ffffffffffffffffffffffffffffffffffffffff16878481518110612bc157612bc1613ff4565b6020026020010151878581518110612bdb57612bdb613ff4565b6020026020010151604051612bf09190614c16565b60006040518083038185875af1925050503d8060008114612c2d576040519150601f19603f3d011682016040523d82523d6000602084013e612c32565b606091505b5091509150612c4282828661233b565b50505080612c4f90614bbc565b9050612b73565b60005b81831015612cac576000612c6d8484612dcc565b60008781526020902090915063ffffffff86169082015463ffffffff161115612c9857809250612ca6565b612ca3816001614238565b93505b50612c59565b509392505050565b600067ffffffffffffffff82111561180e576040517f08c379a0000000000000000000000000000000000000000000000000000000008152600401610c6490614c7c565b815115612d085781518083602001fd5b806040517f08c379a0000000000000000000000000000000000000000000000000000000008152600401610c64919061334f565b5050565b60008383834630604051602001612d5b959493929190614c8c565b6040516020818303038152906040528051906020012090509392505050565b815470010000000000000000000000000000000090819004600f0b6000818152600180860160205260409091209390935583546fffffffffffffffffffffffffffffffff908116939091011602179055565b6000612ddb600284841861491d565b61147590848416614238565b5080546000825590600052602060002090810190610c8d9190612f70565b5080546000825590600052602060002090810190610c8d9190612f85565b508054612e2f90613e92565b6000825580601f10612e3f575050565b601f016020900490600052602060002090810190610c8d9190612f70565b828054828255906000526020600020908101928215612ed7579160200282015b82811115612ed757825182547fffffffffffffffffffffffff00000000000000000000000000000000000000001673ffffffffffffffffffffffffffffffffffffffff909116178255602090920191600190910190612e7d565b5061180e929150612f70565b828054828255906000526020600020908101928215612ed7579160200282015b82811115612ed7578251825591602001919060010190612f03565b828054828255906000526020600020908101928215612f64579160200282015b82811115612f645782518290612f54908261411b565b5091602001919060010190612f3e565b5061180e929150612f85565b5b8082111561180e5760008155600101612f71565b8082111561180e576000612f998282612e23565b50600101612f85565b7fffffffff0000000000000000000000000000000000000000000000000000000081165b8114610c8d57600080fd5b8035610b4e81612fa2565b600060208284031215612ff157612ff1600080fd5b6000610d448484612fd1565b8015155b82525050565b60208101610b4e8284612ffd565b80613001565b60208101610b4e8284613015565b80612fc6565b8035610b4e81613029565b60ff8116612fc6565b8035610b4e8161303a565b60008083601f84011261306357613063600080fd5b50813567ffffffffffffffff81111561307e5761307e600080fd5b60208301915083600182028301111561185657611856600080fd5b7f4e487b7100000000000000000000000000000000000000000000000000000000600052604160045260246000fd5b7fffffffffffffffffffffffffffffffffffffffffffffffffffffffffffffffe0601f830116810181811067ffffffffffffffff8211171561310c5761310c613099565b6040525050565b600061311e60405190565b905061312a82826130c8565b919050565b600067ffffffffffffffff82111561314957613149613099565b7fffffffffffffffffffffffffffffffffffffffffffffffffffffffffffffffe0601f83011660200192915050565b82818337506000910152565b60006131976131928461312f565b613113565b9050828152602081018484840111156131b2576131b2600080fd5b612cac848285613178565b600082601f8301126131d1576131d1600080fd5b8135610d44848260208601613184565b60008060008060008060008060e0898b03121561320057613200600080fd5b600061320c8b8b61302f565b985050602061321d8b828c01613043565b975050604089013567ffffffffffffffff81111561323d5761323d600080fd5b6132498b828c0161304e565b9650965050606089013567ffffffffffffffff81111561326b5761326b600080fd5b6132778b828c016131bd565b94505060806132888b828c01613043565b93505060a06132998b828c0161302f565b92505060c06132aa8b828c0161302f565b9150509295985092959890939650565b6000602082840312156132cf576132cf600080fd5b6000610d44848461302f565b60005b838110156132f65781810151838201526020016132de565b50506000910152565b6000613309825190565b8084526020840193506133208185602086016132db565b601f017fffffffffffffffffffffffffffffffffffffffffffffffffffffffffffffffe0169290920192915050565b6020808252810161147581846132ff565b600073ffffffffffffffffffffffffffffffffffffffff8216610b4e565b612fc681613360565b8035610b4e8161337e565b600080600080608085870312156133ab576133ab600080fd5b60006133b78787613387565b94505060206133c887828801613387565b93505060406133d98782880161302f565b925050606085013567ffffffffffffffff8111156133f9576133f9600080fd5b613405878288016131bd565b91505092959194509250565b7fffffffff000000000000000000000000000000000000000000000000000000008116613001565b60208101610b4e8284613411565b60006134538383613015565b505060200190565b6000613465825190565b80845260209384019383018060005b838110156134995781516134888882613447565b975060208301925050600101613474565b509495945050505050565b60208082528101611475818461345b565b600067ffffffffffffffff8211156134cf576134cf613099565b5060209081020190565b60006134e7613192846134b5565b8381529050602080820190840283018581111561350657613506600080fd5b835b8181101561352a578061351b8882613387565b84525060209283019201613508565b5050509392505050565b600082601f83011261354857613548600080fd5b8135610d448482602086016134d9565b6000613566613192846134b5565b8381529050602080820190840283018581111561358557613585600080fd5b835b8181101561352a578061359a888261302f565b84525060209283019201613587565b600082601f8301126135bd576135bd600080fd5b8135610d44848260208601613558565b60006135db613192846134b5565b838152905060208082019084028301858111156135fa576135fa600080fd5b835b8181101561352a57803567ffffffffffffffff81111561361e5761361e600080fd5b80860161362b89826131bd565b85525050602092830192016135fc565b600082601f83011261364f5761364f600080fd5b8135610d448482602086016135cd565b6000806000806080858703121561367857613678600080fd5b843567ffffffffffffffff81111561369257613692600080fd5b61369e87828801613534565b945050602085013567ffffffffffffffff8111156136be576136be600080fd5b6136ca878288016135a9565b935050604085013567ffffffffffffffff8111156136ea576136ea600080fd5b6136f68782880161363b565b92505060606134058782880161302f565b608081016137158287613015565b6137226020830186613015565b61372f6040830185613015565b81810360608301526113b681846132ff565b600080600080600060a0868803121561375c5761375c600080fd5b6000613768888861302f565b955050602061377988828901613043565b945050604061378a88828901613043565b935050606061379b8882890161302f565b92505060806137ac8882890161302f565b9150509295509295909350565b7f4e487b7100000000000000000000000000000000000000000000000000000000600052602160045260246000fd5b60088110610c8d57610c8d6137b9565b8061312a816137e8565b6000610b4e826137f8565b61300181613802565b60208101610b4e828461380d565b6000806040838503121561383a5761383a600080fd5b6000613846858561302f565b925050602061385785828601613387565b9150509250929050565b61300181613360565b60208101610b4e8284613861565b606081016138868286613015565b6138936020830185613015565b610d446040830184613015565b600080604083850312156138b6576138b6600080fd5b60006138c2858561302f565b925050602061385785828601613043565b6000806000806000608086880312156138ee576138ee600080fd5b60006138fa888861302f565b955050602061390b88828901613043565b945050604086013567ffffffffffffffff81111561392b5761392b600080fd5b6139378882890161304e565b9350935050606086013567ffffffffffffffff81111561395957613959600080fd5b6137ac888289016131bd565b60006134538383613861565b600061397b825190565b80845260209384019383018060005b8381101561349957815161399e8882613965565b97506020830192505060010161398a565b602080825281016114758184613971565b6000602082840312156139d5576139d5600080fd5b6000610d448484613387565b600080600080606085870312156139fa576139fa600080fd5b6000613a06878761302f565b9450506020613a1787828801613043565b935050604085013567ffffffffffffffff811115613a3757613a37600080fd5b613a438782880161304e565b95989497509550505050565b60008060008060808587031215613a6857613a68600080fd5b843567ffffffffffffffff811115613a8257613a82600080fd5b613a8e87828801613534565b945050602085013567ffffffffffffffff811115613aae57613aae600080fd5b613aba878288016135a9565b935050604085013567ffffffffffffffff811115613ada57613ada600080fd5b6133d98782880161363b565b600080600060608486031215613afe57613afe600080fd5b6000613b0a8686613387565b9350506020613b1b8682870161302f565b925050604084013567ffffffffffffffff811115613b3b57613b3b600080fd5b613b47868287016131bd565b9150509250925092565b600061147583836132ff565b6000613b67825190565b80845260208401935083602082028501613b818560200190565b8060005b85811015613bb65784840389528151613b9e8582613b51565b94506020830160209a909a0199925050600101613b85565b5091979650505050505050565b602080825281016114758184613b5d565b600080600080600060a08688031215613bef57613bef600080fd5b6000613bfb8888613387565b9550506020613c0c88828901613387565b945050604086013567ffffffffffffffff811115613c2c57613c2c600080fd5b613c38888289016135a9565b935050606086013567ffffffffffffffff811115613c5857613c58600080fd5b613c64888289016135a9565b925050608086013567ffffffffffffffff81111561395957613959600080fd5b60008060008060608587031215613c9d57613c9d600080fd5b6000613ca98787613387565b9450506020613a178782880161302f565b60008060408385031215613cd057613cd0600080fd5b6000613cdc8585613387565b92505060206138578582860161302f565b600080600080600060a08688031215613d0857613d08600080fd5b6000613d148888613387565b9550506020613d2588828901613387565b9450506040613d368882890161302f565b9350506060613c648882890161302f565b6000610b4e73ffffffffffffffffffffffffffffffffffffffff8316613d6b565b90565b73ffffffffffffffffffffffffffffffffffffffff1690565b6000610b4e82613d47565b6000610b4e82613d84565b61300181613d8f565b60208101610b4e8284613d9a565b6000613dbe838584613178565b50500190565b6000610d44828486613db1565b60ff8116613001565b60a08101613de88288613015565b613df56020830187613015565b613e026040830186613dd1565b613e0f6060830185613015565b6113b66080830184613015565b601881526000602082017f476f7665726e6f723a206f6e6c79476f7665726e616e63650000000000000000815291505b5060200190565b60208082528101610b4e81613e1c565b7f4e487b7100000000000000000000000000000000000000000000000000000000600052602260045260246000fd5b600281046001821680613ea657607f821691505b602082108103613eb857613eb8613e63565b50919050565b601b81526000602082017f4f6e6c79206175746f6d6174696f6e2063616e2061636365737321000000000081529150613e4c565b60208082528101610b4e81613ebe565b60608101613f108286613015565b613f1d6020830185613015565b610d446040830184613dd1565b601d81526000602082017f476f7665726e6f723a20756e6b6e6f776e2070726f706f73616c20696400000081529150613e4c565b60208082528101610b4e81613f2a565b601181526000602082017f556e6b6e6f776e2070726f706f73616c2100000000000000000000000000000081529150613e4c565b60208082528101610b4e81613f6e565b7f4e487b7100000000000000000000000000000000000000000000000000000000600052601160045260246000fd5b81810381811115610b4e57610b4e613fb2565b7f4e487b7100000000000000000000000000000000000000000000000000000000600052603260045260246000fd5b601b81526000602082017f4f6e6c7920676f7665726e616e63652063616e2061636365737321000000000081529150613e4c565b60208082528101610b4e81614023565b6000610b4e613d688381565b61407c83614067565b81547fffffffffffffffffffffffffffffffffffffffffffffffffffffffffffffffff60089490940293841b1916921b91909117905550565b60006140c2818484614073565b505050565b81811015612d3c576140da6000826140b5565b6001016140c7565b601f8211156140c2576000818152602090206020601f850104810160208510156141095750805b612b4c6020601f8601048301826140c7565b815167ffffffffffffffff81111561413557614135613099565b61413f8254613e92565b61414a8282856140e2565b6020601f83116001811461419c57600084156141665750858201515b7fffffffffffffffffffffffffffffffffffffffffffffffffffffffffffffffff600886021c1981166002860217865550611148565b6000858152602081207fffffffffffffffffffffffffffffffffffffffffffffffffffffffffffffffe08616915b828110156141ea57888501518255602094850194600190920191016141ca565b8683101561422457848901517fffffffffffffffffffffffffffffffffffffffffffffffffffffffffffffffff601f89166008021c191682555b600160028802018855505050505050505050565b80820180821115610b4e57610b4e613fb2565b6080808252810161425c8187613971565b90508181036020830152614270818661345b565b905081810360408301526142848185613b5d565b9050610e556060830184613015565b602781526000602082017f53616665436173743a2076616c756520646f65736e27742066697420696e203281527f3234206269747300000000000000000000000000000000000000000000000000602082015291505b5060400190565b60208082528101610b4e81614293565b602681526000602082017f53616665436173743a2076616c756520646f65736e27742066697420696e203381527f3220626974730000000000000000000000000000000000000000000000000000602082015291506142e9565b60208082528101610b4e81614300565b602381526000602082017f476f7665726e6f723a20766f7465206e6f742063757272656e746c792061637481527f6976650000000000000000000000000000000000000000000000000000000000602082015291506142e9565b60208082528101610b4e8161436a565b608081016143e28287613015565b6137226020830186613dd1565b60a081016143fd8288613015565b61440a6020830187613dd1565b6144176040830186613015565b818103606083015261442981856132ff565b90508181036080830152610fa581846132ff565b60208082528101610b4e81604381527f476f7665726e6f72566f74657351756f72756d4672616374696f6e3a2071756f60208201527f72756d4e756d657261746f72206f7665722071756f72756d44656e6f6d696e6160408201527f746f720000000000000000000000000000000000000000000000000000000000606082015260800190565b604081016144d28285613015565b6114756020830184613015565b602181526000602082017f476f7665726e6f723a2070726f706f73616c206e6f742073756363657373667581527f6c00000000000000000000000000000000000000000000000000000000000000602082015291506142e9565b60208082528101610b4e816144df565b601d81526000602082017f476f7665726e6f723a2070726f706f73616c206e6f742061637469766500000081529150613e4c565b60208082528101610b4e81614549565b60208082527f436865636b706f696e74733a20626c6f636b206e6f7420796574206d696e656491019081526000613e4c565b60208082528101610b4e8161458d565b603181526000602082017f476f7665726e6f723a2070726f706f73657220766f7465732062656c6f77207081527f726f706f73616c207468726573686f6c64000000000000000000000000000000602082015291506142e9565b60208082528101610b4e816145cf565b602181526000602082017f476f7665726e6f723a20696e76616c69642070726f706f73616c206c656e677481527f6800000000000000000000000000000000000000000000000000000000000000602082015291506142e9565b60208082528101610b4e81614639565b601881526000602082017f476f7665726e6f723a20656d7074792070726f706f73616c000000000000000081529150613e4c565b60208082528101610b4e816146a3565b602181526000602082017f476f7665726e6f723a2070726f706f73616c20616c726561647920657869737481527f7300000000000000000000000000000000000000000000000000000000000000602082015291506142e9565b60208082528101610b4e816146e7565b67ffffffffffffffff918216919081169082820190811115610b4e57610b4e613fb2565b600061477f825190565b808452602084019350836020820285016147998560200190565b8060005b85811015613bb657848403895281516147b68582613b51565b94506020830160209a909a019992505060010161479d565b6000610b4e613d6867ffffffffffffffff841681565b613001816147ce565b61012081016147fc828c613015565b614809602083018b613861565b818103604083015261481b818a613971565b9050818103606083015261482f818961345b565b905081810360808301526148438188614775565b905081810360a08301526148578187613b5d565b905061486660c08301866147e4565b61487360e08301856147e4565b81810361010083015261488681846132ff565b9b9a5050505050505050505050565b604081016144d28285613861565b8051610b4e81613029565b6000602082840312156148c3576148c3600080fd5b6000610d4484846148a3565b8181028082158382048514176148e7576148e7613fb2565b5092915050565b7f4e487b7100000000000000000000000000000000000000000000000000000000600052601260045260246000fd5b60008261492c5761492c6148ee565b500490565b601781526000602082017f436865636b706f696e743a20696e76616c6964206b657900000000000000000081529150613e4c565b60208082528101610b4e81614931565b7f1901000000000000000000000000000000000000000000000000000000000000815260020160006149a78285613015565b6020820191506149b78284613015565b5060200192915050565b608081016149cf8287613015565b6149dc6020830186613dd1565b6149e96040830185613015565b610e556060830184613015565b601881526000602082017f45434453413a20696e76616c6964207369676e6174757265000000000000000081529150613e4c565b60208082528101610b4e816149f6565b601f81526000602082017f45434453413a20696e76616c6964207369676e6174757265206c656e6774680081529150613e4c565b60208082528101610b4e81614a3a565b602281526000602082017f45434453413a20696e76616c6964207369676e6174757265202773272076616c81527f7565000000000000000000000000000000000000000000000000000000000000602082015291506142e9565b60208082528101610b4e81614a7e565b602781526000602082017f476f7665726e6f72566f74696e6753696d706c653a20766f746520616c72656181527f6479206361737400000000000000000000000000000000000000000000000000602082015291506142e9565b60208082528101610b4e81614ae8565b603581526000602082017f476f7665726e6f72566f74696e6753696d706c653a20696e76616c696420766181527f6c756520666f7220656e756d20566f7465547970650000000000000000000000602082015291506142e9565b60208082528101610b4e81614b52565b60007fffffffffffffffffffffffffffffffffffffffffffffffffffffffffffffffff8203614bed57614bed613fb2565b5060010190565b6000614bfe825190565b614c0c8185602086016132db565b9290920192915050565b60006114758284614bf4565b602681526000602082017f53616665436173743a2076616c756520646f65736e27742066697420696e203681527f3420626974730000000000000000000000000000000000000000000000000000602082015291506142e9565b60208082528101610b4e81614c22565b60a08101614c9a8288613015565b614ca76020830187613015565b614cb46040830186613015565b614cc16060830185613015565b6113b6608083018461386156fe476f7665726e6f723a2072656c617920726576657274656420776974686f7574206d657373616765476f7665726e6f723a2063616c6c20726576657274656420776974686f7574206d657373616765a264697066735822122080075018a5ef439d8d21eabe6e54ce21e91401d6fd8e947811157d09f892310164736f6c63430008120033",
  "devdoc": {
    "errors": {
      "Empty()": [
        {
          "details": "An operation (e.g. {front}) couldn't be completed due to the queue being empty."
        }
      ]
    },
    "events": {
      "ProposalCanceled(uint256)": {
        "details": "Emitted when a proposal is canceled."
      },
      "ProposalCreated(uint256,address,address[],uint256[],string[],bytes[],uint256,uint256,string)": {
        "details": "Emitted when a proposal is created."
      },
      "ProposalExecuted(uint256)": {
        "details": "Emitted when a proposal is executed."
      },
      "VoteCast(address,uint256,uint8,uint256,string)": {
        "details": "Emitted when a vote is cast without params. Note: `support` values should be seen as buckets. Their interpretation depends on the voting module used."
      },
      "VoteCastWithParams(address,uint256,uint8,uint256,string,bytes)": {
        "details": "Emitted when a vote is cast with params. Note: `support` values should be seen as buckets. Their interpretation depends on the voting module used. `params` are additional encoded parameters. Their intepepretation also depends on the voting module used."
      }
    },
    "kind": "dev",
    "methods": {
      "COUNTING_MODE()": {
        "details": "See {IGovernor-COUNTING_MODE}."
      },
      "cancel(address[],uint256[],bytes[],bytes32)": {
        "details": "overrides parent contract Governor.sol",
        "params": {
          "calldatas": "functions to call of interaction process in the proposal",
          "descriptionHash": "description of proposal",
          "targets": "addresses of interaction process in the proposal",
          "values": "ETH values of interaction process in the proposal"
        }
      },
      "castVote(uint256,uint8)": {
        "details": "See {IGovernor-castVote}."
      },
      "castVoteBySig(uint256,uint8,uint8,bytes32,bytes32)": {
        "details": "See {IGovernor-castVoteBySig}."
      },
      "castVoteWithReason(uint256,uint8,string)": {
        "details": "See {IGovernor-castVoteWithReason}."
      },
      "castVoteWithReasonAndParams(uint256,uint8,string,bytes)": {
        "details": "See {IGovernor-castVoteWithReasonAndParams}."
      },
      "castVoteWithReasonAndParamsBySig(uint256,uint8,string,bytes,uint8,bytes32,bytes32)": {
        "details": "See {IGovernor-castVoteWithReasonAndParamsBySig}."
      },
      "constructor": {
        "params": {
          "_automation": "address of automation contract",
          "_token": "address of governace token contract"
        }
      },
      "execute(address[],uint256[],bytes[],bytes32)": {
        "details": "overrides parent contract Governor.sol and interface IGovernance.sol",
        "params": {
          "calldatas": "functions to call of interaction process in the proposal",
          "descriptionHash": "description of proposal",
          "targets": "addresses of interaction process in the proposal",
          "values": "ETH values of interaction process in the proposal"
        },
        "returns": {
          "_0": "proposalId"
        }
      },
      "getCalldatas()": {
        "returns": {
          "_0": "calldatas of current proposal"
        }
      },
      "getDescription()": {
        "returns": {
          "_0": "description of current proposal"
        }
      },
      "getDescriptionString()": {
        "returns": {
          "_0": "description as string of current proposal"
        }
      },
      "getExecutionTime()": {
        "returns": {
          "_0": "execution time of current proposal"
        }
      },
      "getProposalId()": {
        "returns": {
          "_0": "propsalId of current proposal"
        }
      },
      "getTargets()": {
        "returns": {
          "_0": "targets of current proposal"
        }
      },
      "getValues()": {
        "returns": {
          "_0": "values of current proposal"
        }
      },
      "getVotes(address,uint256)": {
        "details": "See {IGovernor-getVotes}."
      },
      "getVotesWithParams(address,uint256,bytes)": {
        "details": "See {IGovernor-getVotesWithParams}."
      },
      "hasVoted(uint256,address)": {
        "details": "See {IGovernor-hasVoted}."
      },
      "hashProposal(address[],uint256[],bytes[],bytes32)": {
        "details": "See {IGovernor-hashProposal}. The proposal id is produced by hashing the ABI encoded `targets` array, the `values` array, the `calldatas` array and the descriptionHash (bytes32 which itself is the keccak256 hash of the description string). This proposal id can be produced from the proposal data which is part of the {ProposalCreated} event. It can even be computed in advance, before the proposal is submitted. Note that the chainId and the governor address are not part of the proposal id computation. Consequently, the same proposal (with same operation and same description) will have the same id if submitted on multiple governors across multiple networks. This also means that in order to execute the same operation twice (on the same governor) the proposer will have to change the description in order to avoid proposal id conflicts."
      },
      "isReadyToExecution()": {
        "returns": {
          "_0": "whether the proposal is ready to execution or not"
        }
      },
      "isReadyToPropose()": {
        "returns": {
          "_0": "whether a new proposal is ready to propose or not"
        }
      },
      "name()": {
        "details": "See {IGovernor-name}."
      },
      "onERC1155BatchReceived(address,address,uint256[],uint256[],bytes)": {
        "details": "See {IERC1155Receiver-onERC1155BatchReceived}."
      },
      "onERC1155Received(address,address,uint256,uint256,bytes)": {
        "details": "See {IERC1155Receiver-onERC1155Received}."
      },
      "onERC721Received(address,address,uint256,bytes)": {
        "details": "See {IERC721Receiver-onERC721Received}."
      },
      "proposalDeadline(uint256)": {
        "details": "See {IGovernor-proposalDeadline}."
      },
      "proposalSnapshot(uint256)": {
        "details": "See {IGovernor-proposalSnapshot}."
      },
      "proposalThreshold()": {
        "details": "Part of the Governor Bravo's interface: _\"The number of votes required in order for a voter to become a proposer\"_."
      },
      "proposalVotes(uint256)": {
        "details": "Accessor to the internal vote counts."
      },
      "propose(address[],uint256[],bytes[],string)": {
        "details": "overrides parent contract Governor.sol",
        "params": {
          "calldatas": "functions to call of interaction process in the proposal",
          "description": "description of proposal",
          "targets": "addresses of interaction process in the proposal",
          "values": "ETH values of interaction process in the proposal"
        },
        "returns": {
          "_0": "proposalId"
        }
      },
      "quorumDenominator()": {
        "details": "Returns the quorum denominator. Defaults to 100, but may be overridden."
      },
      "quorumNumerator()": {
        "details": "Returns the current quorum numerator. See {quorumDenominator}."
      },
      "quorumNumerator(uint256)": {
        "details": "Returns the quorum numerator at a specific block number. See {quorumDenominator}."
      },
      "relay(address,uint256,bytes)": {
        "details": "Relays a transaction or function call to an arbitrary target. In cases where the governance executor is some contract other than the governor itself, like when using a timelock, this function can be invoked in a governance proposal to recover tokens or Ether that was sent to the governor contract by mistake. Note that if the executor is simply the governor itself, use of `relay` is redundant."
      },
      "setAutomation(address)": {
        "params": {
          "_automation": "sets automation contract. Only governance can access this function"
        }
      },
      "state(uint256)": {
        "details": "See {IGovernor-state}."
      },
      "supportsInterface(bytes4)": {
        "details": "See {IERC165-supportsInterface}."
      },
      "updateQuorumNumerator(uint256)": {
        "details": "Changes the quorum numerator. Emits a {QuorumNumeratorUpdated} event. Requirements: - Must be called through a governance proposal. - New numerator must be smaller or equal to the denominator."
      },
      "version()": {
        "details": "See {IGovernor-version}."
      },
      "votingDelay()": {
        "returns": {
          "_0": "returns time delay between creating proposal start of voting period"
        }
      },
      "votingPeriod()": {
        "returns": {
          "_0": "returns voting period time"
        }
      }
    },
    "version": 1
  },
  "userdoc": {
    "kind": "user",
    "methods": {
      "cancel(address[],uint256[],bytes[],bytes32)": {
        "notice": "cancel a proposal with these inputs. Inputs are controlled. If proposal is valid, it is cancelled and current proposal is deleted."
      },
      "execute(address[],uint256[],bytes[],bytes32)": {
        "notice": "execute a proposal with these inputs. This function can be called by only Automation contract."
      },
      "propose(address[],uint256[],bytes[],string)": {
        "notice": "create a proposal with these inputs. It requires that the state of former proposal should available for a new proposal. Current proposal is saved on storage to retrieve."
      }
    },
    "version": 1
  },
  "storageLayout": {
    "storage": [
      {
        "astId": 191,
        "contract": "contracts/Governance.sol:Governance",
        "label": "_name",
        "offset": 0,
        "slot": "0",
        "type": "t_string_storage"
      },
      {
        "astId": 196,
        "contract": "contracts/Governance.sol:Governance",
        "label": "_proposals",
        "offset": 0,
        "slot": "1",
        "type": "t_mapping(t_uint256,t_struct(ProposalCore)189_storage)"
      },
      {
        "astId": 199,
        "contract": "contracts/Governance.sol:Governance",
        "label": "_governanceCall",
        "offset": 0,
        "slot": "2",
        "type": "t_struct(Bytes32Deque)7432_storage"
      },
      {
        "astId": 1762,
        "contract": "contracts/Governance.sol:Governance",
        "label": "_proposalVotes",
        "offset": 0,
        "slot": "4",
        "type": "t_mapping(t_uint256,t_struct(ProposalVote)1757_storage)"
      },
      {
        "astId": 2018,
        "contract": "contracts/Governance.sol:Governance",
        "label": "_quorumNumerator",
        "offset": 0,
        "slot": "5",
        "type": "t_uint256"
      },
      {
        "astId": 2021,
        "contract": "contracts/Governance.sol:Governance",
        "label": "_quorumNumeratorHistory",
        "offset": 0,
        "slot": "6",
        "type": "t_struct(History)2684_storage"
      },
      {
        "astId": 7925,
        "contract": "contracts/Governance.sol:Governance",
        "label": "automation",
        "offset": 0,
        "slot": "7",
        "type": "t_address"
      },
      {
        "astId": 7928,
        "contract": "contracts/Governance.sol:Governance",
        "label": "currentProposal",
        "offset": 0,
        "slot": "8",
        "type": "t_struct(CurrentProposal)8345_storage"
      },
      {
        "astId": 7931,
        "contract": "contracts/Governance.sol:Governance",
        "label": "executionDelay",
        "offset": 0,
        "slot": "15",
        "type": "t_uint256"
      }
    ],
    "types": {
      "t_address": {
        "encoding": "inplace",
        "label": "address",
        "numberOfBytes": "20"
      },
      "t_array(t_address)dyn_storage": {
        "base": "t_address",
        "encoding": "dynamic_array",
        "label": "address[]",
        "numberOfBytes": "32"
      },
      "t_array(t_bytes_storage)dyn_storage": {
        "base": "t_bytes_storage",
        "encoding": "dynamic_array",
        "label": "bytes[]",
        "numberOfBytes": "32"
      },
      "t_array(t_struct(Checkpoint)2689_storage)dyn_storage": {
        "base": "t_struct(Checkpoint)2689_storage",
        "encoding": "dynamic_array",
        "label": "struct Checkpoints.Checkpoint[]",
        "numberOfBytes": "32"
      },
      "t_array(t_uint256)dyn_storage": {
        "base": "t_uint256",
        "encoding": "dynamic_array",
        "label": "uint256[]",
        "numberOfBytes": "32"
      },
      "t_bool": {
        "encoding": "inplace",
        "label": "bool",
        "numberOfBytes": "1"
      },
      "t_bytes32": {
        "encoding": "inplace",
        "label": "bytes32",
        "numberOfBytes": "32"
      },
      "t_bytes_storage": {
        "encoding": "bytes",
        "label": "bytes",
        "numberOfBytes": "32"
      },
      "t_int128": {
        "encoding": "inplace",
        "label": "int128",
        "numberOfBytes": "16"
      },
      "t_mapping(t_address,t_bool)": {
        "encoding": "mapping",
        "key": "t_address",
        "label": "mapping(address => bool)",
        "numberOfBytes": "32",
        "value": "t_bool"
      },
      "t_mapping(t_int128,t_bytes32)": {
        "encoding": "mapping",
        "key": "t_int128",
        "label": "mapping(int128 => bytes32)",
        "numberOfBytes": "32",
        "value": "t_bytes32"
      },
      "t_mapping(t_uint256,t_struct(ProposalCore)189_storage)": {
        "encoding": "mapping",
        "key": "t_uint256",
        "label": "mapping(uint256 => struct Governor.ProposalCore)",
        "numberOfBytes": "32",
        "value": "t_struct(ProposalCore)189_storage"
      },
      "t_mapping(t_uint256,t_struct(ProposalVote)1757_storage)": {
        "encoding": "mapping",
        "key": "t_uint256",
        "label": "mapping(uint256 => struct GovernorCountingSimple.ProposalVote)",
        "numberOfBytes": "32",
        "value": "t_struct(ProposalVote)1757_storage"
      },
      "t_string_storage": {
        "encoding": "bytes",
        "label": "string",
        "numberOfBytes": "32"
      },
      "t_struct(BlockNumber)4353_storage": {
        "encoding": "inplace",
        "label": "struct Timers.BlockNumber",
        "members": [
          {
            "astId": 4352,
            "contract": "contracts/Governance.sol:Governance",
            "label": "_deadline",
            "offset": 0,
            "slot": "0",
            "type": "t_uint64"
          }
        ],
        "numberOfBytes": "32"
      },
      "t_struct(Bytes32Deque)7432_storage": {
        "encoding": "inplace",
        "label": "struct DoubleEndedQueue.Bytes32Deque",
        "members": [
          {
            "astId": 7425,
            "contract": "contracts/Governance.sol:Governance",
            "label": "_begin",
            "offset": 0,
            "slot": "0",
            "type": "t_int128"
          },
          {
            "astId": 7427,
            "contract": "contracts/Governance.sol:Governance",
            "label": "_end",
            "offset": 16,
            "slot": "0",
            "type": "t_int128"
          },
          {
            "astId": 7431,
            "contract": "contracts/Governance.sol:Governance",
            "label": "_data",
            "offset": 0,
            "slot": "1",
            "type": "t_mapping(t_int128,t_bytes32)"
          }
        ],
        "numberOfBytes": "64"
      },
      "t_struct(Checkpoint)2689_storage": {
        "encoding": "inplace",
        "label": "struct Checkpoints.Checkpoint",
        "members": [
          {
            "astId": 2686,
            "contract": "contracts/Governance.sol:Governance",
            "label": "_blockNumber",
            "offset": 0,
            "slot": "0",
            "type": "t_uint32"
          },
          {
            "astId": 2688,
            "contract": "contracts/Governance.sol:Governance",
            "label": "_value",
            "offset": 4,
            "slot": "0",
            "type": "t_uint224"
          }
        ],
        "numberOfBytes": "32"
      },
      "t_struct(CurrentProposal)8345_storage": {
        "encoding": "inplace",
        "label": "struct IGovernance.CurrentProposal",
        "members": [
          {
            "astId": 8329,
            "contract": "contracts/Governance.sol:Governance",
            "label": "proposalId",
            "offset": 0,
            "slot": "0",
            "type": "t_uint256"
          },
          {
            "astId": 8331,
            "contract": "contracts/Governance.sol:Governance",
            "label": "executionTime",
            "offset": 0,
            "slot": "1",
            "type": "t_uint256"
          },
          {
            "astId": 8334,
            "contract": "contracts/Governance.sol:Governance",
            "label": "targets",
            "offset": 0,
            "slot": "2",
            "type": "t_array(t_address)dyn_storage"
          },
          {
            "astId": 8337,
            "contract": "contracts/Governance.sol:Governance",
            "label": "values",
            "offset": 0,
            "slot": "3",
            "type": "t_array(t_uint256)dyn_storage"
          },
          {
            "astId": 8340,
            "contract": "contracts/Governance.sol:Governance",
            "label": "calldatas",
            "offset": 0,
            "slot": "4",
            "type": "t_array(t_bytes_storage)dyn_storage"
          },
          {
            "astId": 8342,
            "contract": "contracts/Governance.sol:Governance",
            "label": "description",
            "offset": 0,
            "slot": "5",
            "type": "t_bytes32"
          },
          {
            "astId": 8344,
            "contract": "contracts/Governance.sol:Governance",
            "label": "descriptionString",
            "offset": 0,
            "slot": "6",
            "type": "t_string_storage"
          }
        ],
        "numberOfBytes": "224"
      },
      "t_struct(History)2684_storage": {
        "encoding": "inplace",
        "label": "struct Checkpoints.History",
        "members": [
          {
            "astId": 2683,
            "contract": "contracts/Governance.sol:Governance",
            "label": "_checkpoints",
            "offset": 0,
            "slot": "0",
            "type": "t_array(t_struct(Checkpoint)2689_storage)dyn_storage"
          }
        ],
        "numberOfBytes": "32"
      },
      "t_struct(ProposalCore)189_storage": {
        "encoding": "inplace",
        "label": "struct Governor.ProposalCore",
        "members": [
          {
            "astId": 181,
            "contract": "contracts/Governance.sol:Governance",
            "label": "voteStart",
            "offset": 0,
            "slot": "0",
            "type": "t_struct(BlockNumber)4353_storage"
          },
          {
            "astId": 184,
            "contract": "contracts/Governance.sol:Governance",
            "label": "voteEnd",
            "offset": 0,
            "slot": "1",
            "type": "t_struct(BlockNumber)4353_storage"
          },
          {
            "astId": 186,
            "contract": "contracts/Governance.sol:Governance",
            "label": "executed",
            "offset": 0,
            "slot": "2",
            "type": "t_bool"
          },
          {
            "astId": 188,
            "contract": "contracts/Governance.sol:Governance",
            "label": "canceled",
            "offset": 1,
            "slot": "2",
            "type": "t_bool"
          }
        ],
        "numberOfBytes": "96"
      },
      "t_struct(ProposalVote)1757_storage": {
        "encoding": "inplace",
        "label": "struct GovernorCountingSimple.ProposalVote",
        "members": [
          {
            "astId": 1748,
            "contract": "contracts/Governance.sol:Governance",
            "label": "againstVotes",
            "offset": 0,
            "slot": "0",
            "type": "t_uint256"
          },
          {
            "astId": 1750,
            "contract": "contracts/Governance.sol:Governance",
            "label": "forVotes",
            "offset": 0,
            "slot": "1",
            "type": "t_uint256"
          },
          {
            "astId": 1752,
            "contract": "contracts/Governance.sol:Governance",
            "label": "abstainVotes",
            "offset": 0,
            "slot": "2",
            "type": "t_uint256"
          },
          {
            "astId": 1756,
            "contract": "contracts/Governance.sol:Governance",
            "label": "hasVoted",
            "offset": 0,
            "slot": "3",
            "type": "t_mapping(t_address,t_bool)"
          }
        ],
        "numberOfBytes": "128"
      },
      "t_uint224": {
        "encoding": "inplace",
        "label": "uint224",
        "numberOfBytes": "28"
      },
      "t_uint256": {
        "encoding": "inplace",
        "label": "uint256",
        "numberOfBytes": "32"
      },
      "t_uint32": {
        "encoding": "inplace",
        "label": "uint32",
        "numberOfBytes": "4"
      },
      "t_uint64": {
        "encoding": "inplace",
        "label": "uint64",
        "numberOfBytes": "8"
      }
    }
  }
}