{
  "address": "0xC23b0052609720cd6f3a2CF252B5365880b8b75F",
  "abi": [
    {
      "inputs": [
        {
          "internalType": "address",
          "name": "_governance",
          "type": "address"
        },
        {
          "internalType": "address",
          "name": "_token",
          "type": "address"
        }
      ],
      "stateMutability": "nonpayable",
      "type": "constructor"
    },
    {
      "anonymous": false,
      "inputs": [
        {
          "indexed": true,
          "internalType": "address",
          "name": "previousOwner",
          "type": "address"
        },
        {
          "indexed": true,
          "internalType": "address",
          "name": "newOwner",
          "type": "address"
        }
      ],
      "name": "OwnershipTransferred",
      "type": "event"
    },
    {
      "anonymous": false,
      "inputs": [
        {
          "indexed": false,
          "internalType": "address",
          "name": "from",
          "type": "address"
        },
        {
          "indexed": false,
          "internalType": "uint256",
          "name": "amount",
          "type": "uint256"
        }
      ],
      "name": "Received",
      "type": "event"
    },
    {
      "anonymous": false,
      "inputs": [
        {
          "indexed": false,
          "internalType": "address",
          "name": "to",
          "type": "address"
        },
        {
          "indexed": false,
          "internalType": "uint256",
          "name": "amount",
          "type": "uint256"
        }
      ],
      "name": "Transferred",
      "type": "event"
    },
    {
      "inputs": [],
      "name": "balance",
      "outputs": [
        {
          "internalType": "uint256",
          "name": "",
          "type": "uint256"
        }
      ],
      "stateMutability": "view",
      "type": "function"
    },
    {
      "inputs": [],
      "name": "getBalance",
      "outputs": [
        {
          "internalType": "uint256",
          "name": "",
          "type": "uint256"
        }
      ],
      "stateMutability": "view",
      "type": "function"
    },
    {
      "inputs": [],
      "name": "owner",
      "outputs": [
        {
          "internalType": "address",
          "name": "",
          "type": "address"
        }
      ],
      "stateMutability": "view",
      "type": "function"
    },
    {
      "inputs": [],
      "name": "renounceOwnership",
      "outputs": [],
      "stateMutability": "nonpayable",
      "type": "function"
    },
    {
      "inputs": [],
      "name": "token",
      "outputs": [
        {
          "internalType": "contract IToken",
          "name": "",
          "type": "address"
        }
      ],
      "stateMutability": "view",
      "type": "function"
    },
    {
      "inputs": [
        {
          "internalType": "address",
          "name": "to",
          "type": "address"
        },
        {
          "internalType": "uint256",
          "name": "amount",
          "type": "uint256"
        }
      ],
      "name": "transfer",
      "outputs": [],
      "stateMutability": "nonpayable",
      "type": "function"
    },
    {
      "inputs": [
        {
          "internalType": "address",
          "name": "newOwner",
          "type": "address"
        }
      ],
      "name": "transferOwnership",
      "outputs": [],
      "stateMutability": "nonpayable",
      "type": "function"
    },
    {
      "stateMutability": "payable",
      "type": "receive"
    }
  ],
  "transactionHash": "0xf739dec85a09fadfbac6834b2a2961793c5ad173f9e7631061df6e7ac9d40906",
  "args": [
    "0xbf0580DE9Ad61c2723ac096DA89701881a68623D",
    "0x8ae338Ec40Ce079813474496cbefe624C7d752bC"
  ],
  "numDeployments": 2,
  "solcInputHash": "73a1b1c6481384020a264043f1063250",
  "bytecode": "0x608060405234801561001057600080fd5b506040516108d73803806108d783398101604081905261002f916101a6565b610038336100b5565b61004182610105565b600180546001600160a01b0319166001600160a01b03831690811790915560408051633ccfd60b60e01b81529051633ccfd60b9160048082019260009290919082900301818387803b15801561009657600080fd5b505af11580156100aa573d6000803e3d6000fd5b505050505050610267565b600080546001600160a01b038381166001600160a01b0319831681178455604051919092169283917f8be0079c531659141344cd1fd0a4f28419497f9722a3daafe3b4186f6b6457e09190a35050565b61010d610148565b6001600160a01b03811661013c5760405162461bcd60e51b8152600401610133906101e3565b60405180910390fd5b610145816100b5565b50565b6000546001600160a01b031633146101725760405162461bcd60e51b81526004016101339061022d565b565b60006001600160a01b0382165b92915050565b61019081610174565b811461014557600080fd5b805161018181610187565b600080604083850312156101bc576101bc600080fd5b60006101c8858561019b565b92505060206101d98582860161019b565b9150509250929050565b6020808252810161018181602681527f4f776e61626c653a206e6577206f776e657220697320746865207a65726f206160208201526564647265737360d01b604082015260600190565b60208082528181019081527f4f776e61626c653a2063616c6c6572206973206e6f7420746865206f776e6572604083015260608201610181565b610661806102766000396000f3fe6080604052600436106100745760003560e01c8063a9059cbb1161004e578063a9059cbb14610128578063b69ef8a814610148578063f2fde38b1461015e578063fc0c546a1461017e57600080fd5b806312065fe0146100b9578063715018a6146100de5780638da5cb5b146100f557600080fd5b366100b4577f88a5966d370b9919b20f3e2c13ff65706f196a4e32cc2c12bf57088f8852587433346040516100aa92919061041a565b60405180910390a1005b600080fd5b3480156100c557600080fd5b50475b6040516100d5919061043c565b60405180910390f35b3480156100ea57600080fd5b506100f36101b8565b005b34801561010157600080fd5b5060005473ffffffffffffffffffffffffffffffffffffffff166040516100d5919061044a565b34801561013457600080fd5b506100f3610143366004610488565b6101cc565b34801561015457600080fd5b506100c860025481565b34801561016a57600080fd5b506100f36101793660046104c5565b6102be565b34801561018a57600080fd5b506001546101ab9073ffffffffffffffffffffffffffffffffffffffff1681565b6040516100d5919061052b565b6101c061031f565b6101ca6000610370565b565b6101d461031f565b60008273ffffffffffffffffffffffffffffffffffffffff16826040516101fa90610539565b60006040518083038185875af1925050503d8060008114610237576040519150601f19603f3d011682016040523d82523d6000602084013e61023c565b606091505b5050905080610280576040517f08c379a000000000000000000000000000000000000000000000000000000000815260040161027790610578565b60405180910390fd5b7fe6d858f14d755446648a6e0c8ab8b5a0f58ccc7920d4c910b0454e4dcd869af083836040516102b192919061041a565b60405180910390a1505050565b6102c661031f565b73ffffffffffffffffffffffffffffffffffffffff8116610313576040517f08c379a000000000000000000000000000000000000000000000000000000000815260040161027790610588565b61031c81610370565b50565b60005473ffffffffffffffffffffffffffffffffffffffff1633146101ca576040517f08c379a00000000000000000000000000000000000000000000000000000000081526004016102779061061b565b6000805473ffffffffffffffffffffffffffffffffffffffff8381167fffffffffffffffffffffffff0000000000000000000000000000000000000000831681178455604051919092169283917f8be0079c531659141344cd1fd0a4f28419497f9722a3daafe3b4186f6b6457e09190a35050565b600073ffffffffffffffffffffffffffffffffffffffff82165b92915050565b61040e816103e5565b82525050565b8061040e565b604081016104288285610405565b6104356020830184610414565b9392505050565b602081016103ff8284610414565b602081016103ff8284610405565b610461816103e5565b811461031c57600080fd5b80356103ff81610458565b80610461565b80356103ff81610477565b6000806040838503121561049e5761049e600080fd5b60006104aa858561046c565b92505060206104bb8582860161047d565b9150509250929050565b6000602082840312156104da576104da600080fd5b60006104e6848461046c565b949350505050565b600073ffffffffffffffffffffffffffffffffffffffff82166103ff565b60006103ff826104ee565b60006103ff8261050c565b61040e81610517565b602081016103ff8284610522565b6000816103ff565b601081526000602082017f5472616e73666572206661696c65642100000000000000000000000000000000815291505b5060200190565b602080825281016103ff81610541565b602080825281016103ff81602681527f4f776e61626c653a206e6577206f776e657220697320746865207a65726f206160208201527f6464726573730000000000000000000000000000000000000000000000000000604082015260600190565b60208082527f4f776e61626c653a2063616c6c6572206973206e6f7420746865206f776e657291019081526000610571565b602080825281016103ff816105e956fea2646970667358221220c1e55b21205aadbf723863aebf901f61f161fe6c183a8614fb2eb65eb82a697264736f6c63430008120033",
  "devdoc": {
    "kind": "dev",
    "methods": {
      "constructor": {
        "params": {
          "_governance": "address of the governance contract",
          "_token": "address of governance token address"
        }
      },
      "owner()": {
        "details": "Returns the address of the current owner."
      },
      "renounceOwnership()": {
        "details": "Leaves the contract without owner. It will not be possible to call `onlyOwner` functions anymore. Can only be called by the current owner. NOTE: Renouncing ownership will leave the contract without an owner, thereby removing any functionality that is only available to the owner."
      },
      "transfer(address,uint256)": {
        "params": {
          "amount": "asset amount of transfer",
          "to": "destination address of transfer"
        }
      },
      "transferOwnership(address)": {
        "details": "Transfers ownership of the contract to a new account (`newOwner`). Can only be called by the current owner."
      }
    },
    "version": 1
  },
  "userdoc": {
    "kind": "user",
    "methods": {
      "constructor": {
        "notice": "transfers ownership of this contract to governance contracttransfers token vesting funds to this contract from token contract"
      },
      "getBalance()": {
        "notice": "returns balance of this contract"
      },
      "transfer(address,uint256)": {
        "notice": "can be called by only governance contract"
      }
    },
    "version": 1
  },
  "storageLayout": {
    "storage": [
      {
        "astId": 26,
        "contract": "contracts/Treasury.sol:Treasury",
        "label": "_owner",
        "offset": 0,
        "slot": "0",
        "type": "t_address"
      },
      {
        "astId": 10206,
        "contract": "contracts/Treasury.sol:Treasury",
        "label": "token",
        "offset": 0,
        "slot": "1",
        "type": "t_contract(IToken)10081"
      },
      {
        "astId": 10208,
        "contract": "contracts/Treasury.sol:Treasury",
        "label": "balance",
        "offset": 0,
        "slot": "2",
        "type": "t_uint256"
      }
    ],
    "types": {
      "t_address": {
        "encoding": "inplace",
        "label": "address",
        "numberOfBytes": "20"
      },
      "t_contract(IToken)10081": {
        "encoding": "inplace",
        "label": "contract IToken",
        "numberOfBytes": "20"
      },
      "t_uint256": {
        "encoding": "inplace",
        "label": "uint256",
        "numberOfBytes": "32"
      }
    }
  }
}